:020000040800F2
:1000000040040020A1010008750D00080D0A000839
:10001000710D0008050700085F18000800000000C7
:100020000000000000000000000000007510000843
:100030006507000800000000050E000869130008AD
:10004000BB010008BB010008BB010008BB010008A0
:10005000BB010008BB010008BB010008BB01000890
:10006000BB010008BB010008BB010008BB01000880
:10007000BB010008BB010008BB010008BB01000870
:10008000BB010008BB010008BB010008BB01000860
:10009000BB010008BB010008BB010008690700089C
:1000A000BB010008BB010008BB010008BB01000840
:1000B000D5130008BB010008ED130008BB010008C0
:1000C000BB010008BB010008BB010008BB01000820
:1000D000BB010008BB010008FD1500081D16000843
:1000E000BB010008BB010008BB010008BB01000800
:1000F000BB010008BB010008BB010008BB010008F0
:10010000BB010008BB01000815140008BB01000872
:10011000BB010008BB010008BB010008BB010008CF
:10012000BB010008BB010008BB010008BB010008BF
:10013000BB010008BB010008BB010008BB010008AF
:10014000BB010008BB010008BB010008BB0100089F
:10015000BB010008BB010008BB010008BB0100088F
:10016000BB010008BB010008BB010008BB0100087F
:10017000BB010008BB010008BB010008BB0100086F
:10018000BB010008BB010008DFF810D000F01AFA2C
:100190000048004769230008AFF3008040040020B6
:1001A0000648804706480047FEE7FEE7FEE7FEE711
:1001B000FEE7FEE7FEE7FEE7FEE7FEE76D13000859
:1001C0008901000830B50B46014600202022012499
:1001D00009E021FA02F59D4205D303FA02F5491B15
:1001E00004FA02F52844151EA2F10102F1DC30BD2B
:1001F0002DE9F05F0546002092469B46884606465C
:10020000814640241BE0284641464746224600F0EE
:10021000FAF953465A46C01A914110D3114618466E
:10022000224600F0E1F92D1A67EB01084F462246FD
:100230000120002100F0D8F917EB00094E41201EE3
:10024000A4F10104DFDC484631462A464346BDE8B6
:10025000F09F2DE9FE4F804681EA0300C00F0C4657
:10026000009021F0004123F00045B8EB0200A941C5
:1002700005D24046214690461C460B46024623F0D6
:100280000040104347D0270DC7F30A00C3F30A51BB
:100290000290401A019040286BDAC3F3130040F437
:1002A000801B0098924620B10023D2EB030A63EB37
:1002B0000B0B01985946C0F14002504600F094F9EA
:1002C00006460D4650465946019A00F0ACF910EB2F
:1002D00008006141002487EA115284EAE7731A4357
:1002E00040D0009A62B3019A012A4FEA075215DC06
:1002F000001B61EB02014FF0004202EA0752CDE918
:100300000042001C41F5801132462B4600F0ACF94A
:1003100003B0BDE8F08F40462146F9E7001B61EBD2
:100320000201001C41F5801300185B412018A2F562
:10033000001747EB030140EAD570B6196D4111E093
:100340006D084FEA360645EAC0754FEA0752001BB2
:1003500061EB0201001C41F5801149084FEA3000B1
:100360000019514132462B4603B0BDE8F04F00F072
:100370006CB90098012240000023D0EB020263EB2D
:10038000E073009821464FEAE074B8EB000061EB9F
:100390000401E9E783F000435BE781F0004158E79F
:1003A0002DE9FE4F81EA030404F0004421F00041EE
:1003B00000944FF0000B23F0004350EA01045ED09C
:1003C00052EA03045BD0C3F30A54C1F30A552C4428
:1003D000A4F2F3340194A0FB0254C1F3130141F4DD
:1003E0008011C3F3130343F4801301FB024400FBA9
:1003F000034E840A970A44EA815447EA8357A4FBD0
:10040000076802958D0A05FB07854FEA932C04FBCC
:100410000C542705029D4FEA065847EA1637B5EBFC
:1004200008056EEB070C870E920E47EA811742EA29
:100430008312A7FB0201B6EB0B0164EB00042B0D4A
:1004400043EA0C335E1844EB1C50DA465146E7FB96
:100450000201C5F313044FEA0B3343EA14534FEA86
:100460000432019C43EA0603A4F10C040294009CAC
:10047000CDE900B400F0F8F803B0BDE8F08F00203B
:100480000146F9E72DE9F04D81EA030404F0004B41
:1004900021F0004514464FF0000A23F0004150EAD5
:1004A000050220D054EA01021DD0C5F30A570246C6
:1004B000C5F31303C1F31300C1F30A5640F48015CA
:1004C00043F48013A7EB0608101BD64608F2FD384C
:1004D00073EB050002D308F1010801E092185B41BB
:1004E000B8F1000F03DA00200146BDE8F08D0020CE
:1004F0004FF48011064684460EE0171B73EB050788
:1005000005D3121B63EB050306434CEA010C4908B3
:100510004FEA300092185B4150EA0107EDD152EAF0
:10052000030012D082EA040083EA0501084305D0E3
:10053000101BAB4106D20122002306E000224FF03F
:10054000004302E06FF0010253101AEB06004CEB7F
:10055000085110EB0A0041EB0B01BDE8F04D00F033
:1005600074B8C1F30A52C1F3130140F2FF3341F4EE
:1005700080119A4202DA00200146704740F233436C
:100580009A42A2F2334202DC524200F03CB800F040
:100590002BB8000030B5041E71F1000404DB4FF0ED
:1005A0000044404264EB0101141E73F1000405DBBA
:1005B0001C464FF00043524263EB0403994208BFCC
:1005C000904230BD064C074D06E0E06840F0010364
:1005D00094E8070098471034AC42F6D3FFF7D8FDF3
:1005E0007825000898250008202A04DB203A00FA24
:1005F00002F1002070479140C2F1200320FA03F37A
:10060000194390407047202A04DB203A21FA02F077
:100610000021704721FA02F3D040C2F1200291403C
:10062000084319467047202A06DBCB17203A41FAC7
:1006300002F043EAE07306E041FA02F3D040C2F16F
:100640002002914008431946704710B5141E73F1FB
:10065000000408DA401C41F1000192185B411A4382
:1006600001D120F0010010BD2DE9F04D92469B46CE
:1006700011B1B1FA81F202E0B0FA80F22032904674
:10068000FFF7B2FF04460F4640EA0A0041EA0B01B9
:1006900053465A46084313D0114653EA010019D075
:1006A000C8F140025046FFF7AEFF05460E465046E1
:1006B00059464246FFF798FF084305D0012004E061
:1006C00020463946BDE8F08D0020054346EAE07635
:1006D0002C4337430A986305E40AA0EB0800002284
:1006E000FD0A44EA47540A3002D500200146E9E7F2
:1006F000010510196941DDE9084500196941BDE8A6
:10070000F04DA2E700BFFEE71CB50121042000F078
:10071000F5FB00208DF804004FF4005000900220FB
:100720008DF805006946024800F09CF81CBD0000E9
:10073000000802401CB50121042000F0DFFB01206D
:100740008DF8040000208DF806004FF40050009052
:1007500002208DF805006946014800F083F81CBDB1
:10076000000802407047000010B54FF4807000F0A0
:1007700023F860B100F048FB05A001F073F84FF4D6
:10078000807000F00DF84FF4807000F00FF810BD8D
:10079000E8BF9BE585A5E4B8ADE696AD310D0A004E
:1007A0000149086070470000143C0140014908609D
:1007B00070470000143C014001460020034A1268C3
:1007C0000A400AB1012000E000207047143C0140BB
:1007D000002123498279002A3AD00A461268036828
:1007E0009A430B461A600A1D126803689A430B1D50
:1007F0001A60027911440A6803681A430A60184AA9
:100800000832126803689A43154B08331A601A1DA0
:10081000126803689A43124B0C331A604279102A0B
:100820000ED11A1F126803681A430D4B08331A6061
:100830001A1D126803681A43094B0C331A600DE045
:100840000749427911440A6803681A430A6005E0BF
:10085000027911440A6803689A430A6070470000ED
:10086000003C0140F0B50A4600210023002400BFEF
:100870003DE0012505FA01F3156805EA03049C42F1
:1008800034D105684F000326BE40B5430560157995
:100890004E00B5400668354305601579012D02D03C
:1008A0001579022D16D185684F000326BE40B54349
:1008B000856055794E00B54086683543856045684A
:1008C00001268E40B5434560456896798E40B6B2A4
:1008D00035434560C5684F000326BE40B543C5603B
:1008E000D5794E00B540C6683543C560491C10290E
:1008F000BFD3F0BDF0B5002300244D07ED0E02FA82
:1009000005F3CE1000F1200555F826504E07F70EDE
:100910000F26BE40B543CF1000F1200646F8275001
:10092000CE1000F1200555F8265045EA0304CE10FC
:1009300000F1200545F82640F0BD0246002013696D
:100940000B400BB1012000E0002070470A048261D7
:10095000704781617047000000B587B00121082011
:1009600000F0BCFA0121082000F0A8FA0120029052
:1009700002208DF80D0001208DF80C0000208DF86C
:100980000E0002A91F48FFF76DFF01211D48FFF768
:10099000DDFF0220029000208DF80C0002A919480A
:1009A000FFF760FF0121042000F098FA40F2E730E1
:1009B00005905320ADF810000020ADF81800ADF8F8
:1009C000120004A9104800F0D7FD01210E4800F0E4
:1009D00047FD012211460C4800F065FD1E208DF8F0
:1009E000040000208DF805008DF8060001208DF828
:1009F000070001A800F0C0F90021034800F036FD0F
:100A000007B000BD000C02400008004000BFFEE738
:100A100000B585B00121880300F070FA0121102093
:100A200000F04CFA4FF48070009000208DF8040024
:100A300002208DF8050000208DF807006946124855
:100A4000FFF710FF0821042000F016FB4FF4807020
:100A5000039000208DF810000C208DF8110001206B
:100A60008DF8120003A8FFF7B3FE17208DF80800D9
:100A700001208DF809008DF80A008DF80B0002A8FE
:100A800000F07AF905B000BD001002401CB501214C
:100A9000022000F013FA0220009000208DF80600DA
:100AA00002208DF8050001208DF8040000208DF84B
:100AB000070069460448FFF7D5FE402000906946CC
:100AC0000148FFF7CFFE1CBD0004024000B587B00F
:100AD0000121880300F002FA0121022000F0EEF962
:100AE0004FF48040009002208DF805008DF804003E
:100AF00069462C48FFF7B6FE4FF4004000900220F4
:100B00008DF8040000208DF8060069462548FFF79F
:100B1000A9FE4FF40050009069462248FFF7A2FE5C
:100B200005220D211F48FFF7E5FE05220E211D4875
:100B3000FFF7E0FE05220F211A48FFF7DBFE022136
:100B40001848FFF706FF0021174800F05BFA002065
:100B5000ADF808004FF48270ADF80A000020ADF83F
:100B60000C000220ADF80E000020ADF810004FF48C
:100B70000070ADF812003020ADF814000020ADF880
:100B800016000720ADF8180002A9074800F054FA33
:100B90000121054800F036FAFF2001F037FC07B0CC
:100BA00000BD0000000402400038004030B50021C4
:100BB0000022002300BF0BE0002206E0C82300BF94
:100BC0001C1EA3F10103FBD1521C8242F6D3491C27
:100BD0000529F1D330BD10B5FFF758FFFFF718FF17
:100BE000FFF774FF00F09CF810BD000010B500F096
:100BF00097F8062000F052F80520FFF7D7FF3321C1
:100C0000352000F06DF855211B2000F069F83321E4
:100C1000352000F065F80520FFF7C8FF352000F00B
:100C20003DF8044621461BA000F01CFE1B2000F0EE
:100C300035F80446214617A000F014FE352000F0D8
:100C40002DF80446214613A000F00CFE00F068F8D1
:100C5000062000F023F8044621460EA000F002FE14
:100C6000062000F01BF8044621460AA000F0FAFD19
:100C7000352000F013F80446214606A000F0F2FDEE
:100C8000B32000F00BF80446214602A000F0EAFD74
:100C900010BD000025780D0A0000000070B5044664
:100CA00002210E48FFF752FE00BF00BF00BF00BF89
:100CB00080210A48FFF74AFE052001F0A7FB2046E5
:100CC00001F0A4FB002001F0A1FB054600BF0221BA
:100CD0000248FFF73EFE284670BD000000040240B7
:100CE00070B505460C4602210C48FFF72FFE00BFE9
:100CF00000BF00BF00BF80210848FFF727FE042087
:100D000001F084FB284601F081FB204601F07EFBC8
:100D100000BF02210148FFF71CFE70BD0004024025
:100D200010B540211148FFF714FE6420FFF73EFF85
:100D300040210E48FFF70AFE6420FFF737FF4021ED
:100D40000A48FFF706FE6420FFF730FF022107483C
:100D5000FFF7FCFD6420FFF729FF02210348FFF79E
:100D6000F8FD6420FFF722FF10BD000000040240E0
:100D700000BFFEE77047000070B5002100230F227E
:100D8000C4781CB3174C246804F4E064C4F5E06430
:100D9000C4F30721C1F10404E3B20A4144789C4042
:100DA000E1B28478144021430C07210E0E4C0578E3
:100DB0006155047804F01F050124AC4005786D11DD
:100DC000AD0005F1E025C5F8004109E0047804F024
:100DD0001F050124AC40054D0678761145F82640E4
:100DE00070BD00000CED00E000E400E080E100E0F8
:100DF00002490143024A1160704700000000FA05F1
:100E00000CED00E07047000010B500242B20FFF728
:100E100045FF2849087000212920FFF761FF0021C4
:100E20000220FFF75DFF2348007800F01000C8B1F2
:100E3000B220FFF733FF212814D1BF20FFF72EFF88
:100E400035280FD1BA20FFF729FF0446002C05DD15
:100E5000042C03DC10201849087006E01120164904
:100E6000087002E011201449087000212B20FFF7C0
:100E700037FF00211C20FFF733FF00212920FFF757
:100E80002FFF00210220FFF72BFF00212B20FFF76F
:100E900027FF0021BA20FFF723FF0021BC20FFF726
:100EA0001FFF01210820FFF71BFF00210820FFF78B
:100EB00017FF10BD2C0000202A00002029B1064A8F
:100EC00012680243044B1A6004E0034A126882432A
:100ED000014B1A60704700003038024029B1064AC1
:100EE00012680243044B1A6004E0034A126882430A
:100EF000014B1A60704700004038024029B1064A91
:100F000012680243044B1A6004E0034A12688243E9
:100F1000014B1A607047000044380240F0B50021D0
:100F200000220024022500260223324F3F6807F0EA
:100F30000C0121B1042905D0082937D105E02E4F35
:100F4000076036E02D4F076033E02A4F3F1F3F68B0
:100F5000C7F38056274F3F1F3F6807F03F036EB12E
:100F6000264FB7FBF3F7DFF88CC0ACF1040CDCF8CC
:100F700000C0CCF3881C07FB0CF40CE01E4FB7FB41
:100F8000F3F7DFF870C0ACF1040CDCF800C0CCF370
:100F9000881C07FB0CF4174F3F1F3F68C7F301473E
:100FA0007F1C7D00B4FBF5F7076002E0124F07607D
:100FB00000BF00BF0F4F3F6807F0F0010909104F55
:100FC0007A5C0768D74047600A4F3F6807F4E051F2
:100FD000890A0B4F7A5C4768D7408760054F3F68A6
:100FE00007F46041490B064F7A5C4768D740C760F9
:100FF000F0BD0000083802400024F40040787D0174
:101000000000002021B1028842F04002028004E08A
:1010100002884FF6BF731A400280704702460020D4
:1010200013890B400BB1012000E0002070470146FE
:10103000888970478181704710B50022028802F4C8
:1010400041520B884C8823438C882343CC8823430C
:101050000C8923434C8923438C892343CC89234324
:101060001A430280838B4FF2FF74234083830B8AE1
:10107000038210BD7047000030B500228B071C0FA3
:101080000F2303FA04F20B4B8C1053F824309343D4
:10109000084C8D1044F8253023468C1053F824302A
:1010A0008C07240F00FA04F42343024C8D1044F8FB
:1010B000253030BD0838014000B58FB0012108202F
:1010C000FFF7FCFE072205215148FFF713FC07221A
:1010D00006214F48FFF70EFC02208DF83800002053
:1010E0008DF83A0020200D9001208DF83B00022061
:1010F0008DF839000DA94648FFF7B4FB02208DF8A2
:10110000380040200D900DA94148FFF7ABFB0121AD
:101110004804FFF7E3FE4FF4E13009900020ADF8FA
:1011200030000C20ADF82E000020ADF82C00ADF8FA
:101130002A00ADF8280009A9364800F01DFB01225D
:1011400040F22551334800F0F1FA26208DF82000B6
:1011500001208DF823008DF821008DF8220008A8C9
:10116000FFF70AFE01212B4800F09DFA01218804B7
:10117000FFF7B4FE01210220FFF7B0FE4FF48060BC
:10118000059002208DF819008DF8180005A9224855
:10119000FFF768FB4FF40060059002208DF81800FF
:1011A00005A91D48FFF75EFB4FF4E13001900020D8
:1011B000ADF80800ADF80A00ADF80C00ADF810006D
:1011C0000C20ADF80E0001A9144800F0D5FA012258
:1011D00040F22551114800F0A9FA012240F22441C1
:1011E0000E4800F0A3FA01210C4800F05CFA272019
:1011F0008DF81C0006208DF81D0000208DF81E00C3
:1012000001208DF81F0007A8FFF7B6FD0FB000BD45
:10121000000C02400044004000040240004800402E
:101220000FB400B59BB01DA8019002A8019A1C99AB
:1012300000F028FB0020019002A800F013F81BB07A
:101240005DF814FB10B504462146054800F003FB89
:1012500000BF8021024800F032FA0028F9D010BD0A
:101260000044004070B50446002503E0605DFFF7D0
:10127000E9FF6D1C605D0028F8D170BD0CB5002041
:10128000019000903448006840F480303249086092
:1012900000BF3148006800F4003000900198401C05
:1012A0000190009818B90198B0F5A04FF1D12A48E3
:1012B000006800F4003010B10120009001E000202F
:1012C00000900098012846D123484030006840F043
:1012D00080502149403108602048006840F4404077
:1012E0001E4908601C48083000681B490831086026
:1012F0000846006840F4004008600846006840F472
:10130000A05008601648091F0860081F006840F0D8
:101310008070091F086000BF0F48006800F000706F
:101320000028F9D040F205700E4908600A480830DC
:10133000006820F00300084908310860084600688A
:1013400040F00200086000BF03480830006800F069
:101350000C000828F8D10CBD003802400070004095
:1013600019544007003C02407047000010B5154872
:10137000006840F47000134908601348006840F0AA
:1013800001001149086000200F49083108600E482B
:1013900000680E4908400C4908600D48091D0860A6
:1013A000081F006820F48020091F086000200649FB
:1013B0000C310860FFF762FF4FF00060014980398F
:1013C000086010BD88ED00E000380240FFFFF6FE27
:1013D0001030002410B50121880700F053F818B12F
:1013E0000121880700F03FF810BD000010B5012171
:1013F000064800F047F840B10121044800F033F8F6
:1014000003480088401C0249088010BD00080040C5
:101410002800002010B50121094800F033F870B110
:101420000121074800F01FF80649074801F034F889
:10143000044802780448017804A0FFF7F1FE10BDCB
:10144000000C0040310000203000002054656D3A4F
:1014500025640D0A48756D3A25640D0A00000000E8
:10146000CA4302827047CA430282704721B1028890
:1014700042F00102028004E002884FF6FE731A4037
:101480000280704730B50246002000230024158AF0
:1014900005EA0103958905EA010413B10CB10120A5
:1014A00000E0002030BD1AB183890B43838102E044
:1014B00083898B43838170471FB501210846FFF75D
:1014C0000DFD42F20F70019042F2CF00ADF8000026
:1014D0000020ADF80800ADF8020069464FF08040EA
:1014E00000F04AF801218807FFF7BAFF01221146F0
:1014F0009007FFF7D8FF1C208DF80C0000208DF816
:101500000D008DF80E0001208DF80F0003A8FFF7E5
:1015100033FC01218807FFF7A9FF01210820FFF70D
:10152000DDFC1348019042F2CF00ADF8000000202E
:10153000ADF80800ADF8020069460E4800F01CF84E
:1015400001210C48FFF78CFF012211460948FFF7E3
:10155000AAFF32208DF80C0000208DF80D0001202C
:101560008DF80E008DF80F0003A8FFF705FC1FBDD6
:101570009F860100000C004000220288184B984210
:101580000ED0184B98420BD0B0F1804F08D0164BBC
:10159000984205D0154B984202D0154B984204D181
:1015A0004FF68F731A404B881A43124B984207D05C
:1015B000114B984204D04FF6FF431A400B891A434F
:1015C00002804B68C3620B880385054B984202D0AA
:1015D000044B984201D18B7A0386012383827047A2
:1015E00000000140000401400004004000080040E9
:1015F000000C0040001000400014004010B52021F5
:10160000054800F05CF8012804D140F22551024859
:1016100000F03AF810BD00000044004010B540F260
:101620002551114800F058F870B10F4800F00EF93C
:10163000C4B2232C02D10DA000F014F940F22551C0
:10164000094800F021F80DE040F22441064800F07E
:1016500043F838B106A000F005F940F224410248F1
:1016600000F012F810BD0000004800405043000098
:10167000526563656976652061206672616D6520DB
:10168000646174612E20000010B50022002340F632
:101690006A14A14200D100BF0A1201249440A3B2EF
:1016A000DC43048010BD21B1828942F40052828162
:1016B00004E082894DF6FF731A408281704702462A
:1016C0000020B1F5007F00D100BF13880B400BB1A3
:1016D000012000E00020704770B50246002400237E
:1016E0000025002040F66A16B14200D100BFC1F3C8
:1016F000421501F01F03012606FA03F3012D02D162
:101700009689334006E0022D02D1168A334001E06B
:10171000968A33400C12012606FA04F416883440E7
:1017200013B10CB1012000E0002070BDF0B50346FC
:10173000002400260025002040F66A17B94200D197
:1017400000BF1846C1F3421401F01F06012707FA33
:1017500006F5012C01D10C3004E0022C01D110302F
:1017600000E014301AB107682F43076002E00768F1
:10177000AF430760F0BD00002DE9FF4705460E4668
:101780000024A14600BFA046B08900B100BF2C8A4A
:1017900024F44054F08804432C82AC8941F20C605C
:1017A0008443B08831890843718908430443AC817C
:1017B000AC8A24F44074B0890443AC826846FFF7D5
:1017C000ADFB2048854202D01F48854202D1DDF89A
:1017D0000C9001E0DDF80890A88900F4004040B1C9
:1017E00009EBC90000EB091031684900B0FBF1F7C3
:1017F00007E009EBC90000EB091031688900B0FB74
:10180000F1F76420B7FBF0F004012009642101FB2B
:101810001078A88900F4004040B1322000EBC800E5
:10182000B0FBF1F000F00700044308E0322000EBC9
:1018300008106421B0FBF1F000F00F0004432C818C
:10184000BDE8FF8700100140001401400146888870
:10185000C0F308007047C1F308028280704700BFE0
:10186000FEE700000FB4054B10B503A9044A029827
:1018700000F0ECF810BC5DF814FB000059230008E0
:101880003800002037B514460846064B6A46214604
:1018900000F0DCF804466946002000F05AFC2046BF
:1018A0003EBD00005321000802E008C8121F08C115
:1018B000002AFAD170477047002001E001C1121FD1
:1018C000002AFBD1704700002DE9FF5F82B00021A4
:1018D000DDE90430020DDDF840B0034318D044F6D2
:1018E0001050A2F2FF3242431514119801281FD064
:1018F000A5EB0B00401C5FEA000A4FF000064E4FBC
:10190000DFF83891B046504615D5CAF1000413E00F
:10191000119801244AA3012801D16FEA0B01029812
:10192000119AC0E90031C0E9024206B0BDE8F09F5B
:10193000CBF10000DFE704460021404A491842EBA2
:101940000450CDE9001012E0E00707D032463B46D4
:1019500040464946FEF724FD8046894632463B46CE
:1019600010461946FEF71CFD06460F466410002C73
:10197000EAD1DDE90401DDE90023BAF1000F06DA5E
:10198000FEF70EFD42464B46FEF70AFD05E0FEF768
:1019900079FD42464B46FEF775FD04460E46002291
:1019A000284BFEF7F7FD03D84FF0FF30014607E064
:1019B0000022254B20463146FEF74BFCFEF7D1FDB9
:1019C000102409E0002C0ADB0A220023FEF710FC99
:1019D000039B30321A55641E50EA0102F2D1641C96
:1019E000039AC4F111031444119A012A03D001226D
:1019F00008430DD10AE0084304D000204FF0110B3A
:101A0000119072E7A3EB0B056D1E0DE05B4504DD45
:101A10004FF0000205F1010504E003DA4FF0000287
:101A2000A5F10105002AECD002981199C0E9023114
:101A3000C0E9004579E70000000014400000F03FD5
:101A4000300000000000F0430000E03F2DE9FF4FB0
:101A500095B09A46884606460025EEE1252877D1BE
:101A600000242746F94A0121039400E0044316F8B4
:101A7000013F203B01FA03F01042F7D130782A28C9
:101A800011D06FF02F033078A0F13002092A16D858
:101A9000039A44F0020402EB820203EB4202104478
:101AA000761C0390EFE758F8042B0392002A03DA20
:101AB000504244F40054039044F00204761C307801
:101AC0002E2816D116F8010F44F004042A280DD050
:101AD0006FF02F023078A0F13003092B09D807EB03
:101AE000870302EB4303C718761CF3E758F8047B1F
:101AF000761C30786C280FD006DC4C2817D068286C
:101B00000DD06A2814D104E0742810D07A280FD19F
:101B10000DE044F400140AE044F4801401E044F4BD
:101B200040147278824202D104F58014761C761C2F
:101B3000307866280BD013DC582877D009DC0028D1
:101B400075D04528F6D04628F4D047281AD193E11D
:101B500018E0632835D0642879D0652812D18BE14C
:101B6000702873D008DC6728F1D069286FD06E2800
:101B70000DD06F2806D1ACE073282CD0752874D016
:101B8000782853D05246179990476D1C54E1C4F3FE
:101B90000250022809D003280DD0D8F800100428DC
:101BA0000DD00D6008F1040846E1D8F80010EA17DE
:101BB000C1E90052F6E7D8F800100D80F2E70D7089
:101BC000F0E718F8041B8DF8001000208DF80100D4
:101BD000EB46012003E058F804BB4FF0FF306107EB
:101BE0004FF0000102D40DE009F101018946B9422C
:101BF0000FDA8145F8DB1BF809100029F4D108E061
:101C000009F1010189468142FADB1BF8091000291C
:101C1000F6D103985346A0EB090721463846179A98
:101C200000F080FA284400EB090507E044E008E1F1
:101C30000DE01BF8010B524617999047B9F10109C5
:101C4000F7D2534621463846179AF2E039E00A2186
:101C5000C4F302524FF0000B0091022A06D058F84C
:101C6000040BC117032A09D00AE023E008F107009A
:101C700020F00702F2E80201904605E000B2C11729
:101C8000042A01D140B2C117002906DA0A46002110
:101C9000404261EB02012D2202E0220504D52B22F5
:101CA0008DF80420012203E0E20701D02022F7E7AB
:101CB000914657E00A2100E010214FF0000B0091FF
:101CC0000BE010214FF0000B44F0040408270091B2
:101CD00003E008204FF0000B0090C4F30252022AE8
:101CE00005D058F8040B0021032A08D008E008F1B9
:101CF000070020F00702F2E80201904603E080B2FC
:101D0000042A00D1C0B24FF0000922072AD5327848
:101D1000702A07D0DDF800C08CF0100C5CEA0B0CC8
:101D200005D00EE040228DF80420012208E050EAA0
:101D3000010306D030238DF804308DF805200222EF
:101D40009146009B83F0080353EA0B030AD150EA43
:101D5000010201D1620705D530228DF804204FF031
:101D600001097F1E3278582A04D039A20C920CAA9D
:101D700002920BE03BA2F9E75B46009AFEF738FAC5
:101D80000C9B9B5C029A521E0292137050EA010255
:101D9000F2D1029804A9081A00F1200B600702D5BD
:101DA00024F4803400E001275F4502DDA7EB0B003F
:101DB00000E0002000EB0B01009003984944401A1A
:101DC0000390E00306D453462146179A039800F087
:101DD000A9F90544002706E001A85246C05D1799FD
:101DE00090476D1C7F1C4F45F6DBE0030CD5534636
:101DF0002146179A039800F095F9054404E0302035
:101E00005246179990476D1C0099481E0090002972
:101E1000F5DC08E00298029952460078491C0291CC
:101E2000179990476D1CBBF10001ABF1010BF1DC80
:101E30005BE100F065F90544761C307800287FF4FA
:101E40000DAE19B02846BDE8F08F0000092801004A
:101E50003031323334353637383961626364656620
:101E600000000000303132333435363738394142E2
:101E70004344454600000000600700D4062708F1EF
:101E8000070020F00700F0E80223804603F0004C32
:101E90005FEA0C0001D097A009E0200501D596A0CB
:101EA00005E0E00701D095A001E0AFF24C001390EF
:101EB000307823F0004365280CD006DC452809D093
:101EC00046281DD047287FD13BE0662818D06728D8
:101ED0007AD136E00021112F01DB112000E0781CBF
:101EE000CDE9000104A90CA8FFF7EEFCDDE90D0126
:101EF0000C9A4FF0000B07F10109109200914EE08F
:101F00004FF000400097CDE9011004A90CA8FFF79D
:101F1000DBFCDDE90D020C9B0F994FF0000B9146A5
:101F20001093009211B9791C00EB0109B7EB09007D
:101F300003D4C0F1FF3B07F10109A9EB07000190B1
:101F400042E0012F00DA01270021112F01DD1120CD
:101F500000E03846CDE9000104A90CA8FFF7B4FC65
:101F6000DDE90D010C9A00914FF0000BB94610927B
:101F700021070FD4009A4A4503DA914601E0A9F1FE
:101F80000109B9F1010F05DD109AA9F10101515CB8
:101F90003029F4D0B84202DA10F1040F03DA01213B
:101FA000CDE9011010E0002803DC8344A9EB000117
:101FB00002E0411C494500DD8946A0EB0B00401CB6
:101FC00001904FF000400290200705D40198484549
:101FD00002DB4FF0FF30019000208DF84B0002989B
:101FE0000DF14B07B0F1004F25D002200C902B20B3
:101FF0000D90029800280CDA404202902D200D909E
:1020000007E00A210298FEF7DDF83031029007F868
:10201000011D0C99481E0C900029F2DC0298002842
:10202000EFD1791E0D980870307800F0200040F054
:10203000450007F8020D11A8C01BC01D029013989F
:10204000007800B1012000EB0901019801EBE0717B
:10205000029801440398401A401E0390E00306D4FE
:1020600053462146179A039800F05CF805441398EC
:10207000007818B15246179990476D1CE00323D59C
:1020800053462146179A039800F04CF805441BE08C
:10209000BBF1000F07DB0098584504DD1098179935
:1020A00010F80B0001E01799302052469047019834
:1020B0000BF1010B401E05F10105019004D12E200A
:1020C0005246179990476D1CB9F10001A9F1010919
:1020D000DEDC05E017F8010B5246179990476D1C9E
:1020E0000299481E02900029F4DC53462146179AB3
:1020F00003989EE62D0000002B0000002000000049
:102100002DE9F041044600251E461746880404D4F4
:1021100005E039462020B0476D1C641EF9D52846DD
:10212000BDE8F0812DE9F041044600251E469046A9
:10213000C80301D5302700E02027880404D505E036
:1021400041463846B0476D1C641EF9D52846BDE8A7
:10215000F0810A68531C0B601070704700B503468D
:1021600003E04FF47A7000F005F8181EA3F10103A4
:10217000F7D100BDA82141434FF0E0225161002179
:1021800091610521116100BF4FF0E021096901F45F
:1021900080310029F8D004214FF0E022116170470E
:1021A0001CB501210420FEF789FE4FF480600090E9
:1021B00002208DF8050001208DF8040000208DF824
:1021C000060069460448FEF74DFB4FF48061024863
:1021D000FEF7BCFB1CBD00000008024010B500214A
:1021E0008E2000F053F80721802000F04FF80821DE
:1021F000822000F04BF80321842000F047F80121F1
:10220000862000F043F80121882000F03FF80221E9
:102210008A2000F03BF803218C2000F037F8802161
:102220008E2000F033F810BD1CB501210420FEF70C
:1022300045FE4FF40060009002208DF8050001205B
:102240008DF8040000208DF8060069460E48FEF760
:1022500009FB4FF400610C48FEF778FB4FF4805007
:10226000009002208DF8050001208DF80400002068
:102270008DF8060069460448FEF7F4FA4FF48051E1
:102280000148FEF763FB1CBD000802402DE9F04148
:1022900004460D4626462F464FF400611348FEF7CC
:1022A00055FB4FF480511148FEF750FB012000F020
:1022B0004BF84FF400610D48FEF74BFB022000F095
:1022C00043F8304600F014F8384600F011F84FF4A7
:1022D00000610648FEF73AFB4FF480510348FEF7D1
:1022E00035FB022000F030F8BDE8F0810008024024
:1022F00070B50446FFF754FF00254FF48051114894
:10230000FEF724FB00BF1AE04FF480510D48FEF7A2
:102310001DFB04F0010028B14FF480610948FEF76D
:1023200018FB04E04FF480610648FEF70FFB4FF402
:1023300080510448FEF70DFB6410681CC5B2082DDF
:10234000E2DB70BD00080240002100E0491CA82229
:1023500042438A42FAD8704770B504460D46E0B24F
:10236000FEF770FF204670BD70B51F480168481E1B
:10237000B0F1807F00D31BE0481E4FF0E022506197
:1023800050170F22002807DA13071D0E174B00F015
:102390000F04241F1D5503E013071C0E144B1C547F
:1023A00000BF00204FF0E02290610720106100BFC5
:1023B0004FF4A060FEF71CFDFFF77EF8FEF7CCFAA5
:1023C000FFF732FFFFF70AFF00F0B2F8FEF774FEE6
:1023D00008A0FEF725FFFEF7FEFBFEF707FC09A0AD
:1023E000FFF740FA002070BD1000002018ED00E05B
:1023F00000E400E0496E69742046696E69736831D3
:102400002100000052756E210D0A000010B504462F
:1024100000BF02210A48FEF701FE0028F9D021463C
:102420000748FEF707FE00BF01210548FEF7F6FD4D
:102430000028F9D00248FEF7FAFDC0B210BD000036
:102440000038004070B5002400251FE000BF4FF4A5
:1024500000511048FEF771FA0028F8D02820FFF745
:1024600089FE6006040E4FF400510A48FEF765FA33
:10247000012801D1601CC4B200BF4FF400510548CF
:10248000FEF75BFA0128F8D0681CC5B2082DDDDB29
:10249000204670BD000802402DE9F04781468A467B
:1024A00000F046F84FF400511F48FEF746FA0028A6
:1024B00037D100BF4FF400511B48FEF73EFA002809
:1024C000F8D000BF4FF400511748FEF736FA012844
:1024D000F8D0FFF7B7FF0446FFF7B4FF0546FFF754
:1024E000B1FF0646FFF7AEFF0746FFF7ABFF80469A
:1024F00000BF4FF400510C48FEF71FFA0028F8D037
:1025000060193044384440450BD108480670477084
:102510008470C570007889F80000044880788AF8D3
:102520000000BDE8F0870000000802402400002001
:1025300010B5FEF7FFF84FF400510E48FEF709FA08
:102540000120FFF717FE4FF400510A48FEF7FEF98D
:102550001420FFF703FE4FF400510648FEF7F9F987
:102560001E20FFF707FEFEF7CFF80A20FFF702FE56
:1025700010BD00000008024098250008000000205F
:102580003C000000A8180008D42500083C000020EA
:1025900004040000B8180008000000000102030451
:1025A0000102030406070809007A030A000000007C
:1025B00000000000010203040607080900000000F3
:1025C00000000000000000000000000100002041A9
:0425D0000000000007
:04000005080001A14D
:00000001FF
