:020000040800F2
:1000000058410020A101000841120008A30C00087B
:100010003D12000829070008571D000800000000D5
:100020000000000000000000000000002115000892
:100030008D0A000800000000D11200083D180008D9
:10004000BB010008BB010008BB010008BB010008A0
:10005000BB010008BB010008BB010008BB01000890
:10006000BB010008BB010008BB010008BB01000880
:10007000BB010008BB010008BB010008BB01000870
:10008000BB010008BB010008BB010008BB01000860
:10009000BB010008BB010008BB0100088F0A000873
:1000A000BB010008BB010008BB010008BB01000840
:1000B000A9180008BB010008C1180008BB0100080E
:1000C000BB010008BB010008BB010008BB01000820
:1000D000BB010008D51A0008E91A0008511B0008E6
:1000E000BB010008BB010008BB010008BB01000800
:1000F000BB010008BB010008BB010008BB010008F0
:10010000BB010008BB010008E9180008BB0100089A
:10011000BB010008BB010008BB010008BB010008CF
:10012000BB010008BB010008BB010008BB010008BF
:10013000BB010008BB010008BB010008BB010008AF
:10014000BB010008BB010008BB010008BB0100089F
:10015000BB010008BB010008BB010008BB0100088F
:10016000BB010008BB010008BB010008BB0100087F
:10017000BB010008BB010008BB010008BB0100086F
:10018000BB010008BB010008DFF810D000F02CFA1A
:100190000048004799270008AFF30080584100202D
:1001A0000648804706480047FEE7FEE7FEE7FEE711
:1001B000FEE7FEE7FEE7FEE7FEE7FEE74118000880
:1001C0008901000840EA01039B0703D009E008C940
:1001D000121F08C0042AFAD203E011F8013B00F80C
:1001E000013B521EF9D2704730B50B460146002044
:1001F0002022012409E021FA02F59D4205D303FAE9
:1002000002F5491B04FA02F52844151EA2F1010269
:10021000F1DC30BD2DE9F05F0546002092469B469B
:1002200088460646814640241BE02846414647460C
:10023000224600F0FAF953465A46C01A914110D3AB
:1002400011461846224600F0E1F92D1A67EB010825
:100250004F4622460120002100F0D8F917EB000993
:100260004E41201EA4F10104DFDC484631462A46F7
:100270004346BDE8F09F2DE9FE4F804681EA03002A
:10028000C00F0C46009021F0004123F00045B8EB70
:100290000200A94105D24046214690461C460B4625
:1002A000024623F00040104347D0270DC7F30A0051
:1002B000C3F30A510290401A019040286BDAC3F34D
:1002C000130040F4801B0098924620B10023D2EB2B
:1002D000030A63EB0B0B01985946C0F140025046EC
:1002E00000F094F906460D4650465946019A00F032
:1002F000ACF910EB08006141002487EA115284EA4E
:10030000E7731A4340D0009A62B3019A012A4FEA78
:10031000075215DC001B61EB02014FF0004202EABC
:100320000752CDE90042001C41F5801132462B46B0
:1003300000F0ACF903B0BDE8F08F40462146F9E784
:10034000001B61EB0201001C41F5801300185B41AA
:100350002018A2F5001747EB030140EAD570B61943
:100360006D4111E06D084FEA360645EAC0754FEA67
:100370000752001B61EB0201001C41F58011490886
:100380004FEA30000019514132462B4603B0BDE818
:10039000F04F00F06CB90098012240000023D0EB30
:1003A000020263EBE073009821464FEAE074B8EB79
:1003B000000061EB0401E9E783F000435BE781F0B3
:1003C000004158E72DE9FE4F81EA030404F00044A0
:1003D00021F0004100944FF0000B23F0004350EA5D
:1003E00001045ED052EA03045BD0C3F30A54C1F3A4
:1003F0000A552C44A4F2F3340194A0FB0254C1F337
:10040000130141F48011C3F3130343F4801301FB80
:10041000024400FB034E840A970A44EA815447EAE7
:100420008357A4FB076802958D0A05FB07854FEAF1
:10043000932C04FB0C542705029D4FEA065847EA0B
:100440001637B5EB08056EEB070C870E920E47EAE0
:10045000811742EA8312A7FB0201B6EB0B0164EBA2
:1004600000042B0D43EA0C335E1844EB1C50DA46B3
:100470005146E7FB0201C5F313044FEA0B3343EA8D
:1004800014534FEA0432019C43EA0603A4F10C041E
:100490000294009CCDE900B400F0F8F803B0BDE888
:1004A000F08F00200146F9E72DE9F04D81EA0304C1
:1004B00004F0004B21F0004514464FF0000A23F0F1
:1004C000004150EA050220D054EA01021DD0C5F3D4
:1004D0000A570246C5F31303C1F31300C1F30A56CA
:1004E00040F4801543F48013A7EB0608101BD64692
:1004F00008F2FD3873EB050002D308F1010801E0B2
:1005000092185B41B8F1000F03DA00200146BDE804
:10051000F08D00204FF48011064684460EE0171B34
:1005200073EB050705D3121B63EB050306434CEA87
:10053000010C49084FEA300092185B4150EA01076C
:10054000EDD152EA030012D082EA040083EA0501E9
:10055000084305D0101BAB4106D20122002306E060
:1005600000224FF0004302E06FF0010253101AEB3B
:1005700006004CEB085110EB0A0041EB0B01BDE803
:10058000F04D00F074B8C1F30A52C1F3130140F208
:10059000FF3341F480119A4202DA0020014670478D
:1005A00040F233439A42A2F2334202DC524200F05C
:1005B0003CB800F02BB8000030B5041E71F1000407
:1005C00004DB4FF00044404264EB0101141E73F160
:1005D000000405DB1C464FF00043524263EB04036A
:1005E000994208BF904230BD064C074D06E0E068D6
:1005F00040F0010394E8070098471034AC42F6D36A
:10060000FFF7C6FDC42A0008E42A0008202A04DBFC
:10061000203A00FA02F1002070479140C2F1200315
:1006200020FA03F3194390407047202A04DB203A54
:1006300021FA02F00021704721FA02F3D040C2F102
:1006400020029140084319467047202A06DBCB1749
:10065000203A41FA02F043EAE07306E041FA02F37D
:10066000D040C2F12002914008431946704710B5AE
:10067000141E73F1000408DA401C41F100019218C5
:100680005B411A4301D120F0010010BD2DE9F04D6E
:1006900092469B4611B1B1FA81F202E0B0FA80F2C3
:1006A00020329046FFF7B2FF04460F4640EA0A00A8
:1006B00041EA0B0153465A46084313D0114653EA08
:1006C000010019D0C8F140025046FFF7AEFF0546C1
:1006D0000E46504659464246FFF798FF084305D05C
:1006E000012004E020463946BDE8F08D0020054396
:1006F00046EAE0762C4337430A986305E40AA0EB08
:1007000008000022FD0A44EA47540A3002D50020BE
:100710000146E9E7010510196941DDE908450019BD
:100720006941BDE8F04DA2E700BFFEE700220121CC
:1007300004E0074B5B5C13449AB2491C0729F8DBC1
:10074000514288B20112024BD971187270470000F1
:100750004800002000B587B00121084600F014FED3
:1007600007220921364800F06BFA07220A21344893
:1007700000F066FA02208DF8180000208DF81A00AB
:100780004FF40070059001208DF81B0002208DF8B9
:10079000190005A92A4800F00BFA02208DF818006C
:1007A0004002059005A9264800F002FA0121102018
:1007B00000F00AFE4FF4165001900020ADF8100032
:1007C0000C20ADF80E000020ADF80C00ADF80A00CA
:1007D000ADF8080001A91B4801F04AFA012240F2D5
:1007E0002551184801F01EFA25208DF8000001203F
:1007F0008DF803008DF801008DF80200684600F0C6
:1008000021FD01210F4801F0CAF97E200E49087030
:10081000FF204870062088700920C87000200871E9
:10082000487101208871FFF781FFEF200649487267
:1008300000F07CF80A2000F0B3F807B000BD00001B
:1008400000000240001001404800002010B57E204A
:1008500009490870FF204870062088700E20C87073
:100860000020087148718871FFF760FFEF2002498E
:10087000487200F05BF810BD4800002010B57E20E3
:1008800009490870FF204870062088700D20C87044
:100890000020087148718871FFF748FFEF20024976
:1008A000487200F043F810BD4800002010B57E20CB
:1008B00009490870FF204870062088700120C87020
:1008C0000020087148718871FFF730FFEF2002495E
:1008D000487200F02BF810BD4800002010B57E20B3
:1008E00009490870FF204870062088700220C870EF
:1008F0000020087148718871FFF718FFEF20024946
:10090000487200F013F810BD4800002010B50446EE
:100910002146054801F01BFA00BF8021024801F082
:100920004AF90028F9D010BD0010014010B500248C
:1009300009E00649085DFFF7E9FF002000E0401CE0
:100940006428FCDB641C0A2CF3DB10BD480000208B
:1009500010B511480078002803DC00200E4908700B
:1009600004E00D480078401E0B4908707E200B49BA
:100970000870FF20487006208870C8700020087139
:100980004871054800788871FFF7D0FEEF200349D1
:100990004872FFF7CBFF10BD2C000020480000205C
:1009A00010B504461E2C00DB1E24002C00DC0024A5
:1009B0007E200A490870FF20487006208870C870A1
:1009C00000200871487108468471FFF7AFFEEF20E0
:1009D00002494872FFF7AAFF10BD0000480000203E
:1009E00010B5114800781E2803DB1E200E49087040
:1009F00004E00D480078401C0B4908707E200B492C
:100A00000870FF20487006208870C87000200871A8
:100A10004871054800788871FFF788FEEF20034988
:100A20004872FFF783FF10BD2C0000204800002013
:100A30001CB50121042000F0C7FC00208DF8040043
:100A40004FF40050009002208DF8050069460248DE
:100A500000F0AEF81CBD0000000802401CB50121EA
:100A6000042000F0B1FC01208DF8040000208DF876
:100A700006004FF40050009002208DF805006946F2
:100A8000014800F095F81CBD00080240704710B501
:100A90004FF4807000F036F828B100F01BFC4FF4E2
:100AA000807000F029F810BD0EB50121880300F018
:100AB0008BFC0821012000F035FD4FF4807001907F
:100AC00000208DF808000C208DF8090001208DF819
:100AD0000A0001A800F022F817208DF8000002207B
:100AE0008DF801008DF8020001208DF803006846A2
:100AF00000F0A8FB0EBD000001490860704700002F
:100B0000143C014001460020034A12680A400AB121
:100B1000012000E000207047143C014000212349DF
:100B20008279002A3AD00A46126803689A430B4633
:100B30001A600A1D126803689A430B1D1A60027935
:100B400011440A6803681A430A60184A0832126896
:100B500003689A43154B08331A601A1D126803681C
:100B60009A43124B0C331A604279102A0ED11A1F85
:100B7000126803681A430D4B08331A601A1D126875
:100B800003681A43094B0C331A600DE00749427998
:100B900011440A6803681A430A6005E002791144A7
:100BA0000A6803689A430A6070470000003C0140ED
:100BB000F0B50A4600210023002400BF3DE00125D6
:100BC00005FA01F3156805EA03049C4234D105686F
:100BD0004F000326BE40B543056015794E00B54071
:100BE0000668354305601579012D02D01579022D6F
:100BF00016D185684F000326BE40B5438560557900
:100C00004E00B540866835438560456801268E40B4
:100C1000B5434560456896798E40B6B23543456028
:100C2000C5684F000326BE40B543C560D5794E0068
:100C3000B540C6683543C560491C1029BFD3F0BD17
:100C4000F0B5002300244D07ED0E02FA05F3CE1097
:100C500000F1200555F826504E07F70E0F26BE402E
:100C6000B543CF1000F1200646F82750CE1000F112
:100C7000200555F8265045EA0304CE1000F1200562
:100C800045F82640F0BD0246002013690B400BB129
:100C9000012000E0002070470A04826170478161F2
:100CA000704700BFFEE700001CB50121022000F0E4
:100CB0006BFB8020009001208DF8040000208DF84F
:100CC000060002208DF8050069461748FFF770FFFF
:100CD0002020009069461448FFF76AFF102000901A
:100CE00069461148FFF764FF0820009069460E48E6
:100CF000FFF75EFF4020009000208DF804000120E7
:100D00008DF8070069460848FFF752FF4FF48070DE
:100D1000009000208DF804008DF807006946024815
:100D2000FFF746FF1CBD00000004024070B5CAB0CA
:100D30004FF48C72294904A8FFF744FA28A30FCB7B
:100D40008DE80F000126002441E000F095F808B975
:100D500000263EE01DF80410C12000F0F1F900214A
:100D6000C32000F0EDF90421082000F0E9F901208A
:100D700001F0E8FC0021082000F0E2F9012001F078
:100D8000E1FC002512E004EB840004A901EB8000E3
:100D9000405D00B90CE004EB840004AA02EB800083
:100DA000415D052000F0CCF9681CC5B2142DEADBCA
:100DB00000BF2946B92000F0C3F9FF21B22000F09E
:100DC000BFF90421372000F0BBF9601CC4B20E2C1F
:100DD000BBDB00BF30464AB070BD0000AC29000844
:100DE0000001020304050618191A1B1C1D2400002B
:100DF00010B54321352000F0A3F909211C2000F093
:100E00009FF92021BD2000F09BF90121082000F06E
:100E100097F9052001F096FC0021082000F090F9D8
:100E2000052001F08FFC00F027F808B9002010BD64
:100E3000FF21B22000F084F90621372000F080F96C
:100E4000052001F07FFC0621372000F079F905200C
:100E500001F078FC0B211C2000F072F910212920F0
:100E600000F06EF90021BD2000F06AF90120DEE7F4
:100E700010B500F01DF810BD70B5002600250CE07F
:100E8000B22000F0B3F80446212C01D1012606E07F
:100E9000142001F057FC681CC5B2052DF0DB00BF23
:100EA000304670BD10B5C52000F0A0F810BD0000A0
:100EB00010B508201949087000F032F80021BD2053
:100EC00000F03EF94821172000F03AF9052001F022
:100ED00039FC80213C2000F033F907213E2000F04E
:100EE0002FF9FF21382000F02BF907213A2000F0DC
:100EF00027F90021402000F023F90821422000F0CA
:100F00001FF90021442000F01BF90821462000F0C1
:100F100017F9052001F016FC10BD00002A00002082
:100F200010B5062000F062F83521172000F008F90E
:100F3000052001F007FC062000F058F80321892065
:100F400000F0FEF8052001F0FDFB4321CF2000F06A
:100F5000F7F8052001F0F6FB0221CB2000F0F0F8B5
:100F60000B21112000F0ECF81F480078402810D128
:100F700000211E2000F0E4F80F21192000F0E0F815
:100F800018211B2000F0DCF82C211D2000F0D8F8DF
:100F90000FE000211E2000F0D3F83F21192000F0BF
:100FA000CFF848211B2000F0CBF81F211D2000F0B6
:100FB000C7F8052001F0C6FB0421CD2000F0C0F8E1
:100FC0004C21172000F0BCF8052001F0BBFB0021EC
:100FD000B92000F0B5F84F21CF2000F0B1F8FF2183
:100FE0006F2000F0ADF810BD2A0000202DE9F0417F
:100FF000054600240026A046052700203A4908603F
:10100000012001F0ABFB00BF1DE007F0800020B124
:1010100001203549091D086003E000203249091DFF
:101020000860012001F09AFB00202F490C31086074
:101030007806070E012001F091FB01202B49C1F831
:101040009C02601CC4B2082CDFDB00241DE005F00C
:10105000800020B101202449091D086003E0002020
:101060002149091D0860012001F078FB00201E497C
:101070000C3108606806050E012001F06FFB0120AD
:101080001A49C1F89C02601CC4B2082CDFDB0120A5
:1010900001F064FB00241BE07006060E124878384D
:1010A000006800F0FF08012001F058FB00200F4904
:1010B000C1F89C02B8F1010F01D146F001060120F0
:1010C00001F04CFB012008490C310860601CC4B2DF
:1010D000082CE1DB012001F041FB012002490860FE
:1010E0003046BDE8F08100009082404200804042DE
:1010F00010B5012010490860052001F023FB0020F5
:101100000E49C1F88C02052001F01CFB01200A49A0
:101110000860052001F016FB00200849C1F8900284
:10112000052001F00FFB01200349091D086005207F
:1011300001F008FB10BD00008C824042008040425C
:101140002DE9F04105460E460024042700203949C8
:101150000860012001F002FB00BF1DE007F08000E5
:1011600020B101203349091D086003E00020314906
:10117000091D0860012001F0F1FA00202D490C3111
:1011800008607806070E012001F0E8FA01202A49DC
:10119000C1F89C02601CC4B2082CDFDB00241DE0F7
:1011A00005F0800020B101202249091D086003E0FC
:1011B00000202049091D0860012001F0CFFA00201D
:1011C0001C490C3108606806050E012001F0C6FAC2
:1011D00001201949C1F89C02601CC4B2082CDFDB55
:1011E00000241DE006F0800020B101201149091DF6
:1011F000086003E000200F49091D0860012001F08C
:10120000ADFA00200B490C3108607006060E012073
:1012100001F0A4FA01200849C1F89C02601CC4B284
:10122000082CDFDB012001F099FA01200149086058
:10123000BDE8F081908240420080404200BFFEE75E
:101240007047000070B5002100230F22C4781CB342
:10125000174C246804F4E064C4F5E064C4F3072187
:10126000C1F10404E3B20A4144789C40E1B28478BD
:10127000144021430C07210E0E4C0578615504786B
:1012800004F01F050124AC4005786D11AD0005F197
:10129000E025C5F8004109E0047804F01F050124A9
:1012A000AC40054D0678761145F8264070BD00002B
:1012B0000CED00E000E400E080E100E002490143C1
:1012C000024A1160704700000000FA050CED00E0D2
:1012D0007047000010B500242B20FFF787FE284937
:1012E000087000212920FFF72BFF00210220FFF7C3
:1012F00027FF2348007800F01000C8B1B220FFF7A4
:1013000075FE212814D1BF20FFF770FE35280FD1BC
:10131000BA20FFF76BFE0446002C05DD042C03DC2D
:1013200010201849087006E011201649087002E0E4
:1013300011201449087000212B20FFF701FF002124
:101340001C20FFF7FDFE00212920FFF7F9FE0021F8
:101350000220FFF7F5FE00212B20FFF7F1FE002110
:10136000BA20FFF7EDFE0021BC20FFF7E9FE0121C6
:101370000820FFF7E5FE00210820FFF7E1FE10BD81
:101380002B0000203000002029B1064A12680243D9
:10139000044B1A6004E0034A12688243014B1A604E
:1013A000704700003038024029B1064A12680243F3
:1013B000044B1A6004E0034A12688243014B1A602E
:1013C000704700004038024029B1064A12680243C3
:1013D000044B1A6004E0034A12688243014B1A600E
:1013E0007047000044380240F0B50021002200247C
:1013F000022500260223324F3F6807F00C0121B17D
:10140000042905D0082937D105E02E4F076036E0C2
:101410002D4F076033E02A4F3F1F3F68C7F38056C8
:10142000274F3F1F3F6807F03F036EB1264FB7FBC2
:10143000F3F7DFF88CC0ACF1040CDCF800C0CCF39F
:10144000881C07FB0CF40CE01E4FB7FBF3F7DFF82A
:1014500070C0ACF1040CDCF800C0CCF3881C07FBB6
:101460000CF4174F3F1F3F68C7F301477F1C7D00F7
:10147000B4FBF5F7076002E0124F076000BF00BF42
:101480000F4F3F6807F0F0010909104F7A5C0768B9
:10149000D74047600A4F3F6807F4E051890A0B4F75
:1014A0007A5C4768D7408760054F3F6807F4604122
:1014B000490B064F7A5C4768D740C760F0BD000013
:1014C000083802400024F40040787D01000000202C
:1014D00070B50024002500BF1DE0FFF7C9FC052002
:1014E00001F030F9FFF722FC28B9FFF701FE0520D3
:1014F00001F028F90DE0052001F024F9FFF778FC50
:1015000028B9FFF7F5FD052001F01CF901E00125E0
:1015100003E0601CC4B2052CDFDB00BF284670BDB1
:101520007047000030B500228B071C0F0F2303FA11
:1015300004F20B4B8C1053F824309343084C8D105D
:1015400044F8253023468C1053F824308C07240FA0
:1015500000FA04F42343024C8D1044F8253030BDCA
:101560000838014010B5FF2000F0D6F8FF2000F049
:10157000D3F8FF2000F0D0F810BD000000B587B010
:1015800001210820FFF700FF072205215648FFF739
:1015900057FB072206215448FFF752FB02208DF823
:1015A000180000208DF81A002020059001208DF8E9
:1015B0001B0002208DF8190005A94B48FFF7F8FA27
:1015C00002208DF818004020059005A94648FFF735
:1015D000EFFA01214804FFF7E7FE4FF4E1300190F4
:1015E0000020ADF810000C20ADF80E000020ADF882
:1015F0000C00ADF80A00ADF8080001A93B4800F066
:1016000037FB012240F22551384800F00BFB262021
:101610008DF8000001208DF803008DF801008DF891
:1016200002006846FFF70EFE0121304800F0B7FACD
:1016300001210820FFF7A8FE072208212A48FFF70A
:10164000FFFA072209212848FFF7FAFA02208DF84D
:10165000180000208DF81A004FF4807005900120CA
:101660008DF81B0002208DF8190005A91E48FFF710
:101670009FFA02208DF818000002059005A91A486B
:10168000FFF796FA01218804FFF78EFE4FF41650FB
:1016900001900020ADF810000C20ADF80E000020E5
:1016A000ADF80C00ADF80A00ADF8080001A910482B
:1016B00000F0DEFA012240F225510D4800F0B2FAA6
:1016C00027208DF8000001208DF803008DF801001F
:1016D0008DF802006846FFF7B5FD0121044800F0CF
:1016E0005EFA07B000BD0000000C0240004400405C
:1016F000004800400FB400B59BB01DA8019002A89F
:10170000019A1C9900F0B2FB0020019002A800F0A1
:1017100013F81BB05DF814FB10B5044621460548CC
:1017200000F015FB00BF8021024800F044FA0028B9
:10173000F9D010BD0044004070B50446002503E018
:10174000605DFFF7E9FF6D1C605D0028F8D170BD9A
:101750000CB50020019000903448006840F48030BF
:101760003249086000BF3148006800F40030009042
:101770000198401C0190009818B90198B0F5A04F4D
:10178000F1D12A48006800F4003010B10120009027
:1017900001E0002000900098012846D12348403005
:1017A000006840F0805021494031086020480068BE
:1017B00040F440401E4908601C48083000681B493E
:1017C000083108600846006840F400400860084698
:1017D000006840F4A05008601648091F0860081F00
:1017E000006840F08070091F086000BF0F48006863
:1017F00000F000700028F9D040F205700E49086032
:101800000A480830006820F00300084908310860E1
:101810000846006840F00200086000BF0348083036
:10182000006800F00C000828F8D10CBD0038024018
:101830000070004019544007003C0240704700000F
:1018400010B51548006840F470001349086013484B
:10185000006840F001001149086000200F4908317C
:1018600008600E4800680E4908400C4908600D48A1
:10187000091D0860081F006820F48020091F086007
:10188000002006490C310860FFF762FF4FF000604E
:1018900001498039086010BD88ED00E00038024041
:1018A000FFFFF6FE1030002410B50121880700F07C
:1018B00044F818B10121880700F03CF810BD000081
:1018C00010B50121064800F038F840B10121044864
:1018D00000F030F803480088401C0249088010BD21
:1018E000000800402800002010B50121094800F040
:1018F00024F870B10121074800F01CF80649074898
:1019000000F0E4FF044802780448017804A0FFF7DF
:10191000F1FE10BD000C0040340000203300002018
:1019200054656D3A25640D0A48756D3A25640D0AB3
:1019300000000000CA430282704730B50246002012
:1019400000230024158A05EA0103958905EA0104AC
:1019500013B10CB1012000E0002030BD10B52E48BD
:101960000088012806D12D492DA0FFF7C3FEFFF7FF
:10197000F9FD4FE02848008802280FD12BA0FFF77F
:10198000B9FEFFF7EFFD2DA0FFF7B4FEFFF7EAFD6C
:101990002FA0FFF7AFFEFFF7E5FD3BE01E480088F4
:1019A000032808D12DA0FFF7A5FEFFF7DBFD0120DE
:1019B0002D4908702EE018480088052819D12BA061
:1019C000FFF798FEFFF7CEFD2BA0FFF793FEFFF782
:1019D000C9FD2FA0FFF78EFEFFF7C4FD32A0FFF771
:1019E00089FEFFF7BFFD34A0FFF784FEFFF7BAFDC5
:1019F00010E009480088062805D133A0FFF77AFED9
:101A0000FFF7B0FD06E00549491E05A0FFF772FE8D
:101A1000FFF7A8FD10BD000040000020530000208B
:101A200074302E7478743D222573220070616765CE
:101A300020776561746865720000000074312E744F
:101A400078743D224F7665726361737422000000E2
:101A500074332E7478743D223330220070616765D0
:101A60002073637265656E003500002070616765E4
:101A7000207374617465000074312E7478743D2293
:101A800050432D4D617465426F6F6B220000000062
:101A900074372E7478743D22326432326835346D76
:101AA000323473220000000074352E7478743D22A5
:101AB000383825252200000074362E7478743D22B3
:101AC000393925252200000070616765206D616944
:101AD0006E00000010B540F22551024800F050F8A9
:101AE00010BD00000010014010B52021154800F085
:101AF00062F8012824D140F22551124800F040F844
:101B0000104800F01FF9044621460FA0FFF7F2FD30
:101B1000012C01D1FEF7CAFE022C01D1FEF7DEFE38
:101B2000032C01D1FEF75CFF042C01D1FEF710FF5E
:101B3000052C01D1FEF78AFE062C01D1FEF79EFE90
:101B400010BD00000044004025780D0A0000000090
:101B500010B540F22551084800F03AF858B106484F
:101B600000F0F0F805490880FFF7F8FE40F2255133
:101B7000014800F005F810BD00480040400000207A
:101B800010B50022002340F66A14A14200D100BF24
:101B90000A1201249440A3B2DC43048010BD21B199
:101BA000828942F40052828104E082894DF6FF73FB
:101BB0001A408281704702460020B1F5007F00D1B3
:101BC00000BF13880B400BB1012000E000207047DC
:101BD00070B50246002400230025002040F66A1656
:101BE000B14200D100BFC1F3421501F01F0301262D
:101BF00006FA03F3012D02D19689334006E0022D47
:101C000002D1168A334001E0968A33400C12012635
:101C100006FA04F41688344013B10CB1012000E038
:101C2000002070BDF0B503460024002600250020EA
:101C300040F66A17B94200D100BF1846C1F34214FA
:101C400001F01F06012707FA06F5012C01D10C301F
:101C500004E0022C01D1103000E014301AB1076802
:101C60002F43076002E00768AF430760F0BD000044
:101C70002DE9FF4705460E460024A14600BFA046B9
:101C8000B08900B100BF2C8A24F44054F08804438A
:101C90002C82AC8941F20C608443B08831890843BE
:101CA000718908430443AC81AC8A24F44074B08940
:101CB0000443AC826846FFF797FB2048854202D078
:101CC0001F48854202D1DDF80C9001E0DDF8089054
:101CD000A88900F4004040B109EBC90000EB0910ED
:101CE00031684900B0FBF1F707E009EBC90000EBF0
:101CF000091031688900B0FBF1F76420B7FBF0F000
:101D000004012009642101FB1078A88900F4004037
:101D100040B1322000EBC800B0FBF1F000F007004A
:101D2000044308E0322000EB08106421B0FBF1F01E
:101D300000F00F0004432C81BDE8FF870010014034
:101D40000014014001468888C0F308007047C1F3C1
:101D500008028280704700BFFEE7000010B504460D
:101D600034B901202349087023A000F06FF840E047
:101D700020480078002839D000201E4908702248E9
:101D80000078182829D007DC07282DD2DFE800F0DA
:101D90002C13171B1F2324001C2822D006DC192813
:101DA0001CD01A281BD01B281ED119E01D2819D0C1
:101DB000242819D117E015A0FFF79CFC15E015A009
:101DC000FFF798FC11E016A0FFF794FC0DE017A0B8
:101DD000FFF790FC09E008E007E006E005E004E01A
:101DE00003E002E001E000E000BF02E012A000F02A
:101DF0002DF810BD320000204920616D2068657209
:101E000065210D0A0000000031000020436F646569
:101E10000D0A000046696E6973680D0A0000000033
:101E20004265696A696E670D0A0000005368616E59
:101E3000676861690D0A0000506C65617365207305
:101E400061792046697273740D0A00000FB4054B66
:101E500010B503A9044A029800F0ECF810BC5DF834
:101E600014FB0000892700084400002037B5144601
:101E70000846064B6A46214600F0DCF804466946EF
:101E8000002000F05AFC20463EBD00003B27000821
:101E900002E008C8121F08C1002AFAD17047704733
:101EA000002001E001C1121F002AFBD17047000091
:101EB0002DE9FF5F82B00021DDE90430020DDDF87D
:101EC00040B0034318D044F61050A2F2FF32424310
:101ED0001514119801281FD0A5EB0B00401C5FEAD8
:101EE000000A4FF000064E4FDFF83891B0465046DA
:101EF00015D5CAF1000413E0119801244AA3012862
:101F000001D16FEA0B010298119AC0E90031C0E9D2
:101F1000024206B0BDE8F09FCBF10000DFE70446C7
:101F20000021404A491842EB0450CDE9001012E06C
:101F3000E00707D032463B4640464946FEF742FAA4
:101F40008046894632463B4610461946FEF73AFA25
:101F500006460F466410002CEAD1DDE90401DDE9F4
:101F60000023BAF1000F06DAFEF72CFA42464B4680
:101F7000FEF728FA05E0FEF797FA42464B46FEF7D1
:101F800093FA04460E460022284BFEF715FB03D8B1
:101F90004FF0FF30014607E00022254B2046314636
:101FA000FEF769F9FEF7EFFA102409E0002C0ADBCE
:101FB0000A220023FEF72EF9039B30321A55641EC5
:101FC00050EA0102F2D1641C039AC4F111031444D3
:101FD000119A012A03D0012208430DD10AE00843D7
:101FE00004D000204FF0110B119072E7A3EB0B050A
:101FF0006D1E0DE05B4504DD4FF0000205F10105AB
:1020000004E003DA4FF00002A5F10105002AECD04C
:1020100002981199C0E90231C0E9004579E7000052
:10202000000014400000F03F300000000000F043CA
:102030000000E03F2DE9FF4F95B09A4688460646DE
:102040000025EEE1252877D100242746F94A012111
:10205000039400E0044316F8013F203B01FA03F02B
:102060001042F7D130782A2811D06FF02F03307842
:10207000A0F13002092A16D8039A44F0020402EBB8
:10208000820203EB42021044761C0390EFE758F8FB
:10209000042B0392002A03DA504244F400540390C4
:1020A00044F00204761C30782E2816D116F8010F61
:1020B00044F004042A280DD06FF02F023078A0F1EC
:1020C0003003092B09D807EB870302EB4303C7183A
:1020D000761CF3E758F8047B761C30786C280FD018
:1020E00006DC4C2817D068280DD06A2814D104E0EB
:1020F000742810D07A280FD10DE044F400140AE0BF
:1021000044F4801401E044F440147278824202D115
:1021100004F58014761C761C307866280BD013DC0E
:10212000582877D009DC002875D04528F6D04628F5
:10213000F4D047281AD193E118E0632835D06428F9
:1021400079D0652812D18BE1702873D008DC67281C
:10215000F1D069286FD06E280DD06F2806D1ACE081
:1021600073282CD0752874D0782853D052461799EC
:1021700090476D1C54E1C4F30250022809D0032893
:102180000DD0D8F8001004280DD00D6008F1040817
:1021900046E1D8F80010EA17C1E90052F6E7D8F88E
:1021A00000100D80F2E70D70F0E718F8041B8DF8B1
:1021B000001000208DF80100EB46012003E058F8E4
:1021C00004BB4FF0FF3061074FF0000102D40DE077
:1021D00009F101018946B9420FDA8145F8DB1BF8A4
:1021E00009100029F4D108E009F101018946814272
:1021F000FADB1BF809100029F6D103985346A0EB2F
:10220000090721463846179A00F080FA284400EB67
:10221000090507E044E008E10DE01BF8010B524618
:1022200017999047B9F10109F7D25346214638462C
:10223000179AF2E039E00A21C4F302524FF0000B82
:102240000091022A06D058F8040BC117032A09D0BE
:102250000AE023E008F1070020F00702F2E802019B
:10226000904605E000B2C117042A01D140B2C1175F
:10227000002906DA0A460021404261EB02012D22C4
:1022800002E0220504D52B228DF80420012203E070
:10229000E20701D02022F7E7914657E00A2100E04B
:1022A00010214FF0000B00910BE010214FF0000BBC
:1022B00044F004040827009103E008204FF0000BCD
:1022C0000090C4F30252022A05D058F8040B0021F2
:1022D000032A08D008E008F1070020F00702F2E81E
:1022E0000201904603E080B2042A00D1C0B24FF050
:1022F000000922072AD53278702A07D0DDF800C0FD
:102300008CF0100C5CEA0B0C05D00EE040228DF82E
:102310000420012208E050EA010306D030238DF8A2
:1023200004308DF8052002229146009B83F00803BB
:1023300053EA0B030AD150EA010201D1620705D525
:1023400030228DF804204FF001097F1E3278582A80
:1023500004D039A20C920CAA02920BE03BA2F9E73E
:102360005B46009AFDF756FF0C9B9B5C029A521E3F
:102370000292137050EA0102F2D1029804A9081ADD
:1023800000F1200B600702D524F4803400E001271F
:102390005F4502DDA7EB0B0000E0002000EB0B0126
:1023A000009003984944401A0390E00306D4534632
:1023B0002146179A039800F0A9F90544002706E082
:1023C00001A85246C05D179990476D1C7F1C4F4570
:1023D000F6DBE0030CD553462146179A039800F02C
:1023E00095F9054404E030205246179990476D1C3A
:1023F0000099481E00900029F5DC08E00298029937
:1024000052460078491C0291179990476D1CBBF108
:102410000001ABF1010BF1DC5BE100F065F9054473
:10242000761C307800287FF40DAE19B02846BDE840
:10243000F08F00000928010030313233343536374F
:102440003839616263646566000000003031323300
:1024500034353637383941424344454600000000A0
:10246000600700D4062708F1070020F00700F0E815
:102470000223804603F0004C5FEA0C0001D097A0D5
:1024800009E0200501D596A005E0E00701D095A060
:1024900001E0AFF24C001390307823F00043652840
:1024A0000CD006DC452809D046281DD047287FD10E
:1024B0003BE0662818D067287AD136E00021112F3A
:1024C00001DB112000E0781CCDE9000104A90CA873
:1024D000FFF7EEFCDDE90D010C9A4FF0000B07F160
:1024E0000109109200914EE04FF000400097CDE9B5
:1024F000011004A90CA8FFF7DBFCDDE90D020C9B21
:102500000F994FF0000B91461093009211B9791C6E
:1025100000EB0109B7EB090003D4C0F1FF3B07F161
:102520000109A9EB0700019042E0012F00DA012721
:102530000021112F01DD112000E03846CDE9000116
:1025400004A90CA8FFF7B4FCDDE90D010C9A009179
:102550004FF0000BB946109221070FD4009A4A455C
:1025600003DA914601E0A9F10109B9F1010F05DD96
:10257000109AA9F10101515C3029F4D0B84202DA75
:1025800010F1040F03DA0121CDE9011010E0002859
:1025900003DC8344A9EB000102E0411C494500DD56
:1025A0008946A0EB0B00401C01904FF000400290C8
:1025B000200705D40198484502DB4FF0FF30019019
:1025C00000208DF84B0002980DF14B07B0F1004F41
:1025D00025D002200C902B200D90029800280CDAB8
:1025E000404202902D200D9007E00A210298FDF74D
:1025F000FBFD3031029007F8011D0C99481E0C902C
:102600000029F2DC02980028EFD1791E0D9808709D
:10261000307800F0200040F0450007F8020D11A8C6
:10262000C01BC01D02901398007800B1012000EB80
:102630000901019801EBE071029801440398401AE6
:10264000401E0390E00306D453462146179A039890
:1026500000F05CF805441398007818B152461799B9
:1026600090476D1CE00323D553462146179A0398E3
:1026700000F04CF805441BE0BBF1000F07DB0098AD
:10268000584504DD1098179910F80B0001E01799D0
:1026900030205246904701980BF1010B401E05F186
:1026A0000105019004D12E205246179990476D1CC8
:1026B000B9F10001A9F10109DEDC05E017F8010B11
:1026C0005246179990476D1C0299481E02900029A6
:1026D000F4DC53462146179A03989EE62D0000002D
:1026E0002B000000200000002DE9F04104460025E9
:1026F0001E461746880404D405E039462020B0471A
:102700006D1C641EF9D52846BDE8F0812DE9F04125
:10271000044600251E469046C80301D5302700E038
:102720002027880404D505E041463846B0476D1C93
:10273000641EF9D52846BDE8F0810A68531C0B6079
:102740001070704700B5034603E04FF47A7000F054
:1027500005F8181EA3F10103F7D100BDA8214143DC
:102760004FF0E0225161002191610521116100BF0C
:102770004FF0E021096901F480310029F8D00421EB
:102780004FF0E0221161704770B504460D46E0B28B
:10279000FEF7C2FF204670BD31480168481EB0F107
:1027A000807F00D31BE0481E4FF0E022506150179D
:1027B0000F22002807DA13071D0E2A4B00F00F0422
:1027C000241F1D5503E013071C0E274B1C5400BF8C
:1027D00000204FF0E02290610720106100BF4FF40D
:1027E000A060FEF76BFDFDF7B5FFFEF75DFAFEF7A3
:1027F0005BF9FEF77DFC00201C4908701C4908604D
:10280000FEF7BCFE2BE019480078102815D003DC39
:1028100048B101281DD104E011281BD0312818D15E
:1028200000E000BF1AE0012010490870FEF750FEDA
:1028300010B931200D49087010E0FEF733FB0D4947
:10284000087008460078FFF789FA002007490870E9
:1028500004E000BF00200549087000BF00BFD2E7B8
:102860001000002018ED00E000E400E0300000203F
:10287000908240423100002070B5002400251FE006
:1028800000BF4FF400511048FEF7FDF90028F8D0C2
:102890002820FFF763FF6006040E4FF400510A483A
:1028A000FEF7F1F9012801D1601CC4B200BF4FF45A
:1028B00000510548FEF7E7F90128F8D0681CC5B2B9
:1028C000082DDDDB204670BD000802402DE9F047F1
:1028D00081468A4600F046F84FF400511F48FEF743
:1028E000D2F9002837D100BF4FF400511B48FEF742
:1028F000CAF90028F8D000BF4FF400511748FEF77E
:10290000C2F90128F8D0FFF7B7FF0446FFF7B4FF7C
:102910000546FFF7B1FF0646FFF7AEFF0746FFF794
:10292000ABFF804600BF4FF400510C48FEF7ABF9F7
:102930000028F8D060193044384440450BD108488D
:10294000067047708470C570007889F800000448EC
:1029500080788AF80000BDE8F08700000008024097
:102960002400002010B5FEF779F84FF400510E480E
:10297000FEF795F90120FFF7F1FE4FF400510A48E8
:10298000FEF78AF91420FFF7DDFE4FF400510648E8
:10299000FEF785F91E20FFF7E1FEFEF749F80A2051
:1029A000FFF7DCFE10BD0000000802407869616F8F
:1029B000206A6965000000000000000000000000BF
:1029C000646169206D61206365207368690000009F
:1029D000000000006365207368692077616E2062E3
:1029E0006900000000000000626569206A696E6786
:1029F0000000000000000000000000007368616E2D
:102A0000672068616900000000000000000000000D
:102A10006B61692064656E670000000000000000C3
:102A2000000000006775616E2064656E670000003D
:102A300000000000000000006775616E67207A6882
:102A40006F75000000000000000000007368656EF4
:102A5000207A68656E0000000000000000000000A1
:102A60007869616E67207A756F207A6875616E008B
:102A7000000000007869616E6720796F75207A68C0
:102A800075616E00000000006461206B6169206B5D
:102A90006F6E67207469616F000000006775616E7A
:102AA000206269206B6F6E67207469616F0000009F
:102AB000686F752074756900000000000000000058
:102AC00000000000E42A0008000000204800000088
:102AD000901E00082C2B0008480000201041000028
:102AE000A01E00080000000001020304010203040C
:102AF00006070809007A030A000000000000000031
:102B0000010203040607080900000000000000009D
:102B10000A00000000000000000100000000204149
:0C2B2000000000000000000000000000A9
:04000005080001A14D
:00000001FF
