:020000040800F2
:100000000032012061020008590A0008D3090008E3
:10001000550A00080D0800082B1300080000000016
:10002000000000000000000000000000A101000826
:100030006D08000800000000FD010008B10F000875
:100040007B0200087B0200087B0200087B0200089C
:100050007B0200087B0200087B0200087B0200088C
:100060007B0200087B0200087B0200087B0200087C
:100070007B0200087B0200087B0200087B0200086C
:100080007B0200087B0200087B0200087B0200085C
:100090007B0200087B0200087B0200087B0200084C
:1000A0007B0200087B0200087B0200087B0200083C
:1000B0004D1000087B020008791000087B02000840
:1000C0007B0200087B0200087B0200087B0200081C
:1000D0007B0200087B020008C9100008E910000834
:1000E0008D0800087B0200087B0200087B020008E4
:1000F0007B0200087B0200087B0200087B020008EC
:100100007B0200087B0200087B0200087B020008DB
:100110007B0200087B0200087B0200087B020008CB
:100120007B0200087B0200087B0200087B020008BB
:100130007B0200087B0200087B0200087B020008AB
:100140007B0200087B0200087B0200087B0200089B
:100150007B0200087B0200087B0200087B0200088B
:100160007B0200087B0200087B0200087B0200087B
:100170007B0200087B0200087B0200087B0200086B
:100180007B0200087B020008DFF810D000F09EFA26
:1001900000480047811C0008AFF3008000320120B6
:1001A0002C4B19680868B0E8F04F80F30988BFF35A
:1001B0006F8F4FF0000080F311887047000000003F
:1001C00008480068006880F308884FF0000080F35A
:1001D000148862B661B6BFF34F8FBFF36F8F00DF35
:1001E00000BF00BF08ED00E0DFF80C00016841F43B
:1001F00070010160704700BF88ED00E0EFF30980F7
:10020000BFF36F8F134B1A681EF0100F08BF20ED5D
:10021000108A20E9F04F106009B44FF0500080F3CD
:100220001188BFF34F8FBFF36F8F02F059FD4FF06E
:10023000000080F3118809BC19680868B0E8F04F25
:100240001EF0100F08BFB0EC108A80F30988BFF3CE
:100250006F8F70474C000020EFF30580704700005F
:100260000648804706480047FEE7FEE7FEE7FEE750
:10027000FEE7FEE7FEE7FEE7FEE7FEE7E50F000824
:100280008901000840EA01039B0703D009E008C97F
:10029000121F08C0042AFAD203E011F8013B00F84B
:1002A000013B521EF9D27047D2B201E000F8012B97
:1002B000491EFBD270470022F6E710B513460A46E6
:1002C00004461946FFF7F0FF204610BD30B50B4637
:1002D000014600202022012409E021FA02F59D4276
:1002E00005D303FA02F5491B04FA02F52844151E4A
:1002F000A2F10102F1DC30BD2DE9F05F05460020DE
:1003000092469B4688460646814640241BE0284686
:1003100041464746224600F0FAF953465A46C01A6B
:10032000914110D311461846224600F0E1F92D1AEA
:1003300067EB01084F4622460120002100F0D8F962
:1003400017EB00094E41201EA4F10104DFDC4846F2
:1003500031462A464346BDE8F09F2DE9FE4F8046D0
:1003600081EA0300C00F0C46009021F0004123F009
:100370000045B8EB0200A94105D24046214690460F
:100380001C460B46024623F00040104347D0270D81
:10039000C7F30A00C3F30A510290401A01904028A3
:1003A0006BDAC3F3130040F4801B0098924620B12F
:1003B0000023D2EB030A63EB0B0B01985946C0F103
:1003C0004002504600F094F906460D465046594604
:1003D000019A00F0ACF910EB08006141002487EAB3
:1003E000115284EAE7731A4340D0009A62B3019A2B
:1003F000012A4FEA075215DC001B61EB02014FF0A6
:10040000004202EA0752CDE90042001C41F580118A
:1004100032462B4600F0ACF903B0BDE8F08F404601
:100420002146F9E7001B61EB0201001C41F5801336
:1004300000185B412018A2F5001747EB030140EAC2
:10044000D570B6196D4111E06D084FEA360645EAE0
:10045000C0754FEA0752001B61EB0201001C41F519
:10046000801149084FEA30000019514132462B46AD
:1004700003B0BDE8F04F00F06CB9009801224000D5
:100480000023D0EB020263EBE073009821464FEAB1
:10049000E074B8EB000061EB0401E9E783F000438E
:1004A0005BE781F0004158E72DE9FE4F81EA030444
:1004B00004F0004421F0004100944FF0000B23F0C1
:1004C000004350EA01045ED052EA03045BD0C3F358
:1004D0000A54C1F30A552C44A4F2F3340194A0FB4E
:1004E0000254C1F3130141F48011C3F3130343F425
:1004F000801301FB024400FB034E840A970A44EA7E
:10050000815447EA8357A4FB076802958D0A05FBCF
:1005100007854FEA932C04FB0C542705029D4FEAF4
:10052000065847EA1637B5EB08056EEB070C870E41
:10053000920E47EA811742EA8312A7FB0201B6EB4B
:100540000B0164EB00042B0D43EA0C335E1844EB03
:100550001C50DA465146E7FB0201C5F313044FEA8B
:100560000B3343EA14534FEA0432019C43EA060377
:10057000A4F10C040294009CCDE900B400F0F8F85A
:1005800003B0BDE8F08F00200146F9E72DE9F04DFA
:1005900081EA030404F0004B21F0004514464FF0BB
:1005A000000A23F0004150EA050220D054EA01027B
:1005B0001DD0C5F30A570246C5F31303C1F3130058
:1005C000C1F30A5640F4801543F48013A7EB0608E4
:1005D000101BD64608F2FD3873EB050002D308F174
:1005E000010801E092185B41B8F1000F03DA002026
:1005F0000146BDE8F08D00204FF480110646844688
:100600000EE0171B73EB050705D3121B63EB050305
:1006100006434CEA010C49084FEA300092185B414E
:1006200050EA0107EDD152EA030012D082EA040039
:1006300083EA0501084305D0101BAB4106D2012215
:10064000002306E000224FF0004302E06FF00102B9
:1006500053101AEB06004CEB085110EB0A0041EB6B
:100660000B01BDE8F04D00F074B8C1F30A52C1F3BC
:10067000130140F2FF3341F480119A4202DA002064
:100680000146704740F233439A42A2F2334202DC01
:10069000524200F03CB800F02BB8000030B5041E08
:1006A00071F1000404DB4FF00044404264EB0101AF
:1006B000141E73F1000405DB1C464FF00043524248
:1006C00063EB0403994208BF904230BD064C074DCE
:1006D00006E0E06840F0010394E807009847103412
:1006E000AC42F6D3FFF754FD5037000870370008CE
:1006F000202A04DB203A00FA02F1002070479140E2
:10070000C2F1200320FA03F3194390407047202AD6
:1007100004DB203A21FA02F00021704721FA02F3AB
:10072000D040C2F120029140084319467047202A68
:1007300006DBCB17203A41FA02F043EAE07306E009
:1007400041FA02F3D040C2F1200291400843194619
:10075000704710B5141E73F1000408DA401C41F113
:10076000000192185B411A4301D120F0010010BD35
:100770002DE9F04D92469B4611B1B1FA81F202E0AB
:10078000B0FA80F220329046FFF7B2FF04460F46DF
:1007900040EA0A0041EA0B0153465A46084313D087
:1007A000114653EA010019D0C8F140025046FFF744
:1007B000AEFF05460E46504659464246FFF798FFA3
:1007C000084305D0012004E020463946BDE8F08DFD
:1007D0000020054346EAE0762C4337430A98630538
:1007E000E40AA0EB08000022FD0A44EA47540A305C
:1007F00002D500200146E9E7010510196941DDE94C
:10080000084500196941BDE8F04DA2E700BFFEE7C9
:100810001CB50121042000F0E1F900208DF804004E
:100820004FF40050009002208DF805006946024800
:1008300000F056F81CBD0000000802401CB5012164
:10084000042000F0CBF901208DF8040000208DF881
:1008500006004FF40050009002208DF80500694614
:10086000014800F03DF81CBD000402407047000044
:1008700006E004A000F0F8FA4FF4FA7002F04CF928
:10088000F7E7000045535033320A000010B54FF42B
:10089000807000F019F848B100F026F94FF480702C
:1008A00000F006F84FF4807000F008F810BD00006A
:1008B0000149086070470000143C0140014908608C
:1008C00070470000143C014001460020034A1268B2
:1008D0000A400AB1012000E000207047143C0140AA
:1008E000F0B50A4600210023002400BF3DE00125A9
:1008F00005FA01F3156805EA03049C4234D1056842
:100900004F000326BE40B543056015794E00B54043
:100910000668354305601579012D02D01579022D41
:1009200016D185684F000326BE40B54385605579D2
:100930004E00B540866835438560456801268E4087
:10094000B5434560456896798E40B6B235434560FB
:10095000C5684F000326BE40B543C560D5794E003B
:10096000B540C6683543C560491C1029BFD3F0BDEA
:10097000F0B5002300244D07ED0E02FA05F3CE106A
:1009800000F1200555F826504E07F70E0F26BE4001
:10099000B543CF1000F1200646F82750CE1000F1E5
:1009A000200555F8265045EA0304CE1000F1200535
:1009B00045F82640F0BD0246002013690B400BB1FC
:1009C000012000E0002070470A04826170478161C5
:1009D000704700BFFEE7000070B5044610210C48C8
:1009E000FFF7F2FF4FF400710A48FFF7EDFF052013
:1009F00001F0A6FE204601F0A3FE002001F0A0FEBB
:100A0000054610210248FFF7E2FF284670BD0000AE
:100A1000000002400008024070B505460C46102157
:100A20000A48FFF7D1FF4FF400710948FFF7CCFFE8
:100A3000042001F085FE284601F082FE204601F0E8
:100A40007FFE10210148FFF7C2FF70BD0000024089
:100A50000008024000BFFEE77047000070B50021AB
:100A600000230F22C4781CB3174C246804F4E064FC
:100A7000C4F5E064C4F30721C1F10404E3B20A4100
:100A800044789C40E1B28478144021430C07210E45
:100A90000E4C05786155047804F01F050124AC4024
:100AA00005786D11AD0005F1E025C5F8004109E0BC
:100AB000047804F01F050124AC40054D067876113A
:100AC00045F8264070BD00000CED00E000E400E0B9
:100AD00080E100E002490143024A116070470000D2
:100AE0000000FA050CED00E010B500242B20FFF704
:100AF00073FF2849087000212920FFF78DFF00218E
:100B00000220FFF789FF2348007800F01000C8B1E9
:100B1000B220FFF761FF212814D1BF20FFF75CFF4F
:100B200035280FD1BA20FFF757FF0446002C05DD0A
:100B3000042C03DC10201849087006E01120164927
:100B4000087002E011201449087000212B20FFF7E3
:100B500063FF00211C20FFF75FFF00212920FFF722
:100B60005BFF00210220FFF757FF00212B20FFF73A
:100B700053FF0021BA20FFF74FFF0021BC20FFF7F1
:100B80004BFF01210820FFF747FF00210820FFF756
:100B900043FF10BDA7000020C600002029B1064A6F
:100BA00012680243044B1A6004E0034A126882434D
:100BB000014B1A60704700003038024029B1064AE4
:100BC00012680243044B1A6004E0034A126882432D
:100BD000014B1A60704700004038024029B1064AB4
:100BE00012680243044B1A6004E0034A126882430D
:100BF000014B1A607047000044380240F0B50021F4
:100C000000220024022500260223324F3F6807F00D
:100C10000C0121B1042905D0082937D105E02E4F58
:100C2000076036E02D4F076033E02A4F3F1F3F68D3
:100C3000C7F38056274F3F1F3F6807F03F036EB151
:100C4000264FB7FBF3F7DFF88CC0ACF1040CDCF8EF
:100C500000C0CCF3881C07FB0CF40CE01E4FB7FB64
:100C6000F3F7DFF870C0ACF1040CDCF800C0CCF393
:100C7000881C07FB0CF4174F3F1F3F68C7F3014761
:100C80007F1C7D00B4FBF5F7076002E0124F0760A0
:100C900000BF00BF0F4F3F6807F0F0010909104F78
:100CA0007A5C0768D74047600A4F3F6807F4E05115
:100CB000890A0B4F7A5C4768D7408760054F3F68C9
:100CC00007F46041490B064F7A5C4768D740C7601C
:100CD000F0BD0000083802400024F40040787D0197
:100CE000000000200246002013890B400BB10120B8
:100CF00000E0002070470146888970478181704775
:100D000000B58FB001210820FFF748FF0722052119
:100D10005148FFF72DFE072206214F48FFF728FE16
:100D200002208DF8380000208DF83A0020200D9028
:100D300001208DF83B0002208DF839000DA94648AE
:100D4000FFF7CEFD02208DF8380040200D900DA950
:100D50004148FFF7C5FD01214804FFF72FFF4FF47D
:100D6000E13009900020ADF830000C20ADF82E00E5
:100D70000020ADF82C00ADF82A00ADF8280009A934
:100D8000364800F05FFA012240F22551334800F066
:100D900033FA26208DF8200001208DF823008DF8ED
:100DA00021008DF8220008A8FFF758FE01212B48EA
:100DB00000F0DFF901218804FFF700FF0121022084
:100DC000FFF7FCFE4FF48060059002208DF81900BB
:100DD0008DF8180005A92248FFF782FD4FF4006046
:100DE000059002208DF8180005A91D48FFF778FD31
:100DF0004FF4E13001900020ADF80800ADF80A0092
:100E0000ADF80C00ADF810000C20ADF80E0001A9F3
:100E1000144800F017FA012240F22551114800F061
:100E2000EBF9012240F224410E4800F0E5F90121DE
:100E30000C4800F09EF927208DF81C0006208DF844
:100E40001D0000208DF81E0001208DF81F0007A84E
:100E5000FFF704FE0FB000BD000C0240004400404C
:100E600000040240004800400FB400B59BB01DA82C
:100E7000019002A8019A1C9900F06AFA00200190E2
:100E800002A800F013F81BB05DF814FB10B504467F
:100E90002146054800F045FA00BF8021024800F0D5
:100EA00074F90028F9D010BD0044004070B5044624
:100EB000002503E0605DFFF7E9FF6D1C605D002821
:100EC000F8D170BD0CB50020019000903448006846
:100ED00040F480303249086000BF3148006800F4B7
:100EE000003000900198401C0190009818B90198BA
:100EF000B0F5A04FF1D12A48006800F4003010B1DD
:100F00000120009001E0002000900098012846D1C7
:100F100023484030006840F080502149403108604B
:100F20002048006840F440401E4908601C480830D2
:100F300000681B49083108600846006840F400401A
:100F400008600846006840F4A05008601648091F71
:100F50000860081F006840F08070091F086000BF2B
:100F60000F48006800F000700028F9D040F20570CA
:100F70000E4908600A480830006820F0030008495C
:100F8000083108600846006840F00200086000BFB1
:100F900003480830006800F00C000828F8D10CBDA8
:100FA000003802400070004019544007003C0240E5
:100FB00010B500BF502080F31188BFF34F8FBFF3EF
:100FC0006F8F00BF02F06EF918B14FF080500449E6
:100FD000086000BF002080F3118800BF10BD000032
:100FE00004ED00E010B51548006840F470001349A6
:100FF00008601348006840F00100114908600020B3
:101000000F49083108600E4800680E4908400C4935
:1010100008600D48091D0860081F006820F4802042
:10102000091F0860002006490C310860FFF74AFFDD
:101030004FF0006001498039086010BD88ED00E084
:1010400000380240FFFFF6FE1030002410B50749BB
:10105000074801F0BBFB0648017806A0FFF704FF34
:101060000248017803A0FFF7FFFE10BDC500002075
:10107000C40000202564000010B50121064800F0DE
:1010800012F840B10121044800F00AF80348008832
:10109000401C0249088010BD00080040A400002048
:1010A000CA430282704730B5024600200023002464
:1010B000158A05EA0103958905EA010413B10CB10B
:1010C000012000E0002030BD10B52021054800F0CF
:1010D0005CF8012804D140F22551024800F03AF8AA
:1010E00010BD00000044004010B540F225511148E9
:1010F00000F058F870B10F4800F00EF9C4B2232C7C
:1011000002D10DA000F014F940F22551094800F079
:1011100021F80DE040F22441064800F043F838B1D0
:1011200006A000F005F940F22441024800F012F850
:1011300010BD000000480040504300005265636548
:101140006976652061206672616D652064617461F5
:101150002E20000010B50022002340F66A14A142A0
:1011600000D100BF0A1201249440A3B2DC430480E2
:1011700010BD21B1828942F40052828104E082894B
:101180004DF6FF731A408281704702460020B1F588
:10119000007F00D100BF13880B400BB1012000E09D
:1011A0000020704770B5024600240023002500206F
:1011B00040F66A16B14200D100BFC1F3421501F0FA
:1011C0001F03012606FA03F3012D02D1968933404D
:1011D00006E0022D02D1168A334001E0968A3340A0
:1011E0000C12012606FA04F41688344013B10CB12F
:1011F000012000E0002070BDF0B503460024002669
:101200000025002040F66A17B94200D100BF1846F9
:10121000C1F3421401F01F06012707FA06F5012C5D
:1012200001D10C3004E0022C01D1103000E0143068
:101230001AB107682F43076002E00768AF430760F1
:10124000F0BD00002DE9FF4705460E460024A146EB
:1012500000BFA046B08900B100BF2C8A24F44054DE
:10126000F08804432C82AC8941F20C608443B0883E
:1012700031890843718908430443AC81AC8A24F462
:101280004074B0890443AC826846FFF7B7FC20483D
:10129000854202D01F48854202D1DDF80C9001E062
:1012A000DDF80890A88900F4004040B109EBC900BE
:1012B00000EB091031684900B0FBF1F707E009EBDA
:1012C000C90000EB091031688900B0FBF1F7642018
:1012D000B7FBF0F004012009642101FB1078A88914
:1012E00000F4004040B1322000EBC800B0FBF1F048
:1012F00000F00700044308E0322000EB08106421EE
:10130000B0FBF1F000F00F0004432C81BDE8FF8733
:10131000001001400014014001468888C0F3080015
:101320007047C1F308028280704700BFFEE70000EB
:101330000FB4054B10B503A9044A029800F0ECF86D
:1013400010BC5DF814FB00006F1C0008C8000020F2
:1013500037B514460846064B6A46214600F0DCF8CD
:1013600004466946002000F05AFC20463EBD0000BD
:101370001F1C000802E008C8121F08C1002AFAD189
:1013800070477047002001E001C1121F002AFBD105
:10139000704700002DE9FF5F82B00021DDE90430D5
:1013A000020DDDF840B0034318D044F61050A2F20D
:1013B000FF3242431514119801281FD0A5EB0B00F2
:1013C000401C5FEA000A4FF000064E4FDFF83891EC
:1013D000B046504615D5CAF1000413E01198012417
:1013E0004AA3012801D16FEA0B010298119AC0E9C2
:1013F0000031C0E9024206B0BDE8F09FCBF1000029
:10140000DFE704460021404A491842EB0450CDE989
:10141000001012E0E00707D032463B4640464946FE
:10142000FFF742F88046894632463B461046194649
:10143000FFF73AF806460F466410002CEAD1DDE9C2
:101440000401DDE90023BAF1000F06DAFFF72CF8FA
:1014500042464B46FFF728F805E0FFF797F842466B
:101460004B46FFF793F804460E460022284BFFF741
:1014700015F903D84FF0FF30014607E00022254B55
:1014800020463146FEF769FFFFF7EFF8102409E028
:10149000002C0ADB0A220023FEF72EFF039B3032CA
:1014A0001A55641E50EA0102F2D1641C039AC4F179
:1014B00011031444119A012A03D0012208430DD1CB
:1014C0000AE0084304D000204FF0110B119072E79E
:1014D000A3EB0B056D1E0DE05B4504DD4FF0000234
:1014E00005F1010504E003DA4FF00002A5F1010562
:1014F000002AECD002981199C0E90231C0E90045F8
:1015000079E70000000014400000F03F30000000C8
:101510000000F0430000E03F2DE9FF4F95B09A46F0
:10152000884606460025EEE1252877D10024274687
:10153000F94A0121039400E0044316F8013F203BDF
:1015400001FA03F01042F7D130782A2811D06FF059
:101550002F033078A0F13002092A16D8039A44F0FC
:10156000020402EB820203EB42021044761C039059
:10157000EFE758F8042B0392002A03DA504244F4B0
:101580000054039044F00204761C30782E2816D1C3
:1015900016F8010F44F004042A280DD06FF02F0232
:1015A0003078A0F13003092B09D807EB870302EB51
:1015B0004303C718761CF3E758F8047B761C307891
:1015C0006C280FD006DC4C2817D068280DD06A286C
:1015D00014D104E0742810D07A280FD10DE044F41F
:1015E00000140AE044F4801401E044F440147278DA
:1015F000824202D104F58014761C761C307866286D
:101600000BD013DC582877D009DC002875D045288A
:10161000F6D04628F4D047281AD193E118E0632881
:1016200035D0642879D0652812D18BE1702873D029
:1016300008DC6728F1D069286FD06E280DD06F289C
:1016400006D1ACE073282CD0752874D0782853D0FC
:101650005246179990476D1C54E1C4F3025002287A
:1016600009D003280DD0D8F8001004280DD00D6043
:1016700008F1040846E1D8F80010EA17C1E9005261
:10168000F6E7D8F800100D80F2E70D70F0E718F8D3
:10169000041B8DF8001000208DF80100EB4601209E
:1016A00003E058F804BB4FF0FF3061074FF0000132
:1016B00002D40DE009F101018946B9420FDA8145F2
:1016C000F8DB1BF809100029F4D108E009F1010149
:1016D00089468142FADB1BF809100029F6D10398EC
:1016E0005346A0EB090721463846179A00F080FAC6
:1016F000284400EB090507E044E008E10DE01BF891
:10170000010B524617999047B9F10109F7D2534698
:1017100021463846179AF2E039E00A21C4F3025212
:101720004FF0000B0091022A06D058F8040BC117A5
:10173000032A09D00AE023E008F1070020F007029D
:10174000F2E80201904605E000B2C117042A01D177
:1017500040B2C117002906DA0A460021404261EB77
:1017600002012D2202E0220504D52B228DF804204F
:10177000012203E0E20701D02022F7E7914657E07B
:101780000A2100E010214FF0000B00910BE0102126
:101790004FF0000B44F004040827009103E00820F8
:1017A0004FF0000B0090C4F30252022A05D058F803
:1017B000040B0021032A08D008E008F1070020F0FC
:1017C0000702F2E80201904603E080B2042A00D149
:1017D000C0B24FF0000922072AD53278702A07D00C
:1017E000DDF800C08CF0100C5CEA0B0C05D00EE0AC
:1017F00040228DF80420012208E050EA010306D0BF
:1018000030238DF804308DF8052002229146009B8C
:1018100083F0080353EA0B030AD150EA010201D115
:10182000620705D530228DF804204FF001097F1E94
:101830003278582A04D039A20C920CAA02920BE0FA
:101840003BA2F9E75B46009AFEF756FD0C9B9B5CBA
:10185000029A521E0292137050EA0102F2D10298CB
:1018600004A9081A00F1200B600702D524F4803483
:1018700000E001275F4502DDA7EB0B0000E0002040
:1018800000EB0B01009003984944401A0390E003D9
:1018900006D453462146179A039800F0A9F9054447
:1018A000002706E001A85246C05D179990476D1CBD
:1018B0007F1C4F45F6DBE0030CD553462146179AB3
:1018C000039800F095F9054404E03020524617993A
:1018D00090476D1C0099481E00900029F5DC08E037
:1018E0000298029952460078491C02911799904734
:1018F0006D1CBBF10001ABF1010BF1DC5BE100F011
:1019000065F90544761C307800287FF40DAE19B0D7
:101910002846BDE8F08F000009280100303132333D
:10192000343536373839616263646566000000001B
:101930003031323334353637383941424344454605
:1019400000000000600700D4062708F1070020F01F
:101950000700F0E80223804603F0004C5FEA0C0029
:1019600001D097A009E0200501D596A005E0E00789
:1019700001D095A001E0AFF24C001390307823F035
:10198000004365280CD006DC452809D046281DD028
:1019900047287FD13BE0662818D067287AD136E007
:1019A0000021112F01DB112000E0781CCDE900019E
:1019B00004A90CA8FFF7EEFCDDE90D010C9A4FF02D
:1019C000000B07F10109109200914EE04FF000402A
:1019D0000097CDE9011004A90CA8FFF7DBFCDDE9B5
:1019E0000D020C9B0F994FF0000B91461093009243
:1019F00011B9791C00EB0109B7EB090003D4C0F160
:101A0000FF3B07F10109A9EB0700019042E0012F1C
:101A100000DA01270021112F01DD112000E03846F6
:101A2000CDE9000104A90CA8FFF7B4FCDDE90D0124
:101A30000C9A00914FF0000BB946109221070FD479
:101A4000009A4A4503DA914601E0A9F10109B9F18A
:101A5000010F05DD109AA9F10101515C3029F4D084
:101A6000B84202DA10F1040F03DA0121CDE90110C6
:101A700010E0002803DC8344A9EB000102E0411CD4
:101A8000494500DD8946A0EB0B00401C01904FF05A
:101A900000400290200705D40198484502DB4FF032
:101AA000FF30019000208DF84B0002980DF14B079C
:101AB000B0F1004F25D002200C902B200D90029801
:101AC00000280CDA404202902D200D9007E00A21F8
:101AD0000298FEF7FBFB3031029007F8011D0C99CC
:101AE000481E0C900029F2DC02980028EFD1791EE4
:101AF0000D980870307800F0200040F0450007F89D
:101B0000020D11A8C01BC01D02901398007800B1EF
:101B1000012000EB0901019801EBE07102980144FA
:101B20000398401A401E0390E00306D45346214612
:101B3000179A039800F05CF805441398007818B1E0
:101B40005246179990476D1CE00323D55346214612
:101B5000179A039800F04CF805441BE0BBF1000F06
:101B600007DB0098584504DD1098179910F80B0012
:101B700001E0179930205246904701980BF1010B74
:101B8000401E05F10105019004D12E2052461799FF
:101B900090476D1CB9F10001A9F10109DEDC05E0F7
:101BA00017F8010B5246179990476D1C0299481E71
:101BB00002900029F4DC53462146179A03989EE6CA
:101BC0002D0000002B000000200000002DE9F04156
:101BD000044600251E461746880404D405E039460D
:101BE0002020B0476D1C641EF9D52846BDE8F08161
:101BF0002DE9F041044600251E469046C80301D554
:101C0000302700E02027880404D505E04146384607
:101C1000B0476D1C641EF9D52846BDE8F0810A68FE
:101C2000531C0B601070704700B5034603E04FF47F
:101C30007A7000F005F8181EA3F10103F7D100BD7A
:101C400000EBC001C9004FF0E02251610021916119
:101C50000521116100BF4FF0E021096901F48031D5
:101C60000029F8D004214FF0E0221161704770B5CF
:101C700004460D46E0B2FFF709F9204670BD0000AA
:101C80001CB54FF4A060FEF725FFFEF7D7FDFEF769
:101C9000BFFD00F0E7FDFFF733F808A0FFF7E4F819
:101CA0000A48022100230A02CDE9001008A10C48CD
:101CB00001F0AEFA00F0BEFF00BFFEE7496E6974A6
:101CC0002046696E6973683121000000B800002069
:101CD0004553503332436F6D6D75746500000000DD
:101CE000710800082DE9F04105460E4626480768B0
:101CF00026480068001D00F0D9FD50B9234800684F
:101D000090F82C100120884021490968814320481F
:101D10000160681CD8B9D6B11E4948681B490968DA
:101D200088601A4982680968CA6018490968091DEB
:101D30008268516015490968091D8160154A134977
:101D400009684A6111460968491C11601AE07C194A
:101D50000E4800684460BC4207D20C480168091D67
:101D60000D48006800F0C6FD0CE008480168091D38
:101D70000A48006800F0BEFD09480068844201D2AC
:101D800007480460BDE8F081600000204C0000209E
:101D900064000020C02D01205400002050000020CD
:101DA0007C00002010B5044600F0BEFD31480068FC
:101DB000401C304908603048006840B92E48046033
:101DC0000846006801280DD100F0B2F90AE02B485E
:101DD000006838B928480068C06AE16A884201D8BA
:101DE0002548046026480068401C254908600846CC
:101DF0000068206494F82C1001208840214909686B
:101E0000084320490860E16A01EB81011E4A02EBA8
:101E100081014868A0608268E260211D826851608B
:101E20008160E16A01EB8101174A02EB8102626184
:101E3000E16A01EB8101144A52F82110491CE26A5F
:101E400002EB8202104B43F8221000F097FD0B4882
:101E5000006868B108480068C06AE16A884207D231
:101E60004FF0805009490860BFF34F8FBFF36F8F69
:101E700010BD00005C0000204C0000206800002025
:101E800078000020640000200C2D012004ED00E00B
:101E900010B500F049FD10480068D0B90F4800F0B7
:101EA00019FD0F4800F016FD0C480E4908600C485B
:101EB0000D49086000220C210A2001F00BF80649A8
:101EC00008600846006820B108A10348006800F0D7
:101ED000CDFD00F053FD10BD94000020D42D012055
:101EE000E82D01208C00002090000020546D7251DC
:101EF0000000000010B516E000F016FD0C48C068A8
:101F0000C468201D00F0D2FC0A480068401E094940
:101F1000086009480068401E0749086000F02EFD6F
:101F2000204600F020F8044800680028E4D110BDE5
:101F3000AC2D01205C0000205800002070B5044644
:101F40000D46206C70B1216CE0680144E160D4E979
:101F50000210884201D32168E1602846226CE168C2
:101F6000FEF790F970BD10B50446206B00F024FD1B
:101F7000204600F021FD10BD0146084A1268126893
:101F80000AB9012200E000220A600A6822B9034A65
:101F90001268D268106800E0002070478C000020B2
:101FA00030B54FF49633154800F007042CB1C01D2E
:101FB00020F00700114C041B1B1B0246104C226032
:101FC00000240F4D6C60D018083820F007000D4C2D
:101FD000206000240B4D2D686C600A4D2D682C602C
:101FE0001146441A4C60074C24680C60064D4C683E
:101FF0002C60064D4C682C6030BD0000CC000020E9
:102000003000002038000020400000203C0000206C
:1020100000BFFFF76FFF064800680128F9D94FF0AD
:10202000805004490860BFF34F8FBFF36F8FF0E714
:102030000C2D012004ED00E02DE9F04106460D468F
:1020400017469846069C0DB9246000E02760E663B9
:1020500025640121204600F071FF84F84C80BDE822
:10206000F0812DE9F05F82460F4690469B460A9E1E
:102070000C9C4FEA8801A522206BFEF715F9A8F108
:102080000100216B01EB800929F0070909F0070025
:1020900008B9012000E0002050B900BF502080F3B3
:1020A0001188BFF34F8FBFF36F8F00BF00BFFEE7F4
:1020B0007FB1002507E0795D04F134004155785D7A
:1020C00000B902E06D1C0A2DF5D300BF00213D20B0
:1020D0000155052E01D2012000E0002050B900BFBB
:1020E000502080F31188BFF34F8FBFF36F8F00BF75
:1020F00000BFFEE7052E00D30426E662A664201D7D
:1021000000F0F5FB04F1180000F0F1FB2461C6F1CA
:102110000500A06164625A465146484600F0FAFA4A
:1021200020600B9808B10B980460BDE8F09F000098
:1021300010B5002407E004EB84010F4A02EB810094
:1021400000F0C8FB641C052CF5D30C4800F0C2FB62
:102150000B4800F0BFFB0B4800F0BCFB0A4800F046
:10216000B9FB0A4800F0B6FB044809490860044876
:102170000849086010BD00000C2D0120702D0120C1
:10218000842D0120982D0120AC2D0120C02D01208F
:10219000500000205400002010B50146164800E011
:1021A000006803688B42FBD30246436813448B42AA
:1021B00004D143684C682344436001460A464B6897
:1021C00013440468A34211D10C4C03682468A34251
:1021D00008D04B680468646823444B6003681B683C
:1021E0000B6005E0054B1B680B6001E003680B60AA
:1021F000884200D0016010BD30000020380000206F
:102200002DE9F04104460D4616461F464FF00008E2
:1022100065602461B5420CD8F01BA169884202D3E5
:102220004FF0010811E0211D0948006800F062FB31
:102230000BE0BE4204D2BD4202D34FF0010804E0DD
:10224000211D0448006800F055FB4046BDE8F081C0
:10225000900000208C00002070B5054600F064FB63
:10226000A86B08B9012400E0002400F087FB204699
:1022700070BD000070B505460E460E480068C06887
:10228000C468201D00F012FB94F8280000F0040040
:1022900028B132462946204600F0D6F805E094F8E9
:1022A000280000F0FE0084F828002046216A8847B4
:1022B00070BD00008C0000207FB57FE001980028F1
:1022C0007CDB039C606908B9012000E0002010B9A4
:1022D000201D00F0EBFA684600F0E2F80546019890
:1022E0000A2869D2DFE800F06805072E365806088C
:1022F0002F3700BF00BF00BF94F8280040F0010056
:1023000084F828000298A269811803462A462046CC
:10231000FFF776FFA8B194F8280000F0040038B168
:102320000298A26981182A46204600F08DF805E03F
:1023300094F8280000F0FE0084F828002046216A66
:1023400088473AE000BF94F8280000F0FE0084F8C7
:10235000280032E000BF94F8280040F0010084F823
:1023600028000298A061A06908B1012000E00020C7
:1023700050B900BF502080F31188BFF34F8FBFF3D7
:102380006F8F00BF00BFFEE7A06941192B462A46A8
:102390002046FFF735FF10E094F8280000F0020017
:1023A00018B9204600F008FB05E094F8280000F07A
:1023B000FE0084F8280000E000BF00BF002201A951
:1023C0000348006800F028FE00287FF477AF7FBD47
:1023D00094000020F8B505460C4600F079FC6846EC
:1023E00000F05EF80646009820BB44B9B54206D816
:1023F00001F0C6F831462846FFF73CFF1CE03CB12F
:102400000E480068006808B9012000E0002004467A
:10241000A91B22460A48006800F058FB01F0B0F8FA
:1024200050B94FF0805007490860BFF34F8FBFF39A
:102430006F8F01E001F0A4F8F8BD000090000020CB
:102440009400002004ED00E070B504460D461646E9
:1024500004E0A06905442046216A8847A069411923
:102460002B4632462046FFF7CBFE0028F1D170BD47
:1024700009480068006808B9012000E0002020B188
:102480004FF0FF300549086005E003480068C06868
:102490000068024908607047500000207C0000205E
:1024A00070B5044600F0F8FE05460748006885420E
:1024B00004D200F00BF80120206001E00020206031
:1024C00001480560284670BD9C00002070B508E0FA
:1024D0000D480068C06804684FF0FF312046FFF7E0
:1024E000C9FE09480068006808B9012000E0002022
:1024F0000028EDD0044805680448006802490860D7
:102500000248056070BD00008C0000209000002093
:102510000E480068401C08B9012000E0002050B9B6
:1025200000BF502080F31188BFF34F8FBFF36F8F30
:1025300000BF00BFFEE700BF502080F31188BFF34B
:102540004F8FBFF36F8F00BF00BFFEE72400002056
:1025500008B500BF6846FFF70FFD04462046009906
:10256000FFF738FFFFF7A8FEF4E770B5044600F068
:10257000DBF994F9455010E0606A08B9012000E0E9
:10258000002038B904F1240000F06AFF18B100F00F
:10259000FDFA00E003E0681E45B2002DECDC00BF50
:1025A000FF2084F8450000F0E9F900F0BDF994F946
:1025B000445010E0206908B9012000E0002048B92B
:1025C00004F1100000F04CFF08B100F0DFFA681EC3
:1025D00045B200E001E0002DECDC00BFFF2084F8F4
:1025E000440000F0CBF970BD2DE9F04705464FF0EF
:1025F000000900F06DFB4248006808B9FFF7D0FC05
:1026000075B105F00700C0F11008C8F1FF30A8420D
:1026100001D2012000E0002008B9454400E0002577
:10262000012000EBE570002853D0002D51D0354833
:10263000006885424DD8344E3046046801E0264695
:1026400024686068A84202D220680028F7D12C488C
:10265000006884423DD0306800F10809206830608D
:102660006068401B102819D9671907F0070008B9DE
:10267000012000E0002050B900BF502080F31188F5
:10268000BFF34F8FBFF36F8F00BF00BFFEE76068DF
:10269000401B786065603846FFF77EFD1949606829
:1026A0000968081A17490860084600681749096848
:1026B000884203D21348006814490860606840F0FB
:1026C000004060600020206011480068401C1049F4
:1026D000086000F055FF09F0070008B9012000E08C
:1026E000002050B900BF502080F31188BFF34F8FF6
:1026F000BFF36F8F00BF00BFFEE74846BDE8F0871D
:10270000380000203C000020300000204000002065
:1027100044000020001F4FF080730360001F21F071
:1027200001030360001F054B036014380260001FA3
:102730006FF0020303602038704700001125000885
:1027400010B5044600BF02210A48FEF7CBFA002864
:10275000F9D021460748FEF7D1FA00BF012105480C
:10276000FEF7C0FA0028F9D00248FEF7C4FAC0B25A
:1027700010BD0000003C004070B5002400251FE0A3
:1027800000BF4FF400511048FEF715F90028F8D0AB
:102790002820FFF755FA6006040E4FF400510A484E
:1027A000FEF709F9012801D1601CC4B200BF4FF443
:1027B00000510548FEF7FFF80128F8D0681CC5B2A3
:1027C000082DDDDB204670BD000802402DE9F047F2
:1027D00081468A4600F046F84FF400511F48FEF744
:1027E000EAF8002837D100BF4FF400511B48FEF72C
:1027F000E2F80028F8D000BF4FF400511748FEF768
:10280000DAF80128F8D0FFF7B7FF0446FFF7B4FF66
:102810000546FFF7B1FF0646FFF7AEFF0746FFF795
:10282000ABFF804600BF4FF400510C48FEF7C3F8E1
:102830000028F8D060193044384440450BD108488E
:10284000067047708470C570007889F800000448ED
:1028500080788AF80000BDE8F08700000008024098
:10286000A000002010B5FDF7E9FF4FF400510E481D
:10287000FEF7ADF80120FFF7E3F94FF400510A48E5
:10288000FEF7A2F81420FFF7CFF94FF400510648E5
:10289000FEF79DF81E20FFF7D3F9FDF7B9FF0A20D8
:1028A000FFF7CEF910BD00000008024001460A699A
:1028B000D1E901309860D1E901035860506888423D
:1028C00001D188685060002008611068401E1060C7
:1028D0001068704700F1080141604FF0FF318160DE
:1028E00000F10801C1600161002101607047002111
:1028F0000161704710B502460B685C1C0CB9106989
:1029000007E002F1080000E04068446824689C4247
:10291000FAD944684C604C68A160886041600A61E3
:102920001468641C146010BD00BF502080F311882F
:10293000BFF34F8FBFF36F8F00BF0E480068401C7E
:102940000C49086008460068012812D10A4800684E
:10295000C0B208B9012000E0002050B900BF5020EB
:1029600080F31188BFF34F8FBFF36F8F00BF00BF9D
:10297000FEE770472400002004ED00E00D480068E9
:1029800050B900BF502080F31188BFF34F8FBFF3C1
:102990006F8F00BF00BFFEE706480068401E054974
:1029A00008600846006820B9002080F3118800BF45
:1029B00000BF70472400002070B506463546002E43
:1029C0003BD0083D2C466068C00F50B900BF502076
:1029D00080F31188BFF34F8FBFF36F8F00BF00BF2D
:1029E000FEE7206808B9012000E0002050B900BFD0
:1029F000502080F31188BFF34F8FBFF36F8F00BF5C
:102A000000BFFEE76068C00FB8B12068A8B9606871
:102A100020F00040606000F05BF9084960680968D8
:102A20000844064908602046FFF7B6FB04480068E2
:102A3000401C0349086000F0A3FD70BD3C0000206D
:102A40004800002000204FF0E0210861886106481E
:102A500000684FF47A71B0FBF1F0401E4FF0E021B6
:102A600048610720086170471000002030B5024619
:102A70000B46002152B900BF502484F31188BFF3E4
:102A80004F8FBFF36F8F00BF00BFFEE7BBB10020C9
:102A900012E00D4C04EBC0046468944203D10A4C6C
:102AA00004EBC0010AE031B9074C54F8304014B9C6
:102AB000054C04EBC001401C0828EAD300BF09B153
:102AC0000B604A6030BD0000CC2C01202DE9F041A4
:102AD00005460E4617462C46FFF726FF94F944009C
:102AE000401C10B9002084F8440094F94500401CB3
:102AF00010B9002084F84500FFF740FFA06B28B90B
:102B00003A46314604F1240000F062F82046FFF70F
:102B10002CFDBDE8F081000070B504460025D4B15D
:102B20001248006808B9012000E0002050B900BF39
:102B3000502080F31188BFF34F8FBFF36F8F00BF1A
:102B400000BFFEE700F0C4F800212046FFF7CAF8F6
:102B500000F016FD05463DB94FF08050044908606D
:102B6000BFF34F8FBFF36F8F70BD00008800002050
:102B700004ED00E003490968016003490968416008
:102B8000704700007400002060000020012001490F
:102B9000086070477000002070B504460D4654B9B7
:102BA00000BF502080F31188BFF34F8FBFF36F8FAA
:102BB00000BF00BFFEE70548016818312046FFF757
:102BC00099FE01212846FFF78DF870BD4C000020CA
:102BD00070B504460E46154654B900BF502080F328
:102BE0001188BFF34F8FBFF36F8F00BF00BFFEE7A9
:102BF00060680F490968C8610D49826809680A62FE
:102C00000B4909681831826851600949096818310F
:102C10008160074909688C622168491C21600DB1F7
:102C20004FF0FF3629463046FFF75CF870BD0000D4
:102C30004C0000201CB51E4800210B468222CDE925
:102C400000101CA11D4800F0E3FA0446012C02D13B
:102C500000F052FD0446012C15D100BF502080F336
:102C60001188BFF34F8FBFF36F8F00BF4FF0FF305E
:102C700013490860012013490860002012490860C8
:102C800000F074F810E0601C08B1012000E00020A2
:102C900050B900BF502080F31188BFF34F8FBFF3AE
:102CA0006F8F00BF00BFFEE7084800681CBD000032
:102CB0008000002049444C4500000000112000081D
:102CC0007C000020680000206000002084000020BC
:102CD00002480068401C01490860704788000020D5
:102CE0001D48006818B101201C49086032E000202E
:102CF0001A4908601A480068B0FA80F0C0F11F0154
:102D000001EB8100174A52F8200008B1012000E0D1
:102D1000002050B900BF502080F31188BFF34F8FBF
:102D2000BFF36F8F00BF00BFFEE701EB81020D4BC9
:102D300003EB820042685268426000F10802436877
:102D4000934202D14268526842604268D268064BA0
:102D50001A6000BF7047000088000020700000204B
:102D6000640000200C2D01204C0000201CB55248AE
:102D700000685249884201D0012000E0002050B98B
:102D800000BF502080F31188BFF34F8FBFF36F8FC8
:102D900000BF00BFFEE7484800684849491E884216
:102DA00001D0012000E0002050B900BF502080F386
:102DB0001188BFF34F8FBFF36F8F00BF00BFFEE7D7
:102DC0003F49084600780190FF200A4610700846E7
:102DD000007800909DF8000000F0F0009DF80020C1
:102DE000904201D1012000E0002050B900BF5020E6
:102DF00080F31188BFF34F8FBFF36F8F00BF00BF09
:102E0000FEE79DF8000000F050002E4A10700720E9
:102E10002D4A106009E02C480068401E2A4A1060C4
:102E20009DF800004006000E00909DF8000000F0A4
:102E300080008028EFD024480068C0F107000428F3
:102E400001D1012000E0002050B900BF502080F3E4
:102E50001188BFF34F8FBFF36F8F00BF00BFFEE736
:102E6000194800680002184A10601046008800F4F3
:102E7000E0601060124A019810700F48203000681E
:102E800040F470000C49203108600846006840F0AA
:102E900070400860FFF7D6FD00200C490860FDF780
:102EA000A3F90B48006840F0404009490860FDF76D
:102EB00087F900201CBD000000ED00E071C20F4149
:102EC00000E400E0280000202C0000202400002066
:102ED00034EF00E02DE9F84305460E46174600247E
:102EE000E5B1601EB0FBF5F0B04217D305FB06F06C
:102EF00010F1510F12D805FB06F808F15000FFF74A
:102F000073FB0446B4B1A14609F150093B464A4659
:102F1000314628460094FFF78FF80BE054B900BF04
:102F2000502080F31188BFF34F8FBFF36F8F00BF26
:102F300000BFFEE72046BDE8F88300002DE9F04120
:102F400005460E4601272C4654B900BF502080F399
:102F50001188BFF34F8FBFF36F8F00BF00BFFEE735
:102F6000002C42D0E06B00283FD04FF0FF31E06BE7
:102F7000B1FBF0F0216C884237D3FFF7D5FCD4E9E0
:102F80000F12206801FB0200A0600020A0632068EF
:102F90006060E06B401E226C216800FB0211E16062
:102FA000FF2084F8440084F845009EB9206908B9E0
:102FB000012000E00020A8B904F1100000F050FA50
:102FC00080B14FF0805013490860BFF34F8FBFF3BB
:102FD0006F8F07E004F11000FFF77CFC04F1240080
:102FE000FFF778FCFFF7CAFC00E000270FB10120D3
:102FF00000E0002050B900BF502080F31188BFF3DB
:103000004F8FBFF36F8F00BF00BFFEE73846BDE8AC
:10301000F081000004ED00E02DE9F74183B00546A2
:103020000E464FF000082C4654B900BF502080F3E4
:103030001188BFF34F8FBFF36F8F00BF00BFFEE754
:103040000EB9206C08B9012000E0002050B900BF83
:10305000502080F31188BFF34F8FBFF36F8F00BFF5
:1030600000BFFEE700F008F908B9059808B901208B
:1030700000E0002050B900BF502080F31188BFF35A
:103080004F8FBFF36F8F00BF00BFFEE700BFFFF79A
:103090004BFCA76BF7B131462046FEF74FFF781E79
:1030A000A063206908B9012000E0002060B904F1A4
:1030B000100000F0D5F938B14FF080502F4908606A
:1030C000BFF34F8FBFF36F8FFFF758FC012006B09F
:1030D000BDE8F081059818B9FFF750FC0020F6E72D
:1030E000B8F1000F04D101A8FFF744FD4FF001082B
:1030F000FFF744FCFFF7ECFDFFF716FC94F94400E2
:10310000401C10B9002084F8440094F94500401C8C
:1031100010B9002084F84500FFF730FC05A901A88C
:1031200000F02EF8F0B92046FFF796F8A0B104F1B0
:1031300024000599FFF730FD2046FFF716FA00F04E
:103140001FFA0028A3D14FF080500C490860BFF34C
:103150004F8FBFF36F8F9AE72046FFF706FA00F014
:103160000FFA94E72046FFF700FA00F009FA20462C
:10317000FFF772F800288AD00020A8E704ED00E0ED
:1031800070B505460C4655B900BF502080F3118834
:10319000BFF34F8FBFF36F8F00BF00BFFEE754B97F
:1031A00000BF502080F31188BFF34F8FBFF36F8FA4
:1031B00000BF00BFFEE7FFF7B7FB1348026868686F
:1031C000131A2068401C08B9002619E00F49286826
:1031D0000968884206D06868904203D8012600201A
:1031E00020600DE02068984207D92068C01A20604E
:1031F0002846FFF7BFFC002602E0002020600126E1
:10320000FFF7BCFB304670BD60000020740000205A
:103210002DE9FF4F85B0804689461746DDE912ABA0
:10322000B800FFF7E1F9064676B15820FFF7DCF960
:1032300004462CB158212046FDF73DF8266304E0F2
:103240003046FFF7B9FB00E000247CB10020CDE957
:1032500000ABCDE902403A4649464046089BFEF79E
:1032600000FF2046FEF79EFD012501E04FF0FF35EF
:10327000284609B0BDE8F08F0549096809B9012061
:1032800005E00449096809B9022000E00020704700
:10329000680000208800002001490868704700008D
:1032A000600000202DE9F0414FF0000861480068FF
:1032B00000287DD160480068451C5F48056015BB4B
:1032C0005E480068006808B9012000E0002050B99D
:1032D00000BF502080F31188BFF34F8FBFF36F8F73
:1032E00000BF00BFFEE755480768554800685349CE
:1032F00008605348076053480068401C5149086003
:10330000FFF7B6F800BF50480068854277D300BF8A
:103310004A480068006808B9012000E0002020B198
:103320004FF0FF304849086068E044480068C068D2
:10333000C4686668B54202D2434806605EE06069D0
:10334000D4E902128A60D4E902214A60211D426850
:103350008A4201D1E1684160002262610168491E30
:103360000160A06A98B1A06AD4E907128A60D4E922
:1033700007214A6004F1180142688A4201D1216A9A
:1033800041600022A2620168491E016000BF94F8FA
:103390002C10012088402D49096808432B490860FA
:1033A000E16A01EB81012A4A02EB8101486800E0F1
:1033B00037E0A0608268E260211D82685160816010
:1033C000E16A01EB8101224A02EB81026261E16A5A
:1033D00001EB81011E4A52F82110491CE26A02EBFE
:1033E00082021B4B43F822101A49E06A0968C96A35
:1033F00088428DD94FF001088AE700E000BF1548E8
:103400000068C06A00EB8000114951F820000128D3
:1034100001D94FF001081048006808B14FF00108C9
:1034200004E00E480068401C0C4908604046BDE8B6
:10343000F081000088000020600000205000002083
:1034400054000020740000207C0000206400002054
:103450000C2D01204C000020700000206C0000208A
:1034600070B50346D868C16851B900BF502080F3D9
:103470001188BFF34F8FBFF36F8F00BF00BFFEE710
:10348000886AD1E90745A560D1E90754656001F173
:1034900018044568A54201D10C6A446000258D627C
:1034A0000468641E04603048006800283DD1486903
:1034B000D1E90245A560D1E9025465600C1D45685B
:1034C000A54201D1CC68446000254D610468641EAA
:1034D000046091F82C400120A040244C2468204333
:1034E000224C2060CC6A04EB8404214D05EB84045B
:1034F000606888608568CD600C1D85686C6084603C
:10350000CC6A04EB84041A4D05EB84054D61CC6A4A
:1035100004EB8404164D55F82440641CCD6A05EB79
:103520008505134E46F8254010E0124C6068C861CE
:1035300085680D6201F1180485686C6084600D4D2A
:103540008D622C462468641C2C6000BF0A4CC86A3B
:103550002468E46AA04204D901220120074C2060BB
:1035600000E00022104670BD8800002064000020AA
:103570000C2D0120982D01204C000020700000200F
:1035800070B5002400265348006850B900BF502091
:1035900080F31188BFF34F8FBFF36F8F00BF00BF61
:1035A000FEE7FFF7C1F94B480068401E4949086033
:1035B0000846006800287DD147480068002879D077
:1035C0005BE04648C068C468A06AD4E907128A6014
:1035D000D4E907214A6004F1180142688A4201D106
:1035E000216A41600022A2620168491E016060698F
:1035F000D4E902128A60D4E902214A60211D42689E
:103600008A4201D1E1684160002262610168491E7D
:10361000016094F82C100120884031490968084362
:103620002F490860E16A01EB81012E4A02EB81011A
:103630004868A0608268E260211D826851608160F4
:10364000E16A01EB8101274A02EB81026261E16AD2
:1036500001EB8101234A52F82110491CE26A02EB76
:103660008202204B43F822101F49E06A0968C96AA8
:10367000884202D301201D4908601848006808B933
:10368000012000E0002000289BD00CB1FEF7F0FEE6
:103690001748056865B100BFFFF704FE10B10120AF
:1036A000124908606D1E002DF6D1002010490860F7
:1036B0000E4800E009E0006838B1012630070D49E6
:1036C0000860BFF34F8FBFF36F8FFFF757F9304696
:1036D00070BD0000880000205C000020982D0120B3
:1036E000640000200C2D01204C0000207000002000
:1036F0006C00002004ED00E01CB50024FEF7C8FBC0
:103700000E48006858B10E48022100234FF482721F
:10371000CDE900100BA10D48FFF77AFD044654B91E
:1037200000BF502080F31188BFF34F8FBFF36F8F1E
:1037300000BF00BFFEE720461CBD00009400002033
:1037400098000020546D72205376630051250008C4
:103750007037000800000020CC000000741300083F
:103760003C380008CC0000203431010084130008EC
:103770000000000001020304010203040607080917
:10378000007A030A000000000000000001020304A8
:1037900006070809AAAAAAAA000000000000000063
:1037A0000000000000000000000000000000000019
:1037B0000000000000000000000000000000000009
:1037C00000000000000000000000000000000000F9
:1037D00000000000000000000000000000000000E9
:1037E00000000000000000000000000000000000D9
:1037F00000000000040000000000000000000000C5
:1038000000000000000000000000000000000000B8
:103810000000000000000000010000000000204146
:103820000000000000000000000000000000000098
:0C3830000000000000000000000000008C
:04000005080002618C
:00000001FF
