:020000040800F2
:1000000050040020A1010008750C0008790A0008BE
:10001000710C0008050700086B17000800000000BD
:10002000000000000000000000000000B50F000804
:10003000A507000800000000290D0008691200084B
:10004000BB010008BB010008BB010008BB010008A0
:10005000BB010008BB010008BB010008BB01000890
:10006000BB010008BB010008BB010008BB01000880
:10007000BB010008BB010008BB010008BB01000870
:10008000BB010008BB010008BB010008BB01000860
:10009000BB010008BB010008BB010008A70700085E
:1000A000BB010008BB010008BB010008BB01000840
:1000B000D5120008BB010008ED120008BB010008C2
:1000C000BB010008BB010008BB010008BB01000820
:1000D000BB010008BB01000809150008291500082C
:1000E000BB010008BB010008BB010008BB01000800
:1000F000BB010008BB010008BB010008BB010008F0
:10010000BB010008BB01000815130008BB01000873
:10011000BB010008BB010008BB010008BB010008CF
:10012000BB010008BB010008BB010008BB010008BF
:10013000BB010008BB010008BB010008BB010008AF
:10014000BB010008BB010008BB010008BB0100089F
:10015000BB010008BB010008BB010008BB0100088F
:10016000BB010008BB010008BB010008BB0100087F
:10017000BB010008BB010008BB010008BB0100086F
:10018000BB010008BB010008DFF810D000F01AFA2C
:100190000048004751240008AFF3008050040020BD
:1001A0000648804706480047FEE7FEE7FEE7FEE711
:1001B000FEE7FEE7FEE7FEE7FEE7FEE76D1200085A
:1001C0008901000830B50B46014600202022012499
:1001D00009E021FA02F59D4205D303FA02F5491B15
:1001E00004FA02F52844151EA2F10102F1DC30BD2B
:1001F0002DE9F05F0546002092469B46884606465C
:10020000814640241BE0284641464746224600F0EE
:10021000FAF953465A46C01A914110D3114618466E
:10022000224600F0E1F92D1A67EB01084F462246FD
:100230000120002100F0D8F917EB00094E41201EE3
:10024000A4F10104DFDC484631462A464346BDE8B6
:10025000F09F2DE9FE4F804681EA0300C00F0C4657
:10026000009021F0004123F00045B8EB0200A941C5
:1002700005D24046214690461C460B46024623F0D6
:100280000040104347D0270DC7F30A00C3F30A51BB
:100290000290401A019040286BDAC3F3130040F437
:1002A000801B0098924620B10023D2EB030A63EB37
:1002B0000B0B01985946C0F14002504600F094F9EA
:1002C00006460D4650465946019A00F0ACF910EB2F
:1002D00008006141002487EA115284EAE7731A4357
:1002E00040D0009A62B3019A012A4FEA075215DC06
:1002F000001B61EB02014FF0004202EA0752CDE918
:100300000042001C41F5801132462B4600F0ACF94A
:1003100003B0BDE8F08F40462146F9E7001B61EBD2
:100320000201001C41F5801300185B412018A2F562
:10033000001747EB030140EAD570B6196D4111E093
:100340006D084FEA360645EAC0754FEA0752001BB2
:1003500061EB0201001C41F5801149084FEA3000B1
:100360000019514132462B4603B0BDE8F04F00F072
:100370006CB90098012240000023D0EB020263EB2D
:10038000E073009821464FEAE074B8EB000061EB9F
:100390000401E9E783F000435BE781F0004158E79F
:1003A0002DE9FE4F81EA030404F0004421F00041EE
:1003B00000944FF0000B23F0004350EA01045ED09C
:1003C00052EA03045BD0C3F30A54C1F30A552C4428
:1003D000A4F2F3340194A0FB0254C1F3130141F4DD
:1003E0008011C3F3130343F4801301FB024400FBA9
:1003F000034E840A970A44EA815447EA8357A4FBD0
:10040000076802958D0A05FB07854FEA932C04FBCC
:100410000C542705029D4FEA065847EA1637B5EBFC
:1004200008056EEB070C870E920E47EA811742EA29
:100430008312A7FB0201B6EB0B0164EB00042B0D4A
:1004400043EA0C335E1844EB1C50DA465146E7FB96
:100450000201C5F313044FEA0B3343EA14534FEA86
:100460000432019C43EA0603A4F10C040294009CAC
:10047000CDE900B400F0F8F803B0BDE8F08F00203B
:100480000146F9E72DE9F04D81EA030404F0004B41
:1004900021F0004514464FF0000A23F0004150EAD5
:1004A000050220D054EA01021DD0C5F30A570246C6
:1004B000C5F31303C1F31300C1F30A5640F48015CA
:1004C00043F48013A7EB0608101BD64608F2FD384C
:1004D00073EB050002D308F1010801E092185B41BB
:1004E000B8F1000F03DA00200146BDE8F08D0020CE
:1004F0004FF48011064684460EE0171B73EB050788
:1005000005D3121B63EB050306434CEA010C4908B3
:100510004FEA300092185B4150EA0107EDD152EAF0
:10052000030012D082EA040083EA0501084305D0E3
:10053000101BAB4106D20122002306E000224FF03F
:10054000004302E06FF0010253101AEB06004CEB7F
:10055000085110EB0A0041EB0B01BDE8F04D00F033
:1005600074B8C1F30A52C1F3130140F2FF3341F4EE
:1005700080119A4202DA00200146704740F233436C
:100580009A42A2F2334202DC524200F03CB800F040
:100590002BB8000030B5041E71F1000404DB4FF0ED
:1005A0000044404264EB0101141E73F1000405DBBA
:1005B0001C464FF00043524263EB0403994208BFCC
:1005C000904230BD064C074D06E0E06840F0010364
:1005D00094E8070098471034AC42F6D3FFF7D8FDF3
:1005E0005426000874260008202A04DB203A00FA6A
:1005F00002F1002070479140C2F1200320FA03F37A
:10060000194390407047202A04DB203A21FA02F077
:100610000021704721FA02F3D040C2F1200291403C
:10062000084319467047202A06DBCB17203A41FAC7
:1006300002F043EAE07306E041FA02F3D040C2F16F
:100640002002914008431946704710B5141E73F1FB
:10065000000408DA401C41F1000192185B411A4382
:1006600001D120F0010010BD2DE9F04D92469B46CE
:1006700011B1B1FA81F202E0B0FA80F22032904674
:10068000FFF7B2FF04460F4640EA0A0041EA0B01B9
:1006900053465A46084313D0114653EA010019D075
:1006A000C8F140025046FFF7AEFF05460E465046E1
:1006B00059464246FFF798FF084305D0012004E061
:1006C00020463946BDE8F08D0020054346EAE07635
:1006D0002C4337430A986305E40AA0EB0800002284
:1006E000FD0A44EA47540A3002D500200146E9E7F2
:1006F000010510196941DDE9084500196941BDE8A6
:10070000F04DA2E700BFFEE710B501F025FD04485B
:1007100083794279017903A000F002FD10BD000049
:100720002A00002054696D653A2025643A25643A10
:1007300025640D0A0000000010B50021014800F0FA
:1007400015FE10BD000800401CB50121042000F07A
:10075000ADFB00208DF804004FF400500090022003
:100760008DF805006946024800F046F81CBD0000FF
:10077000000802401CB50121042000F097FB012075
:100780008DF8040000208DF806004FF40050009012
:1007900002208DF805006946014800F02DF81CBDC7
:1007A00000080240704710B54FF4807000F018F850
:1007B00048B100F001FB4FF4807000F005F84FF4F1
:1007C000807000F007F810BD014908607047000014
:1007D000143C01400149086070470000143C01408E
:1007E00001460020034A12680A400AB1012000E0D5
:1007F00000207047143C0140F0B50A460021002358
:10080000002400BF3DE0012505FA01F3156805EA63
:1008100003049C4234D105684F000326BE40B54313
:10082000056015794E00B5400668354305601579B9
:10083000012D02D01579022D16D185684F000326AF
:10084000BE40B543856055794E00B5408668354356
:100850008560456801268E40B543456045689679B8
:100860008E40B6B235434560C5684F000326BE4092
:10087000B543C560D5794E00B540C6683543C560FF
:10088000491C1029BFD3F0BDF0B5002300244D074B
:10089000ED0E02FA05F3CE1000F1200555F82650B2
:1008A0004E07F70E0F26BE40B543CF1000F12006CD
:1008B00046F82750CE1000F1200555F8265045EA9D
:1008C0000304CE1000F1200545F82640F0BD024695
:1008D000002013690B400BB1012000E0002070479D
:1008E0000A048261704781617047000010B500BF43
:1008F000094800884FF47A7100FB01F4074800F0C2
:1009000041FD04440020054924310860322001F0F3
:10091000ABFB204610BD000028000020000800406E
:1009200010B52DED048B002008EE100A00249FED79
:10093000220AF0EE408A9FED200AB0EE409A2DE0A8
:1009400001211E48FFF7CFFF1E2001F099FB012176
:100950001A48FFF7C5FF00F0D5F900BF022117487C
:10096000FFF7B5FF0028F9D0641C00BF022113482F
:10097000FFF7ADFF0128F9D0FFF7DEFEFFF7B6FF66
:1009800008EE100AB8EEC80ADFED0D0A80EE201A54
:10099000F0EE418A38EE890AB0EE409A052CCFD1AC
:1009A000B1EE040AC9EE000AF0EE608AB0EE680A01
:1009B000BDEC048B10BD000000000000000C0240E4
:1009C0000000684200B587B00121082000F05EFAFF
:1009D0000121082000F04AFA0120029002208DF83F
:1009E0000D0001208DF80C0000208DF80E0002A9EA
:1009F0001F48FFF701FF01211D48FFF771FF02208B
:100A0000029000208DF80C0002A91948FFF7F4FEAF
:100A10000121042000F03AFA40F2E730059053201B
:100A2000ADF810000020ADF81800ADF8120004A9D0
:100A3000104800F027FD01210E4800F091FC012232
:100A400011460C4800F0B2FC1E208DF80400002076
:100A50008DF805008DF8060001208DF8070001A82B
:100A600000F00AF90021034800F080FC07B000BD47
:100A7000000C02400008004000BFFEE72DE9F041F5
:100A8000054600240026A0460527002038490860B6
:100A9000012001F0F5FA00BF1BE007F0800018B15B
:100AA00001203449086002E000203249086001203A
:100AB00001F0E6FA00202F49083908607806070E91
:100AC000012001F0DDFA01202B49C1F8A801601CCA
:100AD000C4B2082CE1DB00241BE005F0800018B153
:100AE00001202449086002E000202249086001201A
:100AF00001F0C6FA00201F49083908606806050E93
:100B0000012001F0BDFA01201B49C1F8A801601CB9
:100B1000C4B2082CE1DB012001F0B2FA00241BE092
:100B20007006060E13488438006800F0FF080120A4
:100B300001F0A6FA00201049C1F8A801B8F1010F90
:100B400001D146F00106012001F09AFA012009497D
:100B500008390860601CC4B2082CE1DB012001F0F8
:100B60008FFA0120024908603046BDE8F08100009C
:100B700090014042B0014142000041422DE9F04164
:100B800005460E460024042700203649086001204F
:100B900001F076FA00BF1BE007F0800018B10120D9
:100BA0003149086002E000202F490860012001F06F
:100BB00067FA00202C49083908607806070E0120E2
:100BC00001F05EFA01202949C1F8A801601CC4B2F5
:100BD000082CE1DB00241BE005F0800018B10120A7
:100BE0002149086002E000201F490860012001F04F
:100BF00047FA00201C49083908606806050E0120E4
:100C000001F03EFA01201949C1F8A801601CC4B2E4
:100C1000082CE1DB00241BE006F0800018B1012065
:100C20001149086002E000200F490860012001F02E
:100C300027FA00200C49083908607006060E0120CA
:100C400001F01EFA01200949C1F8A801601CC4B2D4
:100C5000082CE1DB012001F013FA012001490860B2
:100C6000BDE8F08190014042B001414200004142A4
:100C700000BFFEE77047000070B5002100230F227F
:100C8000C4781CB3174C246804F4E064C4F5E06431
:100C9000C4F30721C1F10404E3B20A4144789C4043
:100CA000E1B28478144021430C07210E0E4C0578E4
:100CB0006155047804F01F050124AC4005786D11DE
:100CC000AD0005F1E025C5F8004109E0047804F025
:100CD0001F050124AC40054D0678761145F82640E5
:100CE00070BD00000CED00E000E400E080E100E0F9
:100CF00002490143024A1160704700000000FA05F2
:100D00000CED00E010B50021054800F0B9FB002013
:100D1000044908800121024800F028FB10BD0000B2
:100D200000080040280000207047000010B52DED9D
:100D3000028BFFF7F5FDB0EE408A1A4890ED000AED
:100D400030EE480AF0EE408AF5EEC08AF1EE10FA75
:100D500002D2B1EE680A01E0B0EE680AF0EE408A15
:100D6000B2EE040AF4EEC08AF1EE10FA10DD9FED47
:100D70000E0AB4EEC08AF1EE10FA09D20B480078E0
:100D8000012805D10AA000F0CBF90020074908701E
:100D9000044880ED008A012004490870BDEC028BF4
:100DA00010BD0000440000200000C84241000020A7
:100DB0004C6967687421000010B500242B20FFF7F0
:100DC0005DFE2849087000212920FFF7D7FE002189
:100DD0000220FFF7D3FE2348007800F01000C8B1CE
:100DE000B220FFF74BFE212814D1BF20FFF746FEAB
:100DF00035280FD1BA20FFF741FE0446002C05DD4F
:100E0000042C03DC10201849087006E01120164954
:100E1000087002E011201449087000212B20FFF710
:100E2000ADFE00211C20FFF7A9FE00212920FFF7BD
:100E3000A5FE00210220FFF7A1FE00212B20FFF7D5
:100E40009DFE0021BA20FFF799FE0021BC20FFF78C
:100E500095FE01210820FFF791FE00210820FFF7F1
:100E60008DFE10BD3A0000203E00002029B1064A48
:100E700012680243044B1A6004E0034A126882437A
:100E8000014B1A60704700003038024029B1064A11
:100E900012680243044B1A6004E0034A126882435A
:100EA000014B1A60704700004038024029B1064AE1
:100EB00012680243044B1A6004E0034A126882433A
:100EC000014B1A607047000044380240F0B5002121
:100ED00000220024022500260223324F3F6807F03B
:100EE0000C0121B1042905D0082937D105E02E4F86
:100EF000076036E02D4F076033E02A4F3F1F3F6801
:100F0000C7F38056274F3F1F3F6807F03F036EB17E
:100F1000264FB7FBF3F7DFF88CC0ACF1040CDCF81C
:100F200000C0CCF3881C07FB0CF40CE01E4FB7FB91
:100F3000F3F7DFF870C0ACF1040CDCF800C0CCF3C0
:100F4000881C07FB0CF4174F3F1F3F68C7F301478E
:100F50007F1C7D00B4FBF5F7076002E0124F0760CD
:100F600000BF00BF0F4F3F6807F0F0010909104FA5
:100F70007A5C0768D74047600A4F3F6807F4E05142
:100F8000890A0B4F7A5C4768D7408760054F3F68F6
:100F900007F46041490B064F7A5C4768D740C76049
:100FA000F0BD0000083802400024F40040787D01C4
:100FB000000000207047000000B58FB0012108201C
:100FC000FFF754FF072205215148FFF75DFC072278
:100FD00006214F48FFF758FC02208DF8380000200A
:100FE0008DF83A0020200D9001208DF83B00022062
:100FF0008DF839000DA94648FFF7FEFB02208DF859
:10100000380040200D900DA94148FFF7F5FB012164
:101010004804FFF73BFF4FF4E13009900020ADF8A2
:1010200030000C20ADF82E000020ADF82C00ADF8FB
:101030002A00ADF8280009A9364800F023FB012258
:1010400040F22551334800F0F7FA26208DF82000B1
:1010500001208DF823008DF821008DF8220008A8CA
:10106000FFF70AFE01212B4800F0A3FA01218804B2
:10107000FFF70CFF01210220FFF708FF4FF480600B
:10108000059002208DF819008DF8180005A9224856
:10109000FFF7B2FB4FF40060059002208DF81800B6
:1010A00005A91D48FFF7A8FB4FF4E130019000208F
:1010B000ADF80800ADF80A00ADF80C00ADF810006E
:1010C0000C20ADF80E0001A9144800F0DBFA012253
:1010D00040F22551114800F0AFFA012240F22441BC
:1010E0000E4800F0A9FA01210C4800F062FA27200E
:1010F0008DF81C0006208DF81D0000208DF81E00C4
:1011000001208DF81F0007A8FFF7B6FD0FB000BD46
:10111000000C02400044004000040240004800402F
:101120000FB400B59BB01DA8019002A8019A1C99AC
:1011300000F02EFB0020019002A800F013F81BB075
:101140005DF814FB10B504462146054800F009FB84
:1011500000BF8021024800F038FA0028F9D010BD05
:101160000044004070B50446002503E0605DFFF7D1
:10117000E9FF6D1C605D0028F8D170BD0CB5002042
:10118000019000903448006840F480303249086093
:1011900000BF3148006800F4003000900198401C06
:1011A0000190009818B90198B0F5A04FF1D12A48E4
:1011B000006800F4003010B10120009001E0002030
:1011C00000900098012846D123484030006840F044
:1011D00080502149403108602048006840F4404078
:1011E0001E4908601C48083000681B490831086027
:1011F0000846006840F4004008600846006840F473
:10120000A05008601648091F0860081F006840F0D9
:101210008070091F086000BF0F48006800F0007070
:101220000028F9D040F205700E4908600A480830DD
:10123000006820F00300084908310860084600688B
:1012400040F00200086000BF03480830006800F06A
:101250000C000828F8D10CBD003802400070004096
:1012600019544007003C02407047000010B5154873
:10127000006840F47000134908601348006840F0AB
:1012800001001149086000200F49083108600E482C
:1012900000680E4908400C4908600D48091D0860A7
:1012A000081F006820F48020091F086000200649FC
:1012B0000C310860FFF762FF4FF000600149803990
:1012C000086010BD88ED00E000380240FFFFF6FE28
:1012D0001030002410B50121880700F056F818B12D
:1012E0000121880700F03FF810BD000010B5012172
:1012F000064800F04AF840B10121044800F033F8F4
:1013000003480088401C0249088010BD00080040C6
:101310002800002010B50121094800F036F870B10E
:101320000121074800F01FF80649074801F022F99B
:10133000044802780448017804A0FFF7F1FE10BDCC
:10134000000C00403D0000203C00002054656D3A38
:1013500025640D0A48756D3A25640D0A00000000E9
:10136000CA4302827047CA430282704721B1028891
:1013700042F00102028004E002884FF6FE731A4038
:10138000028070470146486A704730B50246002027
:1013900000230024158A05EA0103958905EA010462
:1013A00013B10CB1012000E0002030BD1AB18389D7
:1013B0000B43838102E083898B4383817047000064
:1013C0001FB501210846FFF761FD42F20F70019041
:1013D00042F2CF00ADF800000020ADF80800ADF8F3
:1013E000020069464FF0804000F04CF80121880768
:1013F000FFF7B6FF012211469007FFF7D7FF1C2029
:101400008DF80C0000208DF80D008DF80E000120E5
:101410008DF80F0003A8FFF72FFC01218807FFF7C5
:10142000A5FF01210820FFF731FD1348019042F28A
:10143000CF00ADF800000020ADF80800ADF80200C4
:1014400069460E4800F01EF801210C48FFF788FF9E
:10145000012211460948FFF7A9FF32208DF80C0040
:1014600000208DF80D0001208DF80E008DF80F0082
:1014700003A8FFF701FC1FBD9F860100000C004080
:101480004162704700220288184B98420ED0184BD8
:1014900098420BD0B0F1804F08D0164B984205D03F
:1014A000154B984202D0154B984204D14FF68F73DA
:1014B0001A404B881A43124B984207D0114B98425E
:1014C00004D04FF6FF431A400B891A4302804B6841
:1014D000C3620B880385054B984202D0044B9842A7
:1014E00001D18B7A0386012383827047000001407B
:1014F000000401400004004000080040000C0040CF
:10150000001000400014004010B52021054800F0F4
:101510005CF8012804D140F22551024800F03AF865
:1015200010BD00000044004010B540F225511148A4
:1015300000F058F870B10F4800F00EF9C4B2232C37
:1015400002D10DA000F014F940F22551094800F035
:1015500021F80DE040F22441064800F043F838B18C
:1015600006A000F005F940F22441024800F012F80C
:1015700010BD000000480040504300005265636504
:101580006976652061206672616D652064617461B1
:101590002E20000010B50022002340F66A14A1425C
:1015A00000D100BF0A1201249440A3B2DC4304809E
:1015B00010BD21B1828942F40052828104E0828907
:1015C0004DF6FF731A408281704702460020B1F544
:1015D000007F00D100BF13880B400BB1012000E059
:1015E0000020704770B5024600240023002500202B
:1015F00040F66A16B14200D100BFC1F3421501F0B6
:101600001F03012606FA03F3012D02D19689334008
:1016100006E0022D02D1168A334001E0968A33405B
:101620000C12012606FA04F41688344013B10CB1EA
:10163000012000E0002070BDF0B503460024002624
:101640000025002040F66A17B94200D100BF1846B5
:10165000C1F3421401F01F06012707FA06F5012C19
:1016600001D10C3004E0022C01D1103000E0143024
:101670001AB107682F43076002E00768AF430760AD
:10168000F0BD00002DE9FF4705460E460024A146A7
:1016900000BFA046B08900B100BF2C8A24F440549A
:1016A000F08804432C82AC8941F20C608443B088FA
:1016B00031890843718908430443AC81AC8A24F41E
:1016C0004074B0890443AC826846FFF7FFFB2048B2
:1016D000854202D01F48854202D1DDF80C9001E01E
:1016E000DDF80890A88900F4004040B109EBC9007A
:1016F00000EB091031684900B0FBF1F707E009EB96
:10170000C90000EB091031688900B0FBF1F76420D3
:10171000B7FBF0F004012009642101FB1078A889CF
:1017200000F4004040B1322000EBC800B0FBF1F003
:1017300000F00700044308E0322000EB08106421A9
:10174000B0FBF1F000F00F0004432C81BDE8FF87EF
:10175000001001400014014001468888C0F30800D1
:101760007047C1F308028280704700BFFEE70000A7
:101770000FB4054B10B503A9044A029800F0ECF829
:1017800010BC5DF814FB0000412400084800002054
:1017900037B514460846064B6A46214600F0DCF889
:1017A00004466946002000F05AFC20463EBD000079
:1017B0005F20000802E008C8121F08C1002AFAD101
:1017C00070477047002001E001C1121F002AFBD1C1
:1017D000704700002DE9FF5F82B00021DDE9043091
:1017E000020DDDF840B0034318D044F61050A2F2C9
:1017F000FF3242431514119801281FD0A5EB0B00AE
:10180000401C5FEA000A4FF000064E4FDFF83891A7
:10181000B046504615D5CAF1000413E011980124D2
:101820004AA3012801D16FEA0B010298119AC0E97D
:101830000031C0E9024206B0BDE8F09FCBF10000E4
:10184000DFE704460021404A491842EB0450CDE945
:10185000001012E0E00707D032463B4640464946BA
:10186000FEF79EFD8046894632463B4610461946A5
:10187000FEF796FD06460F466410002CEAD1DDE91E
:101880000401DDE90023BAF1000F06DAFEF788FD56
:1018900042464B46FEF784FD05E0FEF7F3FD424667
:1018A0004B46FEF7EFFD04460E460022284BFEF79E
:1018B00071FE03D84FF0FF30014607E00022254BB0
:1018C00020463146FEF7C5FCFEF74BFE102409E02A
:1018D000002C0ADB0A220023FEF78AFC039B30322D
:1018E0001A55641E50EA0102F2D1641C039AC4F135
:1018F00011031444119A012A03D0012208430DD187
:101900000AE0084304D000204FF0110B119072E759
:10191000A3EB0B056D1E0DE05B4504DD4FF00002EF
:1019200005F1010504E003DA4FF00002A5F101051D
:10193000002AECD002981199C0E90231C0E90045B3
:1019400079E70000000014400000F03F3000000084
:101950000000F0430000E03F2DE9FF4F95B09A46AC
:10196000884606460025EEE1252877D10024274643
:10197000F94A0121039400E0044316F8013F203B9B
:1019800001FA03F01042F7D130782A2811D06FF015
:101990002F033078A0F13002092A16D8039A44F0B8
:1019A000020402EB820203EB42021044761C039015
:1019B000EFE758F8042B0392002A03DA504244F46C
:1019C0000054039044F00204761C30782E2816D17F
:1019D00016F8010F44F004042A280DD06FF02F02EE
:1019E0003078A0F13003092B09D807EB870302EB0D
:1019F0004303C718761CF3E758F8047B761C30784D
:101A00006C280FD006DC4C2817D068280DD06A2827
:101A100014D104E0742810D07A280FD10DE044F4DA
:101A200000140AE044F4801401E044F44014727895
:101A3000824202D104F58014761C761C3078662828
:101A40000BD013DC582877D009DC002875D0452846
:101A5000F6D04628F4D047281AD193E118E063283D
:101A600035D0642879D0652812D18BE1702873D0E5
:101A700008DC6728F1D069286FD06E280DD06F2858
:101A800006D1ACE073282CD0752874D0782853D0B8
:101A90005246179990476D1C54E1C4F30250022836
:101AA00009D003280DD0D8F8001004280DD00D60FF
:101AB00008F1040846E1D8F80010EA17C1E900521D
:101AC000F6E7D8F800100D80F2E70D70F0E718F88F
:101AD000041B8DF8001000208DF80100EB4601205A
:101AE00003E058F804BB4FF0FF3061074FF00001EE
:101AF00002D40DE009F101018946B9420FDA8145AE
:101B0000F8DB1BF809100029F4D108E009F1010104
:101B100089468142FADB1BF809100029F6D10398A7
:101B20005346A0EB090721463846179A00F080FA81
:101B3000284400EB090507E044E008E10DE01BF84C
:101B4000010B524617999047B9F10109F7D2534654
:101B500021463846179AF2E039E00A21C4F30252CE
:101B60004FF0000B0091022A06D058F8040BC11761
:101B7000032A09D00AE023E008F1070020F0070259
:101B8000F2E80201904605E000B2C117042A01D133
:101B900040B2C117002906DA0A460021404261EB33
:101BA00002012D2202E0220504D52B228DF804200B
:101BB000012203E0E20701D02022F7E7914657E037
:101BC0000A2100E010214FF0000B00910BE01021E2
:101BD0004FF0000B44F004040827009103E00820B4
:101BE0004FF0000B0090C4F30252022A05D058F8BF
:101BF000040B0021032A08D008E008F1070020F0B8
:101C00000702F2E80201904603E080B2042A00D104
:101C1000C0B24FF0000922072AD53278702A07D0C7
:101C2000DDF800C08CF0100C5CEA0B0C05D00EE067
:101C300040228DF80420012208E050EA010306D07A
:101C400030238DF804308DF8052002229146009B48
:101C500083F0080353EA0B030AD150EA010201D1D1
:101C6000620705D530228DF804204FF001097F1E50
:101C70003278582A04D039A20C920CAA02920BE0B6
:101C80003BA2F9E75B46009AFEF7B2FA0C9B9B5C1D
:101C9000029A521E0292137050EA0102F2D1029887
:101CA00004A9081A00F1200B600702D524F480343F
:101CB00000E001275F4502DDA7EB0B0000E00020FC
:101CC00000EB0B01009003984944401A0390E00395
:101CD00006D453462146179A039800F0A9F9054403
:101CE000002706E001A85246C05D179990476D1C79
:101CF0007F1C4F45F6DBE0030CD553462146179A6F
:101D0000039800F095F9054404E0302052461799F5
:101D100090476D1C0099481E00900029F5DC08E0F2
:101D20000298029952460078491C029117999047EF
:101D30006D1CBBF10001ABF1010BF1DC5BE100F0CC
:101D400065F90544761C307800287FF40DAE19B093
:101D50002846BDE8F08F00000928010030313233F9
:101D600034353637383961626364656600000000D7
:101D700030313233343536373839414243444546C1
:101D800000000000600700D4062708F1070020F0DB
:101D90000700F0E80223804603F0004C5FEA0C00E5
:101DA00001D097A009E0200501D596A005E0E00745
:101DB00001D095A001E0AFF24C001390307823F0F1
:101DC000004365280CD006DC452809D046281DD0E4
:101DD00047287FD13BE0662818D067287AD136E0C3
:101DE0000021112F01DB112000E0781CCDE900015A
:101DF00004A90CA8FFF7EEFCDDE90D010C9A4FF0E9
:101E0000000B07F10109109200914EE04FF00040E5
:101E10000097CDE9011004A90CA8FFF7DBFCDDE970
:101E20000D020C9B0F994FF0000B914610930092FE
:101E300011B9791C00EB0109B7EB090003D4C0F11B
:101E4000FF3B07F10109A9EB0700019042E0012FD8
:101E500000DA01270021112F01DD112000E03846B2
:101E6000CDE9000104A90CA8FFF7B4FCDDE90D01E0
:101E70000C9A00914FF0000BB946109221070FD435
:101E8000009A4A4503DA914601E0A9F10109B9F146
:101E9000010F05DD109AA9F10101515C3029F4D040
:101EA000B84202DA10F1040F03DA0121CDE9011082
:101EB00010E0002803DC8344A9EB000102E0411C90
:101EC000494500DD8946A0EB0B00401C01904FF016
:101ED00000400290200705D40198484502DB4FF0EE
:101EE000FF30019000208DF84B0002980DF14B0758
:101EF000B0F1004F25D002200C902B200D900298BD
:101F000000280CDA404202902D200D9007E00A21B3
:101F10000298FEF757F93031029007F8011D0C992D
:101F2000481E0C900029F2DC02980028EFD1791E9F
:101F30000D980870307800F0200040F0450007F858
:101F4000020D11A8C01BC01D02901398007800B1AB
:101F5000012000EB0901019801EBE07102980144B6
:101F60000398401A401E0390E00306D453462146CE
:101F7000179A039800F05CF805441398007818B19C
:101F80005246179990476D1CE00323D553462146CE
:101F9000179A039800F04CF805441BE0BBF1000FC2
:101FA00007DB0098584504DD1098179910F80B00CE
:101FB00001E0179930205246904701980BF1010B30
:101FC000401E05F10105019004D12E2052461799BB
:101FD00090476D1CB9F10001A9F10109DEDC05E0B3
:101FE00017F8010B5246179990476D1C0299481E2D
:101FF00002900029F4DC53462146179A03989EE686
:102000002D0000002B000000200000002DE9F04111
:10201000044600251E461746880404D405E03946C8
:102020002020B0476D1C641EF9D52846BDE8F0811C
:102030002DE9F041044600251E469046C80301D50F
:10204000302700E02027880404D505E041463846C3
:10205000B0476D1C641EF9D52846BDE8F0810A68BA
:10206000531C0B601070704700B5034603E04FF43B
:102070007A7000F005F8181EA3F10103F7D100BD36
:10208000A82141434FF0E0225161002191610521D7
:10209000116100BF4FF0E021096901F4803100298E
:1020A000F8D004214FF0E022116170471CB50121E6
:1020B0000420FEF7DBFE4FF48060009000208DF8D6
:1020C000040069460148FEF797FB1CBD000802406A
:1020D0001CB501210420FEF7C9FE4FF4806000907A
:1020E00002208DF8050001208DF8040000208DF8F5
:1020F000060069460448FEF77FFB4FF48061024802
:10210000FEF7EEFB1CBD00000008024010B50021E8
:102110008E2000F02FF90721802000F02BF90821F4
:10212000822000F027F90321842000F023F9012107
:10213000862000F01FF90121882000F01BF9022100
:102140008A2000F017F903218C2000F013F9802178
:102150008E2000F00FF910BD10B500F059F82A4894
:10216000007800F00F0028490978091101EB81017E
:1021700000EB4100254988712348407800F00F00AA
:1021800021494978C1F3021101EB810100EB4100C3
:102190001E4948711C48807800F00F001A49897860
:1021A000091101EB810100EB410018490871164843
:1021B000C07800F00F001449C978091101EB8101C2
:1021C00000EB41001149C8700F48007900F00F0082
:1021D0000D490979091101EB810100EB41000B491F
:1021E000887009484079C8710748807900F00F006D
:1021F00005498979091101EB810100EB410000F5E6
:10220000FA600249088010BD320000202A00002038
:1022100010B5812000F056F810490870832000F0B6
:1022200051F80E494870852000F04CF80B49887031
:10223000872000F047F80949C870892000F042F86B
:10224000064908718B2000F03DF8044948718D2043
:1022500000F038F80149887110BD000032000020FC
:102260001CB501210420FEF701FE4FF40060009030
:1022700002208DF8050001208DF8040000208DF863
:10228000060069460E48FEF7B7FA4FF400610C48A5
:10229000FEF726FB4FF48050009002208DF80500D9
:1022A00001208DF8040000208DF8060069460448DE
:1022B000FEF7A2FA4FF480510148FEF711FB1CBD56
:1022C000000802402DE9F04105462F460026002473
:1022D0004FF400612648FEF703FB4FF48051244879
:1022E000FEF7FEFA0320FFF7CBFE4FF40061204813
:1022F000FEF7F9FA0320FFF7C3FE384600F06CF84A
:10230000FFF7D4FE0220FFF7BBFE00BF1DE0022056
:10231000FFF7B6FE64104FF480511548FEF7E3FA5C
:102320000420FFF7ADFE4FF480511148FEF7D8FAB4
:102330000E20FFF7A5FE4FF480610D48FEF7C7FAA7
:1023400008B144F08004701CC6B2082EDFDB022006
:10235000FFF796FE4FF400610548FEF7C1FA4FF40F
:1023600080610348FEF7BCFA2046BDE8F08100001A
:10237000000802402DE9F04104460D4626462F464E
:102380004FF400611348FEF7ABFA4FF48051114847
:10239000FEF7A6FA012000F04BF84FF400610D485B
:1023A000FEF7A1FA022000F043F8304600F014F8DE
:1023B000384600F011F84FF400610648FEF790FA35
:1023C0004FF480510348FEF78BFA022000F030F8FA
:1023D000BDE8F0810008024070B50446FFF778FEC2
:1023E00000254FF480511148FEF77AFA00BF1AE039
:1023F0004FF480510D48FEF773FA04F0010028B144
:102400004FF480610948FEF76EFA04E04FF48061F2
:102410000648FEF765FA4FF480510448FEF763FA68
:102420006410681CC5B2082DE2DB70BD00080240D4
:10243000002100E0491CA82242438A42FAD8704792
:1024400070B504460D46E0B2FEF77CFE204670BD36
:1024500025480168481EB0F1807F00D31BE0481E6C
:102460004FF0E022506150170F22002807DA1307BF
:102470001D0E1E4B00F00F04241F1D5503E0130713
:102480001C0E1B4B1C5400BF00204FF0E02290613B
:102490000720106100BF4FF4A060FEF729FCFEF793
:1024A0008FFFFEF78FFAFFF7DBFEFFF72FFE00F03E
:1024B000ADF8FEF781FD0FA0FEF732FE12E0FEF749
:1024C00023F9FEF733FC0F490F4800F053F80D488D
:1024D00002780D4801780DA0FEF722FE4FF4FA7045
:1024E000FFF7C2FDEBE700001000002018ED00E050
:1024F00000E400E0496E69742046696E69736831D2
:10250000210000003D0000203C00002054656D3A91
:1025100025640D0A48756D3A25640D0A0000000017
:1025200070B5002400251FE000BF4FF40051104893
:10253000FEF7CDF90028F8D02820FFF7A1FD6006AE
:10254000040E4FF400510A48FEF7C1F9012801D1E9
:10255000601CC4B200BF4FF400510548FEF7B7F944
:102560000128F8D0681CC5B2082DDDDB204670BDFF
:10257000000802402DE9F04781468A4600F046F8FF
:102580004FF400511F48FEF7A2F9002837D100BFD1
:102590004FF400511B48FEF79AF90028F8D000BF0D
:1025A0004FF400511748FEF792F90128F8D0FFF7D1
:1025B000B7FF0446FFF7B4FF0546FFF7B1FF064635
:1025C000FFF7AEFF0746FFF7ABFF804600BF4FF4B3
:1025D00000510C48FEF77BF90028F8D06019304410
:1025E000384440450BD10848067047708470C57068
:1025F000007889F80000044880788AF80000BDE877
:10260000F0870000000802402400002010B5FEF70B
:10261000B1F84FF400510E48FEF765F90120FFF7BD
:102620002FFD4FF400510A48FEF75AF91420FFF726
:102630001BFD4FF400510648FEF755F91E20FFF729
:102640001FFDFEF781F80A20FFF71AFD10BD0000FC
:102650000008024074260008000000204C00000022
:10266000B4170008C02600084C0000200404000035
:10267000C417000800000000010203040102030463
:1026800006070809007A030A0000000000000000A5
:102690000102030406070809000000000000000012
:1026A000000000000000000000000000000000002A
:1026B00000000000000100000000204100000000B8
:04000005080001A14D
:00000001FF
