:020000040800F2
:1000000020040020A1010008E50D0008F308000805
:10001000E10D00084D070008C716000800000000A9
:10002000000000000000000000000000CD100008EB
:10003000AD07000800000000610E000889130008E9
:10004000BB010008BB010008BB010008BB010008A0
:10005000BB010008BB010008BB010008BB01000890
:10006000BB010008BB010008BB010008BB01000880
:10007000BB010008BB010008BB010008BB01000870
:10008000BB010008BB010008BB010008BB01000860
:10009000BB010008BB010008BB010008BB01000850
:1000A000BB010008BB010008BB010008BB01000840
:1000B000F5130008BB01000821140008BB0100086B
:1000C000BB010008BB010008BB010008BB01000820
:1000D000BB010008BB01000871140008911400085E
:1000E000AF070008BB010008BB010008BB01000806
:1000F000BB010008BB010008BB010008BB010008F0
:10010000BB010008BB010008BB010008BB010008DF
:10011000BB010008BB010008BB010008BB010008CF
:10012000BB010008BB010008BB010008BB010008BF
:10013000BB010008BB010008BB010008BB010008AF
:10014000BB010008BB010008BB010008BB0100089F
:10015000BB010008BB010008BB010008BB0100088F
:10016000BB010008BB010008BB010008BB0100087F
:10017000BB010008BB010008BB010008BB0100086F
:10018000BB010008BB010008DFF810D000F03EFA08
:10019000004800471B200008AFF300802004002027
:1001A0000648804706480047FEE7FEE7FEE7FEE711
:1001B000FEE7FEE7FEE7FEE7FEE7FEE78D13000839
:1001C0008901000840EA01039B0703D009E008C940
:1001D000121F08C0042AFAD203E011F8013B00F80C
:1001E000013B521EF9D27047D2B201E000F8012B58
:1001F000491EFBD270470022F6E710B513460A46A7
:1002000004461946FFF7F0FF204610BD30B50B46F7
:10021000014600202022012409E021FA02F59D4236
:1002200005D303FA02F5491B04FA02F52844151E0A
:10023000A2F10102F1DC30BD2DE9F05F054600209E
:1002400092469B4688460646814640241BE0284647
:1002500041464746224600F0FAF953465A46C01A2C
:10026000914110D311461846224600F0E1F92D1AAB
:1002700067EB01084F4622460120002100F0D8F923
:1002800017EB00094E41201EA4F10104DFDC4846B3
:1002900031462A464346BDE8F09F2DE9FE4F804691
:1002A00081EA0300C00F0C46009021F0004123F0CA
:1002B0000045B8EB0200A94105D2404621469046D0
:1002C0001C460B46024623F00040104347D0270D42
:1002D000C7F30A00C3F30A510290401A0190402864
:1002E0006BDAC3F3130040F4801B0098924620B1F0
:1002F0000023D2EB030A63EB0B0B01985946C0F1C4
:100300004002504600F094F906460D4650465946C4
:10031000019A00F0ACF910EB08006141002487EA73
:10032000115284EAE7731A4340D0009A62B3019AEB
:10033000012A4FEA075215DC001B61EB02014FF066
:10034000004202EA0752CDE90042001C41F580114B
:1003500032462B4600F0ACF903B0BDE8F08F4046C2
:100360002146F9E7001B61EB0201001C41F58013F7
:1003700000185B412018A2F5001747EB030140EA83
:10038000D570B6196D4111E06D084FEA360645EAA1
:10039000C0754FEA0752001B61EB0201001C41F5DA
:1003A000801149084FEA30000019514132462B466E
:1003B00003B0BDE8F04F00F06CB900980122400096
:1003C0000023D0EB020263EBE073009821464FEA72
:1003D000E074B8EB000061EB0401E9E783F000434F
:1003E0005BE781F0004158E72DE9FE4F81EA030405
:1003F00004F0004421F0004100944FF0000B23F082
:10040000004350EA01045ED052EA03045BD0C3F318
:100410000A54C1F30A552C44A4F2F3340194A0FB0E
:100420000254C1F3130141F48011C3F3130343F4E5
:10043000801301FB024400FB034E840A970A44EA3E
:10044000815447EA8357A4FB076802958D0A05FB90
:1004500007854FEA932C04FB0C542705029D4FEAB5
:10046000065847EA1637B5EB08056EEB070C870E02
:10047000920E47EA811742EA8312A7FB0201B6EB0C
:100480000B0164EB00042B0D43EA0C335E1844EBC4
:100490001C50DA465146E7FB0201C5F313044FEA4C
:1004A0000B3343EA14534FEA0432019C43EA060338
:1004B000A4F10C040294009CCDE900B400F0F8F81B
:1004C00003B0BDE8F08F00200146F9E72DE9F04DBB
:1004D00081EA030404F0004B21F0004514464FF07C
:1004E000000A23F0004150EA050220D054EA01023C
:1004F0001DD0C5F30A570246C5F31303C1F3130019
:10050000C1F30A5640F4801543F48013A7EB0608A4
:10051000101BD64608F2FD3873EB050002D308F134
:10052000010801E092185B41B8F1000F03DA0020E6
:100530000146BDE8F08D00204FF480110646844648
:100540000EE0171B73EB050705D3121B63EB0503C6
:1005500006434CEA010C49084FEA300092185B410F
:1005600050EA0107EDD152EA030012D082EA0400FA
:1005700083EA0501084305D0101BAB4106D20122D6
:10058000002306E000224FF0004302E06FF001027A
:1005900053101AEB06004CEB085110EB0A0041EB2C
:1005A0000B01BDE8F04D00F074B8C1F30A52C1F37D
:1005B000130140F2FF3341F480119A4202DA002025
:1005C0000146704740F233439A42A2F2334202DCC2
:1005D000524200F03CB800F02BB8000030B5041EC9
:1005E00071F1000404DB4FF00044404264EB010170
:1005F000141E73F1000405DB1C464FF00043524209
:1006000063EB0403994208BF904230BD064C074D8E
:1006100006E0E06840F0010394E8070098471034D2
:10062000AC42F6D3FFF7B4FD6C2400088C2400081C
:10063000202A04DB203A00FA02F1002070479140A2
:10064000C2F1200320FA03F3194390407047202A97
:1006500004DB203A21FA02F00021704721FA02F36C
:10066000D040C2F120029140084319467047202A29
:1006700006DBCB17203A41FA02F043EAE07306E0CA
:1006800041FA02F3D040C2F12002914008431946DA
:10069000704710B5141E73F1000408DA401C41F1D4
:1006A000000192185B411A4301D120F0010010BDF6
:1006B0002DE9F04D92469B4611B1B1FA81F202E06C
:1006C000B0FA80F220329046FFF7B2FF04460F46A0
:1006D00040EA0A0041EA0B0153465A46084313D048
:1006E000114653EA010019D0C8F140025046FFF705
:1006F000AEFF05460E46504659464246FFF798FF64
:10070000084305D0012004E020463946BDE8F08DBD
:100710000020054346EAE0762C4337430A986305F8
:10072000E40AA0EB08000022FD0A44EA47540A301C
:1007300002D500200146E9E7010510196941DDE90C
:10074000084500196941BDE8F04DA2E700BFFEE78A
:100750001CB50121022000F0FFFB00208DF80400F1
:100760004FF48070009002208DF805006946024821
:1007700000F046F81CBD0000000402401CB5012139
:10078000022000F0E9FB01208DF8040000208DF824
:1007900006004FF48070009002208DF80500694635
:1007A000014800F02DF81CBD00040240704710B550
:1007B0004FF4807000F018F848B100F053FB4FF48C
:1007C000807000F005F84FF4807000F007F810BD5D
:1007D0000149086070470000143C0140014908606D
:1007E00070470000143C014001460020034A126893
:1007F0000A400AB1012000E000207047143C01408B
:10080000F0B50A4600210023002400BF3DE0012589
:1008100005FA01F3156805EA03049C4234D1056822
:100820004F000326BE40B543056015794E00B54024
:100830000668354305601579012D02D01579022D22
:1008400016D185684F000326BE40B54385605579B3
:100850004E00B540866835438560456801268E4068
:10086000B5434560456896798E40B6B235434560DC
:10087000C5684F000326BE40B543C560D5794E001C
:10088000B540C6683543C560491C1029BFD3F0BDCB
:10089000F0B5002300244D07ED0E02FA05F3CE104B
:1008A00000F1200555F826504E07F70E0F26BE40E2
:1008B000B543CF1000F1200646F82750CE1000F1C6
:1008C000200555F8265045EA0304CE1000F1200516
:1008D00045F82640F0BD0246002013690B400BB1DD
:1008E000012000E0002070470A04826170478161A6
:1008F000704700BFFEE730B500210022002300BF93
:100900000BE0002206E0C82300BF1C1EA3F1010378
:10091000FBD1521C8242F6D3491C0529F1D330BDCC
:10092000002400201D49087036E01C48007810287B
:1009300015D003DC48B1012828D104E0112826D0C5
:10094000312823D100E000BF25E0012013490870C1
:1009500000F086FB10B93120104908701BE000F050
:10096000DDF80446A4F11100052809D2DFE800F003
:1009700003060705040004E003E002E001E000E0F4
:1009800000BF00BF00200549087004E000BF002040
:100990000249087000BF00BFC7E700001A0000202E
:1009A00070B5ADF5806D4FF49671B5A8FFF723FCD7
:1009B0004FF42F722C4906A8FFF704FC14222B4990
:1009C00001A8FFF7FFFB0126002445E000F091F8A5
:1009D00008B9002642E001A8015DC12000F062F9DB
:1009E0000021C32000F05EF90421082000F05AF92C
:1009F0000120FFF780FF0021082000F053F90120BB
:100A0000FFF779FF002516E004EBC40000EB0410AB
:100A100006A901EB4000405D00B90EE004EBC40004
:100A200000EB041006AA02EB4000415D052000F037
:100A300039F9681CC5B2322DE6DB00BF2946B92062
:100A400000F030F9FF21B22000F02CF9042137200A
:100A500000F028F9601CC4B2142CB7DB00BF30468C
:100A60000DF5806D70BD00009C2100085824000821
:100A700010B54321352000F015F909211C2000F0A4
:100A800011F92021BD2000F00DF90121082000F00E
:100A900009F90520FFF72FFF0021082000F002F9D7
:100AA0000520FFF728FF00F024F808B9002010BD4A
:100AB000FF21B22000F0F6F80621372000F0F2F80E
:100AC0000621372000F0EEF80520FFF714FF0B2178
:100AD0001C2000F0E7F81021292000F0E3F80021A5
:100AE000BD2000F0DFF80120E1E710B500F01CF8B0
:100AF00010BD70B5002500240BE0B22000F0B2F864
:100B0000212801D1012506E00A20FFF7F4FE601C30
:100B1000C4B20A2CF1DB00BF284670BD10B5C52059
:100B200000F0A0F810BD000010B5082019490870A9
:100B300000F032F80021BD2000F0B4F84821172061
:100B400000F0B0F80520FFF7D6FE80213C2000F031
:100B5000A9F807213E2000F0A5F8FF21382000F079
:100B6000A1F807213A2000F09DF80021402000F074
:100B700099F80821422000F095F80021442000F067
:100B800091F80821462000F08DF80120FFF7B3FE10
:100B900010BD00001600002010B5062000F062F81D
:100BA0003521172000F07EF80520FFF7A4FE06206F
:100BB00000F058F80321892000F074F80520FFF7B1
:100BC0009AFE4321CF2000F06DF80520FFF793FE39
:100BD0000221CB2000F066F82321112000F062F8FA
:100BE0001F480078402810D100211E2000F05AF83C
:100BF0000F21192000F056F818211B2000F052F8A0
:100C00002C211D2000F04EF80FE000211E2000F0E6
:100C100049F83F21192000F045F848211B2000F039
:100C200041F81F211D2000F03DF80520FFF763FE6D
:100C30000421CD2000F036F84C21172000F032F8C6
:100C40000120FFF758FE0021B92000F02BF84F21BA
:100C5000CF2000F027F8FF216F2000F023F810BD0F
:100C60001600002070B5044610210C48FFF73CFE2A
:100C70004FF400710A48FFF737FE052001F0D8F95C
:100C8000204601F0D5F9002001F0D2F905461021E7
:100C90000248FFF72CFE284670BD0000000002400D
:100CA0000008024070B505460C4610210A48FFF7BF
:100CB0001BFE4FF400710948FFF716FE042001F0F7
:100CC000B7F9284601F0B4F9204601F0B1F9102136
:100CD0000148FFF70CFE70BD000002400008024012
:100CE00010B54FF400513C48FFF701FE6420FFF7B8
:100CF00002FE4FF400513848FFF7F6FD6420FFF77D
:100D0000FAFD4FF400513448FFF7F1FD6420FFF77E
:100D1000F2FD10213148FFF7E7FD6420FFF7EBFDFE
:100D200010212E48FFF7E3FD6420FFF7E4FD0620C5
:100D3000FFF798FF044633213520FFF7B3FF552115
:100D40001B20FFF7AFFFAA21B320FFF7ABFF352031
:100D5000FFF788FF04461B20FFF784FF0446B320FB
:100D6000FFF780FF044600BF4FF400511A48FFF719
:100D7000BEFD6420FFF7BFFD4FF400511648FFF79A
:100D8000B3FD6420FFF7B7FD4FF400511248FFF7A1
:100D9000AEFD6420FFF7AFFD10211048FFF7A4FD62
:100DA0006420FFF7A8FD10210C48FFF7A0FD0620E6
:100DB000FFF758FF04466420FFF79DFD3520FFF73D
:100DC00051FF04461B20FFF74DFF0446B320FFF7F9
:100DD00049FF044600BF10BD000802400000024069
:100DE00000BFFEE77047000070B5002100230F220E
:100DF000C4781CB3174C246804F4E064C4F5E064C0
:100E0000C4F30721C1F10404E3B20A4144789C40D1
:100E1000E1B28478144021430C07210E0E4C057872
:100E20006155047804F01F050124AC4005786D116C
:100E3000AD0005F1E025C5F8004109E0047804F0B3
:100E40001F050124AC40054D0678761145F8264073
:100E500070BD00000CED00E000E400E080E100E087
:100E60007047000010B500242B20FFF7FBFE284937
:100E7000087000212920FFF715FF00210220FFF74D
:100E800011FF2348007800F01000C8B1B220FFF72E
:100E9000E9FE212814D1BF20FFF7E4FE35280FD149
:100EA000BA20FFF7DFFE0446002C05DD042C03DC2E
:100EB00010201849087006E011201649087002E059
:100EC00011201449087000212B20FFF7EBFE0021B0
:100ED0001C20FFF7E7FE00212920FFF7E3FE002199
:100EE0000220FFF7DFFE00212B20FFF7DBFE0021B1
:100EF000BA20FFF7D7FE0021BC20FFF7D3FE012167
:100F00000820FFF7CFFE00210820FFF7CBFE10BD21
:100F1000170000201A00002029B1064A1268024377
:100F2000044B1A6004E0034A12688243014B1A60C2
:100F3000704700003038024029B1064A1268024367
:100F4000044B1A6004E0034A12688243014B1A60A2
:100F5000704700004038024029B1064A1268024337
:100F6000044B1A6004E0034A12688243014B1A6082
:100F70007047000044380240F0B5002100220024F0
:100F8000022500260223324F3F6807F00C0121B1F1
:100F9000042905D0082937D105E02E4F076036E037
:100FA0002D4F076033E02A4F3F1F3F68C7F380563D
:100FB000274F3F1F3F6807F03F036EB1264FB7FB37
:100FC000F3F7DFF88CC0ACF1040CDCF800C0CCF314
:100FD000881C07FB0CF40CE01E4FB7FBF3F7DFF89F
:100FE00070C0ACF1040CDCF800C0CCF3881C07FB2B
:100FF0000CF4174F3F1F3F68C7F301477F1C7D006C
:10100000B4FBF5F7076002E0124F076000BF00BFB6
:101010000F4F3F6807F0F0010909104F7A5C07682D
:10102000D74047600A4F3F6807F4E051890A0B4FE9
:101030007A5C4768D7408760054F3F6807F4604196
:10104000490B064F7A5C4768D740C760F0BD000087
:10105000083802400024F40040787D0100000020A0
:1010600070B50024002500BF1DE0FFF73EFD6420A1
:10107000FFF741FCFFF794FC28B9FFF731FE32205F
:10108000FFF739FC0DE00A20FFF735FCFFF7F0FC15
:1010900028B9FFF725FE3220FFF72DFC01E00125DE
:1010A00003E0601CC4B2052CDFDB00BF284670BD26
:1010B0000246002013890B400BB1012000E0002004
:1010C00070470146888970478181704770470000EA
:1010D00000B58FB001210820FFF71EFF0722052170
:1010E0005348FFF7D5FB072206215148FFF7D0FBF5
:1010F00002208DF8380000208DF83A0020200D9055
:1011000001208DF83B0002208DF839000DA94848D8
:10111000FFF776FB02208DF8380040200D900DA9D6
:101120004348FFF76DFB01214804FFF705FF4FF42B
:10113000E13009900020ADF830000C20ADF82E0011
:101140000020ADF82C00ADF82A00ADF8280009A960
:10115000384800F045FA012240F22551354800F0A8
:1011600019FA26208DF8200001208DF823008DF833
:1011700021008DF8220008A8FFF736FE01212D4836
:1011800000F0C5F901218804FFF7D6FE01210220F5
:10119000FFF7D2FE01214805FFF7CEFE4FF4806035
:1011A000059002208DF819008DF8180005A9224835
:1011B000FFF726FB4FF40060059000208DF8180023
:1011C00005A91D48FFF71CFB4FF4E13001900020FA
:1011D000ADF80800ADF80A00ADF80C00ADF810004D
:1011E0000C20ADF80E0001A9144800F0F9F9012215
:1011F00040F22551114800F0CDF9012240F224417E
:101200000E4800F0C7F901210C4800F080F92720B2
:101210008DF81C0006208DF81D0000208DF81E00A2
:1012200001208DF81F0007A8FFF7DEFD0FB000BDFD
:10123000000C02400044004000040240004800400E
:101240000FB400B59BB01DA8019002A8019A1C998B
:1012500000F04CFA0020019002A800F013F81BB037
:101260005DF814FB10B504462146054800F027FA46
:1012700000BF8021024800F056F90028F9D010BDC7
:101280000044004070B50446002503E0605DFFF7B0
:10129000E9FF6D1C605D0028F8D170BD0CB5002021
:1012A000019000903448006840F480303249086072
:1012B00000BF3148006800F4003000900198401CE5
:1012C0000190009818B90198B0F5A04FF1D12A48C3
:1012D000006800F4003010B10120009001E000200F
:1012E00000900098012846D123484030006840F023
:1012F00080502149403108602048006840F4404057
:101300001E4908601C48083000681B490831086005
:101310000846006840F4004008600846006840F451
:10132000A05008601648091F0860081F006840F0B8
:101330008070091F086000BF0F48006800F000704F
:101340000028F9D040F205700E4908600A480830BC
:10135000006820F00300084908310860084600686A
:1013600040F00200086000BF03480830006800F049
:101370000C000828F8D10CBD003802400070004075
:1013800019544007003C02407047000010B5154852
:10139000006840F47000134908601348006840F08A
:1013A00001001149086000200F49083108600E480B
:1013B00000680E4908400C4908600D48091D086086
:1013C000081F006820F48020091F086000200649DB
:1013D0000C310860FFF762FF4FF00060014980396F
:1013E000086010BD88ED00E000380240FFFFF6FE07
:1013F0001030002410B50749074800F05FFE06488A
:10140000017806A0FFF71CFF0248017803A0FFF750
:1014100017FF10BD190000201800002025640000EF
:1014200010B50121064800F012F840B1012104482E
:1014300000F00AF803480088401C0249088010BDEB
:101440000008004014000020CA430282704730B5F3
:101450000246002000230024158A05EA010395892D
:1014600005EA010413B10CB1012000E0002030BDF9
:1014700010B52021054800F056F8012804D140F2AB
:101480002551024800F034F810BD0000004400402F
:1014900010B540F225510E4800F052F848B10C4802
:1014A00000F008F9C4B2232C11D10AA000F00EF903
:1014B0000DE040F22441064800F042F838B10448FB
:1014C00000880348001D008803A000F0FFF810BD4D
:1014D000004800405043000052656365697665200E
:1014E00061206672616D6520646174612E20000068
:1014F00010B50022002340F66A14A14200D100BFBB
:101500000A1201249440A3B2DC43048010BD21B12F
:10151000828942F40052828104E082894DF6FF7391
:101520001A408281704702460020B1F5007F00D149
:1015300000BF13880B400BB1012000E00020704772
:1015400070B50246002400230025002040F66A16EC
:10155000B14200D100BFC1F3421501F01F030126C3
:1015600006FA03F3012D02D19689334006E0022DDD
:1015700002D1168A334001E0968A33400C120126CC
:1015800006FA04F41688344013B10CB1012000E0CF
:10159000002070BDF0B50346002400260025002081
:1015A00040F66A17B94200D100BF1846C1F3421491
:1015B00001F01F06012707FA06F5012C01D10C30B6
:1015C00004E0022C01D1103000E014301AB1076899
:1015D0002F43076002E00768AF430760F0BD0000DB
:1015E0002DE9FF4705460E460024A14600BFA04650
:1015F000B08900B100BF2C8A24F44054F088044321
:101600002C82AC8941F20C608443B0883189084354
:10161000718908430443AC81AC8A24F44074B089D6
:101620000443AC826846FFF7A7FC2048854202D0FD
:101630001F48854202D1DDF80C9001E0DDF80890EA
:10164000A88900F4004040B109EBC90000EB091083
:1016500031684900B0FBF1F707E009EBC90000EB86
:10166000091031688900B0FBF1F76420B7FBF0F096
:1016700004012009642101FB1078A88900F40040CE
:1016800040B1322000EBC800B0FBF1F000F00700E1
:10169000044308E0322000EB08106421B0FBF1F0B5
:1016A00000F00F0004432C81BDE8FF8700100140CB
:1016B0000014014001468888C0F308007047C1F358
:1016C00008028280704700BFFEE700000FB4054BA0
:1016D00010B503A9044A029800F0ECF810BC5DF8BC
:1016E00014FB00000B2000081C00002037B5144636
:1016F0000846064B6A46214600F0DCF80446694677
:10170000002000F05AFC20463EBD0000BB1F000830
:1017100002E008C8121F08C1002AFAD170477047BA
:10172000002001E001C1121F002AFBD17047000018
:101730002DE9FF5F82B00021DDE90430020DDDF804
:1017400040B0034318D044F61050A2F2FF32424397
:101750001514119801281FD0A5EB0B00401C5FEA5F
:10176000000A4FF000064E4FDFF83891B046504661
:1017700015D5CAF1000413E0119801244AA30128E9
:1017800001D16FEA0B010298119AC0E90031C0E95A
:10179000024206B0BDE8F09FCBF10000DFE704464F
:1017A0000021404A491842EB0450CDE9001012E0F4
:1017B000E00707D032463B4640464946FEF714FE56
:1017C0008046894632463B4610461946FEF70CFED7
:1017D00006460F466410002CEAD1DDE90401DDE97C
:1017E0000023BAF1000F06DAFEF7FEFD42464B4633
:1017F000FEF7FAFD05E0FEF769FE42464B46FEF7AE
:1018000065FE04460E460022284BFEF7E7FE03D88D
:101810004FF0FF30014607E00022254B20463146BD
:10182000FEF73BFDFEF7C1FE102409E0002C0ADBA9
:101830000A220023FEF700FD039B30321A55641E76
:1018400050EA0102F2D1641C039AC4F1110314445A
:10185000119A012A03D0012208430DD10AE008435E
:1018600004D000204FF0110B119072E7A3EB0B0591
:101870006D1E0DE05B4504DD4FF0000205F1010532
:1018800004E003DA4FF00002A5F10105002AECD0D4
:1018900002981199C0E90231C0E9004579E70000DA
:1018A000000014400000F03F300000000000F04352
:1018B0000000E03F2DE9FF4F95B09A468846064666
:1018C0000025EEE1252877D100242746F94A012199
:1018D000039400E0044316F8013F203B01FA03F0B3
:1018E0001042F7D130782A2811D06FF02F033078CA
:1018F000A0F13002092A16D8039A44F0020402EB40
:10190000820203EB42021044761C0390EFE758F882
:10191000042B0392002A03DA504244F4005403904B
:1019200044F00204761C30782E2816D116F8010FE8
:1019300044F004042A280DD06FF02F023078A0F173
:101940003003092B09D807EB870302EB4303C718C1
:10195000761CF3E758F8047B761C30786C280FD09F
:1019600006DC4C2817D068280DD06A2814D104E072
:10197000742810D07A280FD10DE044F400140AE046
:1019800044F4801401E044F440147278824202D19D
:1019900004F58014761C761C307866280BD013DC96
:1019A000582877D009DC002875D04528F6D046287D
:1019B000F4D047281AD193E118E0632835D0642881
:1019C00079D0652812D18BE1702873D008DC6728A4
:1019D000F1D069286FD06E280DD06F2806D1ACE009
:1019E00073282CD0752874D0782853D05246179974
:1019F00090476D1C54E1C4F30250022809D003281B
:101A00000DD0D8F8001004280DD00D6008F104089E
:101A100046E1D8F80010EA17C1E90052F6E7D8F815
:101A200000100D80F2E70D70F0E718F8041B8DF838
:101A3000001000208DF80100EB46012003E058F86B
:101A400004BB4FF0FF3061074FF0000102D40DE0FE
:101A500009F101018946B9420FDA8145F8DB1BF82B
:101A600009100029F4D108E009F1010189468142F9
:101A7000FADB1BF809100029F6D103985346A0EBB6
:101A8000090721463846179A00F080FA284400EBEF
:101A9000090507E044E008E10DE01BF8010B5246A0
:101AA00017999047B9F10109F7D2534621463846B4
:101AB000179AF2E039E00A21C4F302524FF0000B0A
:101AC0000091022A06D058F8040BC117032A09D046
:101AD0000AE023E008F1070020F00702F2E8020123
:101AE000904605E000B2C117042A01D140B2C117E7
:101AF000002906DA0A460021404261EB02012D224C
:101B000002E0220504D52B228DF80420012203E0F7
:101B1000E20701D02022F7E7914657E00A2100E0D2
:101B200010214FF0000B00910BE010214FF0000B43
:101B300044F004040827009103E008204FF0000B54
:101B40000090C4F30252022A05D058F8040B002179
:101B5000032A08D008E008F1070020F00702F2E8A5
:101B60000201904603E080B2042A00D1C0B24FF0D7
:101B7000000922072AD53278702A07D0DDF800C084
:101B80008CF0100C5CEA0B0C05D00EE040228DF8B6
:101B90000420012208E050EA010306D030238DF82A
:101BA00004308DF8052002229146009B83F0080343
:101BB00053EA0B030AD150EA010201D1620705D5AD
:101BC00030228DF804204FF001097F1E3278582A08
:101BD00004D039A20C920CAA02920BE03BA2F9E7C6
:101BE0005B46009AFEF728FB0C9B9B5C029A521EF8
:101BF0000292137050EA0102F2D1029804A9081A65
:101C000000F1200B600702D524F4803400E00127A6
:101C10005F4502DDA7EB0B0000E0002000EB0B01AD
:101C2000009003984944401A0390E00306D45346B9
:101C30002146179A039800F0A9F90544002706E009
:101C400001A85246C05D179990476D1C7F1C4F45F7
:101C5000F6DBE0030CD553462146179A039800F0B3
:101C600095F9054404E030205246179990476D1CC1
:101C70000099481E00900029F5DC08E002980299BE
:101C800052460078491C0291179990476D1CBBF190
:101C90000001ABF1010BF1DC5BE100F065F90544FB
:101CA000761C307800287FF40DAE19B02846BDE8C8
:101CB000F08F0000092801003031323334353637D7
:101CC0003839616263646566000000003031323388
:101CD0003435363738394142434445460000000028
:101CE000600700D4062708F1070020F00700F0E89D
:101CF0000223804603F0004C5FEA0C0001D097A05D
:101D000009E0200501D596A005E0E00701D095A0E7
:101D100001E0AFF24C001390307823F000436528C7
:101D20000CD006DC452809D046281DD047287FD195
:101D30003BE0662818D067287AD136E00021112FC1
:101D400001DB112000E0781CCDE9000104A90CA8FA
:101D5000FFF7EEFCDDE90D010C9A4FF0000B07F1E7
:101D60000109109200914EE04FF000400097CDE93C
:101D7000011004A90CA8FFF7DBFCDDE90D020C9BA8
:101D80000F994FF0000B91461093009211B9791CF6
:101D900000EB0109B7EB090003D4C0F1FF3B07F1E9
:101DA0000109A9EB0700019042E0012F00DA0127A9
:101DB0000021112F01DD112000E03846CDE900019E
:101DC00004A90CA8FFF7B4FCDDE90D010C9A009101
:101DD0004FF0000BB946109221070FD4009A4A45E4
:101DE00003DA914601E0A9F10109B9F1010F05DD1E
:101DF000109AA9F10101515C3029F4D0B84202DAFD
:101E000010F1040F03DA0121CDE9011010E00028E0
:101E100003DC8344A9EB000102E0411C494500DDDD
:101E20008946A0EB0B00401C01904FF0004002904F
:101E3000200705D40198484502DB4FF0FF300190A0
:101E400000208DF84B0002980DF14B07B0F1004FC8
:101E500025D002200C902B200D90029800280CDA3F
:101E6000404202902D200D9007E00A210298FEF7D3
:101E7000CDF93031029007F8011D0C99481E0C90E5
:101E80000029F2DC02980028EFD1791E0D98087025
:101E9000307800F0200040F0450007F8020D11A84E
:101EA000C01BC01D02901398007800B1012000EB08
:101EB0000901019801EBE071029801440398401A6E
:101EC000401E0390E00306D453462146179A039818
:101ED00000F05CF805441398007818B15246179941
:101EE00090476D1CE00323D553462146179A03986B
:101EF00000F04CF805441BE0BBF1000F07DB009835
:101F0000584504DD1098179910F80B0001E0179957
:101F100030205246904701980BF1010B401E05F10D
:101F20000105019004D12E205246179990476D1C4F
:101F3000B9F10001A9F10109DEDC05E017F8010B98
:101F40005246179990476D1C0299481E029000292D
:101F5000F4DC53462146179A03989EE62D000000B4
:101F60002B000000200000002DE9F0410446002570
:101F70001E461746880404D405E039462020B047A1
:101F80006D1C641EF9D52846BDE8F0812DE9F041AD
:101F9000044600251E469046C80301D5302700E0C0
:101FA0002027880404D505E041463846B0476D1C1B
:101FB000641EF9D52846BDE8F0810A68531C0B6001
:101FC0001070704700B5034603E04FF47A7000F0DC
:101FD00005F8181EA3F10103F7D100BD00EBC00105
:101FE000C9004FF0E022516100219161052111618A
:101FF00000BF4FF0E021096901F480310029F8D0D9
:1020000004214FF0E0221161704770B504460D467F
:10201000E0B2FFF727F9204670BDFEF7AFFBFEF7F1
:1020200097FB00F097F8FFF753F8FEF779FC0000F4
:1020300010B5044600BF02210A48FFF739F800280E
:10204000F9D021460748FFF73FF800BF01210548B6
:10205000FFF72EF80028F9D00248FFF732F8C0B297
:1020600010BD0000003C004070B5002400251FE0BA
:1020700000BF4FF480711048FEF72DFC0028F8D007
:102080002820FFF7ABFF6006040E4FF480710A486A
:10209000FEF721FC012801D1601CC4B200BF4FF43F
:1020A00080710548FEF717FC0128F8D0681CC5B2FE
:1020B000082DDDDB204670BD000402402DE9F0470D
:1020C00081468A4600F046F84FF480711F48FEF7BB
:1020D00002FC002837D100BF4FF480711B48FEF787
:1020E000FAFB0028F8D000BF4FF480711748FEF7C4
:1020F000F2FB0128F8D0FFF7B7FF0446FFF7B4FF63
:102100000546FFF7B1FF0646FFF7AEFF0746FFF7AC
:10211000ABFF804600BF4FF480710C48FEF7DBFB3D
:102120000028F8D060193044384440450BD10848A5
:10213000067047708470C570007889F80000044804
:1021400080788AF80000BDE8F087000000040240B3
:102150001000002010B5FEF711FB4FF480710E48FF
:10216000FEF7C5FB0120FFF739FF4FF480710A48E5
:10217000FEF7BAFB1420FFF725FF4FF480710648E5
:10218000FEF7B5FB1E20FFF729FFFEF7E1FA0A2054
:10219000FFF724FF10BD0000000402407469616E67
:1021A000207169207A656E206D652079616E670007
:1021B000000000000000000000000000000000001F
:1021C00000000000000000000000000000006E6938
:1021D000206A69616F207368656E206D650000007C
:1021E00000000000000000000000000000000000EF
:1021F00000000000000000000000000000000000DF
:102200006E692073686920736865690000000000CA
:1022100000000000000000000000000000000000BE
:1022200000000000000000000000000000000000AE
:102230000000626F2066616E672079696E20797593
:102240006500000000000000000000000000000029
:10225000000000000000000000000000000000007E
:102260000000000074692067616F2079696E206C3E
:1022700069616E67000000000000000000000000BF
:10228000000000000000000000000000000000004E
:102290000000000000006A69616E672064692079AF
:1022A000696E206C69616E6700000000000000002C
:1022B000000000000000000000000000000000001E
:1022C00000000000000000006775616E2062692058
:1022D000686F6E672064656E670000000000000094
:1022E00000000000000000000000000000000000EE
:1022F000000000000000000000006775616E2062B1
:1023000069206C762064656E6700000000000000A4
:1023100000000000000000000000000000000000BD
:102320000000000000000000000000006775616E02
:10233000206269206C616E2064656E670000000099
:10234000000000000000000000000000000000008D
:1023500000000000000000000000000000006368B2
:10236000656E206D656E67206469652073686920FD
:1023700073686569000000000000000000000000B4
:10238000000000000000000000000000000000004D
:102390006368656E207869616E672078696E207366
:1023A0006869207368656900000000000000000093
:1023B000000000000000000000000000000000001D
:1023C000000079696E206C69616E6720746920670E
:1023D000616F00000000000000000000000000002D
:1023E00000000000000000000000000000000000ED
:1023F0000000000079696E206C69616E67206A696F
:10240000616E6720646100000000000000000000B1
:1024100000000000000000000000000000000000BC
:102420000000000000006775616E2062692073750E
:102430006F20796F752064656E67000000000000F2
:10244000000000000000000000000000000000008C
:1024500000000000000000001115151412133334A1
:10246000355A5B0739060000000000008C24000884
:10247000000000202000000010170008AC24000815
:1024800020000020000400002017000800000000C9
:10249000010203040102030406070809000000000A
:0C24A00000000000000000000000000030
:04000005080001A14D
:00000001FF
