:020000040800F2
:10000000F831012061020008B10E0008BB090008A8
:10001000AD0E00080D08000897170008000000004A
:100020000000000000000000000000009D1100081A
:1000300071080008000000002D0F00085914000886
:100040007B0200087B0200087B0200087B0200089C
:100050007B0200087B0200087B0200087B0200088C
:100060007B0200087B0200087B0200087B0200087C
:100070007B0200087B0200087B0200087B0200086C
:100080007B0200087B0200087B0200087B0200085C
:100090007B0200087B0200087B0200087B0200084C
:1000A0007B0200087B0200087B0200087B0200083C
:1000B000C51400087B020008F11400087B02000848
:1000C0007B0200087B0200087B0200087B0200081C
:1000D0007B0200087B02000841150008611500083A
:1000E000750800087B0200087B0200087B020008FC
:1000F0007B0200087B0200087B0200087B020008EC
:100100007B0200087B0200087B0200087B020008DB
:100110007B0200087B0200087B0200087B020008CB
:100120007B0200087B0200087B0200087B020008BB
:100130007B0200087B0200087B0200087B020008AB
:100140007B0200087B0200087B0200087B0200089B
:100150007B0200087B0200087B0200087B0200088B
:100160007B0200087B0200087B0200087B0200087B
:100170007B0200087B0200087B0200087B0200086B
:100180007B0200087B020008DFF810D000F09EFA26
:1001900000480047ED200008AFF30080F83101204F
:1001A0002C4B19680868B0E8F04F80F30988BFF35A
:1001B0006F8F4FF0000080F311887047000000003F
:1001C00008480068006880F308884FF0000080F35A
:1001D000148862B661B6BFF34F8FBFF36F8F00DF35
:1001E00000BF00BF08ED00E0DFF80C00016841F43B
:1001F00070010160704700BF88ED00E0EFF30980F7
:10020000BFF36F8F134B1A681EF0100F08BF20ED5D
:10021000108A20E9F04F106009B44FF0500080F3CD
:100220001188BFF34F8FBFF36F8F02F0B7FF4FF00E
:10023000000080F3118809BC19680868B0E8F04F25
:100240001EF0100F08BFB0EC108A80F30988BFF3CE
:100250006F8F704724000020EFF305807047000087
:100260000648804706480047FEE7FEE7FEE7FEE750
:10027000FEE7FEE7FEE7FEE7FEE7FEE75D140008A7
:100280008901000840EA01039B0703D009E008C97F
:10029000121F08C0042AFAD203E011F8013B00F84B
:1002A000013B521EF9D27047D2B201E000F8012B97
:1002B000491EFBD270470022F6E710B513460A46E6
:1002C00004461946FFF7F0FF204610BD30B50B4637
:1002D000014600202022012409E021FA02F59D4276
:1002E00005D303FA02F5491B04FA02F52844151E4A
:1002F000A2F10102F1DC30BD2DE9F05F05460020DE
:1003000092469B4688460646814640241BE0284686
:1003100041464746224600F0FAF953465A46C01A6B
:10032000914110D311461846224600F0E1F92D1AEA
:1003300067EB01084F4622460120002100F0D8F962
:1003400017EB00094E41201EA4F10104DFDC4846F2
:1003500031462A464346BDE8F09F2DE9FE4F8046D0
:1003600081EA0300C00F0C46009021F0004123F009
:100370000045B8EB0200A94105D24046214690460F
:100380001C460B46024623F00040104347D0270D81
:10039000C7F30A00C3F30A510290401A01904028A3
:1003A0006BDAC3F3130040F4801B0098924620B12F
:1003B0000023D2EB030A63EB0B0B01985946C0F103
:1003C0004002504600F094F906460D465046594604
:1003D000019A00F0ACF910EB08006141002487EAB3
:1003E000115284EAE7731A4340D0009A62B3019A2B
:1003F000012A4FEA075215DC001B61EB02014FF0A6
:10040000004202EA0752CDE90042001C41F580118A
:1004100032462B4600F0ACF903B0BDE8F08F404601
:100420002146F9E7001B61EB0201001C41F5801336
:1004300000185B412018A2F5001747EB030140EAC2
:10044000D570B6196D4111E06D084FEA360645EAE0
:10045000C0754FEA0752001B61EB0201001C41F519
:10046000801149084FEA30000019514132462B46AD
:1004700003B0BDE8F04F00F06CB9009801224000D5
:100480000023D0EB020263EBE073009821464FEAB1
:10049000E074B8EB000061EB0401E9E783F000438E
:1004A0005BE781F0004158E72DE9FE4F81EA030444
:1004B00004F0004421F0004100944FF0000B23F0C1
:1004C000004350EA01045ED052EA03045BD0C3F358
:1004D0000A54C1F30A552C44A4F2F3340194A0FB4E
:1004E0000254C1F3130141F48011C3F3130343F425
:1004F000801301FB024400FB034E840A970A44EA7E
:10050000815447EA8357A4FB076802958D0A05FBCF
:1005100007854FEA932C04FB0C542705029D4FEAF4
:10052000065847EA1637B5EB08056EEB070C870E41
:10053000920E47EA811742EA8312A7FB0201B6EB4B
:100540000B0164EB00042B0D43EA0C335E1844EB03
:100550001C50DA465146E7FB0201C5F313044FEA8B
:100560000B3343EA14534FEA0432019C43EA060377
:10057000A4F10C040294009CCDE900B400F0F8F85A
:1005800003B0BDE8F08F00200146F9E72DE9F04DFA
:1005900081EA030404F0004B21F0004514464FF0BB
:1005A000000A23F0004150EA050220D054EA01027B
:1005B0001DD0C5F30A570246C5F31303C1F3130058
:1005C000C1F30A5640F4801543F48013A7EB0608E4
:1005D000101BD64608F2FD3873EB050002D308F174
:1005E000010801E092185B41B8F1000F03DA002026
:1005F0000146BDE8F08D00204FF480110646844688
:100600000EE0171B73EB050705D3121B63EB050305
:1006100006434CEA010C49084FEA300092185B414E
:1006200050EA0107EDD152EA030012D082EA040039
:1006300083EA0501084305D0101BAB4106D2012215
:10064000002306E000224FF0004302E06FF00102B9
:1006500053101AEB06004CEB085110EB0A0041EB6B
:100660000B01BDE8F04D00F074B8C1F30A52C1F3BC
:10067000130140F2FF3341F480119A4202DA002064
:100680000146704740F233439A42A2F2334202DC01
:10069000524200F03CB800F02BB8000030B5041E08
:1006A00071F1000404DB4FF00044404264EB0101AF
:1006B000141E73F1000405DB1C464FF00043524248
:1006C00063EB0403994208BF904230BD064C074DCE
:1006D00006E0E06840F0010394E807009847103412
:1006E000AC42F6D3FFF754FDDC3E0008FC3E0008A8
:1006F000202A04DB203A00FA02F1002070479140E2
:10070000C2F1200320FA03F3194390407047202AD6
:1007100004DB203A21FA02F00021704721FA02F3AB
:10072000D040C2F120029140084319467047202A68
:1007300006DBCB17203A41FA02F043EAE07306E009
:1007400041FA02F3D040C2F1200291400843194619
:10075000704710B5141E73F1000408DA401C41F113
:10076000000192185B411A4301D120F0010010BD35
:100770002DE9F04D92469B4611B1B1FA81F202E0AB
:10078000B0FA80F220329046FFF7B2FF04460F46DF
:1007900040EA0A0041EA0B0153465A46084313D087
:1007A000114653EA010019D0C8F140025046FFF744
:1007B000AEFF05460E46504659464246FFF798FFA3
:1007C000084305D0012004E020463946BDE8F08DFD
:1007D0000020054346EAE0762C4337430A98630538
:1007E000E40AA0EB08000022FD0A44EA47540A305C
:1007F00002D500200146E9E7010510196941DDE94C
:10080000084500196941BDE8F04DA2E700BFFEE7C9
:10081000704700001CB50121022000F005FC0020FB
:100820008DF804004FF48070009002208DF80500D0
:100830006946024800F048F81CBD00000004024070
:100840001CB50121022000F0EFFB01208DF804000F
:1008500000208DF806004FF48070009002208DF883
:1008600005006946014800F02FF81CBD0004024055
:100870007047704710B54FF4807000F019F848B118
:1008800000F058FB4FF4807000F006F84FF48070D1
:1008900000F008F810BD0000014908607047000032
:1008A000143C01400149086070470000143C0140BD
:1008B00001460020034A12680A400AB1012000E004
:1008C00000207047143C0140F0B50A460021002387
:1008D000002400BF3DE0012505FA01F3156805EA93
:1008E00003049C4234D105684F000326BE40B54343
:1008F000056015794E00B5400668354305601579E9
:10090000012D02D01579022D16D185684F000326DE
:10091000BE40B543856055794E00B5408668354385
:100920008560456801268E40B543456045689679E7
:100930008E40B6B235434560C5684F000326BE40C1
:10094000B543C560D5794E00B540C6683543C5602E
:10095000491C1029BFD3F0BDF0B5002300244D077A
:10096000ED0E02FA05F3CE1000F1200555F82650E1
:100970004E07F70E0F26BE40B543CF1000F12006FC
:1009800046F82750CE1000F1200555F8265045EACC
:100990000304CE1000F1200545F82640F0BD0246C4
:1009A000002013690B400BB1012000E000207047CC
:1009B0000A04826170478161704700BFFEE7000052
:1009C000002400201D49087036E01C4800781028DB
:1009D00015D003DC48B1012828D104E0112826D025
:1009E000312823D100E000BF25E001201349087021
:1009F00000F09EFB10B93120104908701BE000F098
:100A0000F3F80446A4F11100052809D2DFE800F04C
:100A100003060705040004E003E002E001E000E053
:100A200000BF00BF00200549087004E000BF00209F
:100A30000249087000BF00BFC7E70000BE000020E9
:100A400030B500210022002300BF0BE0002206E0A9
:100A5000C82300BF1C1EA3F10103FBD1521C82421C
:100A6000F6D3491C0529F1D330BD000070B5ADF5B2
:100A7000806D4FF49671B5A8FFF71DFC4FF42F72EF
:100A80002C4906A8FFF7FEFB14222B4901A8FFF70B
:100A9000F9FB0126002445E000F091F808B9002692
:100AA00042E001A8015DC12000F062F90021C320ED
:100AB00000F05EF90421082000F05AF90120FFF748
:100AC000BFFF0021082000F053F90120FFF7B8FF15
:100AD000002516E004EBC40000EB041006A901EBAE
:100AE0004000405D00B90EE004EBC40000EB0410D0
:100AF00006AA02EB4000415D052000F039F9681CB0
:100B0000C5B2322DE6DB00BF2946B92000F030F92E
:100B1000FF21B22000F02CF90421372000F028F941
:100B2000601CC4B2142CB7DB00BF30460DF5806DDD
:100B300070BD00000C3C0008C83E000810B5432101
:100B4000352000F015F909211C2000F011F92021B1
:100B5000BD2000F00DF90121082000F009F9052061
:100B6000FFF76EFF0021082000F002F90520FFF7D3
:100B700067FF00F024F808B9002010BDFF21B22063
:100B800000F0F6F80621372000F0F2F806213720B1
:100B900000F0EEF80520FFF753FF0B211C2000F0BA
:100BA000E7F81021292000F0E3F80021BD2000F033
:100BB000DFF80120E1E710B500F01CF810BD70B5BA
:100BC000002500240BE0B22000F0B2F8212801D16A
:100BD000012506E00A20FFF733FF601CC4B20A2C8F
:100BE000F1DB00BF284670BD10B5C52000F0A0F8AD
:100BF00010BD000010B508201949087000F032F847
:100C00000021BD2000F0B4F84821172000F0B0F812
:100C10000520FFF715FF80213C2000F0A9F80721EF
:100C20003E2000F0A5F8FF21382000F0A1F80721B0
:100C30003A2000F09DF80021402000F099F80821AA
:100C4000422000F095F80021442000F091F808219E
:100C5000462000F08DF80120FFF7F2FE10BD0000E5
:100C6000A600002010B5062000F062F835211720FC
:100C700000F07EF80520FFF7E3FE062000F058F8AC
:100C80000321892000F074F80520FFF7D9FE4321E5
:100C9000CF2000F06DF80520FFF7D2FE0221CB2017
:100CA00000F066F82321112000F062F81F48007858
:100CB000402810D100211E2000F05AF80F211920E1
:100CC00000F056F818211B2000F052F82C211D20AE
:100CD00000F04EF80FE000211E2000F049F83F21FF
:100CE000192000F045F848211B2000F041F81F2191
:100CF0001D2000F03DF80520FFF7A2FE0421CD20C5
:100D000000F036F84C21172000F032F80120FFF7F0
:100D100097FE0021B92000F02BF84F21CF2000F0E2
:100D200027F8FF216F2000F023F810BDA600002057
:100D300070B5044610210C48FFF73AFE4FF40071DD
:100D40000A48FFF735FE052001F086FF204601F036
:100D500083FF002001F080FF054610210248FFF7C5
:100D60002AFE284670BD0000000002400008024034
:100D700070B505460C4610210A48FFF719FE4FF4DE
:100D800000710948FFF714FE042001F065FF2846B2
:100D900001F062FF204601F05FFF10210148FFF7DC
:100DA0000AFE70BD000002400008024010B54FF47A
:100DB00000513C48FFF7FFFD6420FFF741FE4FF470
:100DC00000513848FFF7F4FD6420FFF739FE4FF477
:100DD00000513448FFF7EFFD6420FFF731FE10218A
:100DE0003148FFF7E5FD6420FFF72AFE10212E4869
:100DF000FFF7E1FD6420FFF723FE0620FFF798FFD1
:100E0000044633213520FFF7B3FF55211B20FFF7A0
:100E1000AFFFAA21B320FFF7ABFF3520FFF788FF14
:100E200004461B20FFF784FF0446B320FFF780FF32
:100E3000044600BF4FF400511A48FFF7BCFD642080
:100E4000FFF7FEFD4FF400511648FFF7B1FD642097
:100E5000FFF7F6FD4FF400511248FFF7ACFD642098
:100E6000FFF7EEFD10211048FFF7A2FD6420FFF709
:100E7000E7FD10210C48FFF79EFD0620FFF758FF05
:100E800004466420FFF7DCFD3520FFF751FF0446E0
:100E90001B20FFF74DFF0446B320FFF749FF044630
:100EA00000BF10BD000802400000024000BFFEE786
:100EB0007047000070B5002100230F22C4781CB3D6
:100EC000174C246804F4E064C4F5E064C4F307211B
:100ED000C1F10404E3B20A4144789C40E1B2847851
:100EE000144021430C07210E0E4C057861550478FF
:100EF00004F01F050124AC4005786D11AD0005F12B
:100F0000E025C5F8004109E0047804F01F0501243C
:100F1000AC40054D0678761145F8264070BD0000BE
:100F20000CED00E000E400E080E100E07047704775
:100F30007047000010B500242B20FFF7F9FE284968
:100F4000087000212920FFF713FF00210220FFF77E
:100F50000FFF2348007800F01000C8B1B220FFF75F
:100F6000E7FE212814D1BF20FFF7E2FE35280FD17C
:100F7000BA20FFF7DDFE0446002C05DD042C03DC5F
:100F800010201849087006E011201649087002E088
:100F900011201449087000212B20FFF7E9FE0021E1
:100FA0001C20FFF7E5FE00212920FFF7E1FE0021CC
:100FB0000220FFF7DDFE00212B20FFF7D9FE0021E4
:100FC000BA20FFF7D5FE0021BC20FFF7D1FE01219A
:100FD0000820FFF7CDFE00210820FFF7C9FE10BD55
:100FE000A7000020BE00002029B1064A1268024373
:100FF000044B1A6004E0034A12688243014B1A60F2
:10100000704700003038024029B1064A1268024396
:10101000044B1A6004E0034A12688243014B1A60D1
:10102000704700004038024029B1064A1268024366
:10103000044B1A6004E0034A12688243014B1A60B1
:101040007047000044380240F0B50021002200241F
:10105000022500260223324F3F6807F00C0121B120
:10106000042905D0082937D105E02E4F076036E066
:101070002D4F076033E02A4F3F1F3F68C7F380566C
:10108000274F3F1F3F6807F03F036EB1264FB7FB66
:10109000F3F7DFF88CC0ACF1040CDCF800C0CCF343
:1010A000881C07FB0CF40CE01E4FB7FBF3F7DFF8CE
:1010B00070C0ACF1040CDCF800C0CCF3881C07FB5A
:1010C0000CF4174F3F1F3F68C7F301477F1C7D009B
:1010D000B4FBF5F7076002E0124F076000BF00BFE6
:1010E0000F4F3F6807F0F0010909104F7A5C07685D
:1010F000D74047600A4F3F6807F4E051890A0B4F19
:101100007A5C4768D7408760054F3F6807F46041C5
:10111000490B064F7A5C4768D740C760F0BD0000B6
:10112000083802400024F40040787D0100000020CF
:1011300070B50024002500BF1DE0FFF73CFD6420D2
:10114000FFF77EFCFFF792FC28B9FFF72FFE322055
:10115000FFF776FC0DE00A20FFF772FCFFF7EEFCCC
:1011600028B9FFF723FE3220FFF76AFC01E00125D2
:1011700003E0601CC4B2052CDFDB00BF284670BD55
:101180000246002013890B400BB1012000E0002033
:101190007047014688897047818170477047000019
:1011A00000B58FB001210820FFF71EFF072205219F
:1011B0005348FFF7D1FB072206215148FFF7CCFB2C
:1011C00002208DF8380000208DF83A0020200D9084
:1011D00001208DF83B0002208DF839000DA9484808
:1011E000FFF772FB02208DF8380040200D900DA90A
:1011F0004348FFF769FB01214804FFF705FF4FF45F
:10120000E13009900020ADF830000C20ADF82E0040
:101210000020ADF82C00ADF82A00ADF8280009A98F
:10122000384800F045FA012240F22551354800F0D7
:1012300019FA26208DF8200001208DF823008DF862
:1012400021008DF8220008A8FFF734FE01212D4867
:1012500000F0C5F901218804FFF7D6FE0121022024
:10126000FFF7D2FE01214805FFF7CEFE4FF4806064
:10127000059002208DF819008DF8180005A9224864
:10128000FFF722FB4FF40060059000208DF8180056
:1012900005A91D48FFF718FB4FF4E130019000202D
:1012A000ADF80800ADF80A00ADF80C00ADF810007C
:1012B0000C20ADF80E0001A9144800F0F9F9012244
:1012C00040F22551114800F0CDF9012240F22441AD
:1012D0000E4800F0C7F901210C4800F080F92720E2
:1012E0008DF81C0006208DF81D0000208DF81E00D2
:1012F00001208DF81F0007A8FFF7DCFD0FB000BD2F
:10130000000C02400044004000040240004800403D
:101310000FB400B59BB01DA8019002A8019A1C99BA
:1013200000F04CFA0020019002A800F013F81BB066
:101330005DF814FB10B504462146054800F027FA75
:1013400000BF8021024800F056F90028F9D010BDF6
:101350000044004070B50446002503E0605DFFF7DF
:10136000E9FF6D1C605D0028F8D170BD0CB5002050
:10137000019000903448006840F4803032490860A1
:1013800000BF3148006800F4003000900198401C14
:101390000190009818B90198B0F5A04FF1D12A48F2
:1013A000006800F4003010B10120009001E000203E
:1013B00000900098012846D123484030006840F052
:1013C00080502149403108602048006840F4404086
:1013D0001E4908601C48083000681B490831086035
:1013E0000846006840F4004008600846006840F481
:1013F000A05008601648091F0860081F006840F0E8
:101400008070091F086000BF0F48006800F000707E
:101410000028F9D040F205700E4908600A480830EB
:10142000006820F003000849083108600846006899
:1014300040F00200086000BF03480830006800F078
:101440000C000828F8D10CBD0038024000700040A4
:1014500019544007003C02407047000010B5154881
:10146000006840F47000134908601348006840F0B9
:1014700001001149086000200F49083108600E483A
:1014800000680E4908400C4908600D48091D0860B5
:10149000081F006820F48020091F0860002006490A
:1014A0000C310860FFF762FF4FF00060014980399E
:1014B000086010BD88ED00E000380240FFFFF6FE36
:1014C0001030002410B50749074801F00BFC06480E
:1014D000017806A0FFF71CFF0248017803A0FFF780
:1014E00017FF10BDBD000020BC00002025640000D7
:1014F00010B50121064800F012F840B1012104485E
:1015000000F00AF803480088401C0249088010BD1A
:1015100000080040A4000020CA430282704730B592
:101520000246002000230024158A05EA010395895C
:1015300005EA010413B10CB1012000E0002030BD28
:1015400010B52021054800F056F8012804D140F2DA
:101550002551024800F034F810BD0000004400405E
:1015600010B540F225510E4800F052F848B10C4831
:1015700000F008F9C4B2232C11D10AA000F00EF932
:101580000DE040F22441064800F042F838B104482A
:1015900000880348001D008803A000F0FFF810BD7C
:1015A000004800405043000052656365697665203D
:1015B00061206672616D6520646174612E20000097
:1015C00010B50022002340F66A14A14200D100BFEA
:1015D0000A1201249440A3B2DC43048010BD21B15F
:1015E000828942F40052828104E082894DF6FF73C1
:1015F0001A408281704702460020B1F5007F00D179
:1016000000BF13880B400BB1012000E000207047A1
:1016100070B50246002400230025002040F66A161B
:10162000B14200D100BFC1F3421501F01F030126F2
:1016300006FA03F3012D02D19689334006E0022D0C
:1016400002D1168A334001E0968A33400C120126FB
:1016500006FA04F41688344013B10CB1012000E0FE
:10166000002070BDF0B503460024002600250020B0
:1016700040F66A17B94200D100BF1846C1F34214C0
:1016800001F01F06012707FA06F5012C01D10C30E5
:1016900004E0022C01D1103000E014301AB10768C8
:1016A0002F43076002E00768AF430760F0BD00000A
:1016B0002DE9FF4705460E460024A14600BFA0467F
:1016C000B08900B100BF2C8A24F44054F088044350
:1016D0002C82AC8941F20C608443B0883189084384
:1016E000718908430443AC81AC8A24F44074B08906
:1016F0000443AC826846FFF7A7FC2048854202D02D
:101700001F48854202D1DDF80C9001E0DDF8089019
:10171000A88900F4004040B109EBC90000EB0910B2
:1017200031684900B0FBF1F707E009EBC90000EBB5
:10173000091031688900B0FBF1F76420B7FBF0F0C5
:1017400004012009642101FB1078A88900F40040FD
:1017500040B1322000EBC800B0FBF1F000F0070010
:10176000044308E0322000EB08106421B0FBF1F0E4
:1017700000F00F0004432C81BDE8FF8700100140FA
:101780000014014001468888C0F308007047C1F387
:1017900008028280704700BFFEE700000FB4054BCF
:1017A00010B503A9044A029800F0ECF810BC5DF8EB
:1017B00014FB0000DB200008C000002037B51446F1
:1017C0000846064B6A46214600F0DCF804466946A6
:1017D000002000F05AFC20463EBD00008B2000088F
:1017E00002E008C8121F08C1002AFAD170477047EA
:1017F000002001E001C1121F002AFBD17047000048
:101800002DE9FF5F82B00021DDE90430020DDDF833
:1018100040B0034318D044F61050A2F2FF324243C6
:101820001514119801281FD0A5EB0B00401C5FEA8E
:10183000000A4FF000064E4FDFF83891B046504690
:1018400015D5CAF1000413E0119801244AA3012818
:1018500001D16FEA0B010298119AC0E90031C0E989
:10186000024206B0BDE8F09FCBF10000DFE704467E
:101870000021404A491842EB0450CDE9001012E023
:10188000E00707D032463B4640464946FEF70CFE8D
:101890008046894632463B4610461946FEF704FE0E
:1018A00006460F466410002CEAD1DDE90401DDE9AB
:1018B0000023BAF1000F06DAFEF7F6FD42464B466A
:1018C000FEF7F2FD05E0FEF761FE42464B46FEF7ED
:1018D0005DFE04460E460022284BFEF7DFFE03D8CD
:1018E0004FF0FF30014607E00022254B20463146ED
:1018F000FEF733FDFEF7B9FE102409E0002C0ADBE9
:101900000A220023FEF7F8FC039B30321A55641EAE
:1019100050EA0102F2D1641C039AC4F11103144489
:10192000119A012A03D0012208430DD10AE008438D
:1019300004D000204FF0110B119072E7A3EB0B05C0
:101940006D1E0DE05B4504DD4FF0000205F1010561
:1019500004E003DA4FF00002A5F10105002AECD003
:1019600002981199C0E90231C0E9004579E7000009
:10197000000014400000F03F300000000000F04381
:101980000000E03F2DE9FF4F95B09A468846064695
:101990000025EEE1252877D100242746F94A0121C8
:1019A000039400E0044316F8013F203B01FA03F0E2
:1019B0001042F7D130782A2811D06FF02F033078F9
:1019C000A0F13002092A16D8039A44F0020402EB6F
:1019D000820203EB42021044761C0390EFE758F8B2
:1019E000042B0392002A03DA504244F4005403907B
:1019F00044F00204761C30782E2816D116F8010F18
:101A000044F004042A280DD06FF02F023078A0F1A2
:101A10003003092B09D807EB870302EB4303C718F0
:101A2000761CF3E758F8047B761C30786C280FD0CE
:101A300006DC4C2817D068280DD06A2814D104E0A1
:101A4000742810D07A280FD10DE044F400140AE075
:101A500044F4801401E044F440147278824202D1CC
:101A600004F58014761C761C307866280BD013DCC5
:101A7000582877D009DC002875D04528F6D04628AC
:101A8000F4D047281AD193E118E0632835D06428B0
:101A900079D0652812D18BE1702873D008DC6728D3
:101AA000F1D069286FD06E280DD06F2806D1ACE038
:101AB00073282CD0752874D0782853D052461799A3
:101AC00090476D1C54E1C4F30250022809D003284A
:101AD0000DD0D8F8001004280DD00D6008F10408CE
:101AE00046E1D8F80010EA17C1E90052F6E7D8F845
:101AF00000100D80F2E70D70F0E718F8041B8DF868
:101B0000001000208DF80100EB46012003E058F89A
:101B100004BB4FF0FF3061074FF0000102D40DE02D
:101B200009F101018946B9420FDA8145F8DB1BF85A
:101B300009100029F4D108E009F101018946814228
:101B4000FADB1BF809100029F6D103985346A0EBE5
:101B5000090721463846179A00F080FA284400EB1E
:101B6000090507E044E008E10DE01BF8010B5246CF
:101B700017999047B9F10109F7D2534621463846E3
:101B8000179AF2E039E00A21C4F302524FF0000B39
:101B90000091022A06D058F8040BC117032A09D075
:101BA0000AE023E008F1070020F00702F2E8020152
:101BB000904605E000B2C117042A01D140B2C11716
:101BC000002906DA0A460021404261EB02012D227B
:101BD00002E0220504D52B228DF80420012203E027
:101BE000E20701D02022F7E7914657E00A2100E002
:101BF00010214FF0000B00910BE010214FF0000B73
:101C000044F004040827009103E008204FF0000B83
:101C10000090C4F30252022A05D058F8040B0021A8
:101C2000032A08D008E008F1070020F00702F2E8D4
:101C30000201904603E080B2042A00D1C0B24FF006
:101C4000000922072AD53278702A07D0DDF800C0B3
:101C50008CF0100C5CEA0B0C05D00EE040228DF8E5
:101C60000420012208E050EA010306D030238DF859
:101C700004308DF8052002229146009B83F0080372
:101C800053EA0B030AD150EA010201D1620705D5DC
:101C900030228DF804204FF001097F1E3278582A37
:101CA00004D039A20C920CAA02920BE03BA2F9E7F5
:101CB0005B46009AFEF720FB0C9B9B5C029A521E2F
:101CC0000292137050EA0102F2D1029804A9081A94
:101CD00000F1200B600702D524F4803400E00127D6
:101CE0005F4502DDA7EB0B0000E0002000EB0B01DD
:101CF000009003984944401A0390E00306D45346E9
:101D00002146179A039800F0A9F90544002706E038
:101D100001A85246C05D179990476D1C7F1C4F4526
:101D2000F6DBE0030CD553462146179A039800F0E2
:101D300095F9054404E030205246179990476D1CF0
:101D40000099481E00900029F5DC08E002980299ED
:101D500052460078491C0291179990476D1CBBF1BF
:101D60000001ABF1010BF1DC5BE100F065F905442A
:101D7000761C307800287FF40DAE19B02846BDE8F7
:101D8000F08F000009280100303132333435363706
:101D900038396162636465660000000030313233B7
:101DA0003435363738394142434445460000000057
:101DB000600700D4062708F1070020F00700F0E8CC
:101DC0000223804603F0004C5FEA0C0001D097A08C
:101DD00009E0200501D596A005E0E00701D095A017
:101DE00001E0AFF24C001390307823F000436528F7
:101DF0000CD006DC452809D046281DD047287FD1C5
:101E00003BE0662818D067287AD136E00021112FF0
:101E100001DB112000E0781CCDE9000104A90CA829
:101E2000FFF7EEFCDDE90D010C9A4FF0000B07F116
:101E30000109109200914EE04FF000400097CDE96B
:101E4000011004A90CA8FFF7DBFCDDE90D020C9BD7
:101E50000F994FF0000B91461093009211B9791C25
:101E600000EB0109B7EB090003D4C0F1FF3B07F118
:101E70000109A9EB0700019042E0012F00DA0127D8
:101E80000021112F01DD112000E03846CDE90001CD
:101E900004A90CA8FFF7B4FCDDE90D010C9A009130
:101EA0004FF0000BB946109221070FD4009A4A4513
:101EB00003DA914601E0A9F10109B9F1010F05DD4D
:101EC000109AA9F10101515C3029F4D0B84202DA2C
:101ED00010F1040F03DA0121CDE9011010E0002810
:101EE00003DC8344A9EB000102E0411C494500DD0D
:101EF0008946A0EB0B00401C01904FF0004002907F
:101F0000200705D40198484502DB4FF0FF300190CF
:101F100000208DF84B0002980DF14B07B0F1004FF7
:101F200025D002200C902B200D90029800280CDA6E
:101F3000404202902D200D9007E00A210298FEF702
:101F4000C5F93031029007F8011D0C99481E0C901C
:101F50000029F2DC02980028EFD1791E0D98087054
:101F6000307800F0200040F0450007F8020D11A87D
:101F7000C01BC01D02901398007800B1012000EB37
:101F80000901019801EBE071029801440398401A9D
:101F9000401E0390E00306D453462146179A039847
:101FA00000F05CF805441398007818B15246179970
:101FB00090476D1CE00323D553462146179A03989A
:101FC00000F04CF805441BE0BBF1000F07DB009864
:101FD000584504DD1098179910F80B0001E0179987
:101FE00030205246904701980BF1010B401E05F13D
:101FF0000105019004D12E205246179990476D1C7F
:10200000B9F10001A9F10109DEDC05E017F8010BC7
:102010005246179990476D1C0299481E029000295C
:10202000F4DC53462146179A03989EE62D000000E3
:102030002B000000200000002DE9F041044600259F
:102040001E461746880404D405E039462020B047D0
:102050006D1C641EF9D52846BDE8F0812DE9F041DC
:10206000044600251E469046C80301D5302700E0EF
:102070002027880404D505E041463846B0476D1C4A
:10208000641EF9D52846BDE8F0810A68531C0B6030
:102090001070704700B5034603E04FF47A7000F00B
:1020A00005F8181EA3F10103F7D100BD00EBC00134
:1020B000C9004FF0E02251610021916105211161B9
:1020C00000BF4FF0E021096901F480310029F8D008
:1020D00004214FF0E0221161704770B504460D46AF
:1020E000E0B2FFF727F9204670BD00001CB5FEF7EF
:1020F000A7FBFEF78FFB00F041FEFFF751F801242C
:1021000000F09EFE2248012100234A02CDE9001082
:1021100020A1224801F0DAFA0446214802210023D6
:102120000A02CDE900101FA1224801F0CFFA0446AF
:102130002148032100234FF40072CDE900101FA1B4
:10214000224801F0C3FA0446214804210023CA01B1
:10215000CDE900101FA1234801F0B8FA0446224837
:10216000052100234FF40072CDE900101FA1224881
:1021700001F0ACFA0446012C02D100F0B9FF02E0F4
:102180004FF0FF301CBD00F085FE0020FAE7000094
:10219000A80000204C44333332300000C10900084D
:1021A000AC000020506F73446574656374696F6E92
:1021B00000000000310F0008B000002045535033EC
:1021C00032436F6D6D757465000000007308000880
:1021D000B4000020436C6F636B446973706C617969
:1021E0000000000011080008B8000020506C617960
:1021F0004D757369630000002F0F00082DE9F04151
:1022000005460E462648076826480068001D00F06F
:10221000D9FD50B92348006890F82C10012088405F
:1022200021490968814320480160681CD8B9D6B1AA
:102230001E4948681B49096888601A49826809680C
:10224000CA6018490968091D826851601549096802
:10225000091D8160154A134909684A6111460968D8
:10226000491C11601AE07C190E4800684460BC42A9
:1022700007D20C480168091D0D48006800F0C6FD32
:102280000CE008480168091D0A48006800F0BEFD1E
:1022900009480068844201D207480460BDE8F08123
:1022A00038000020240000203C000020B80100205D
:1022B0002C000020280000205400002010B5044607
:1022C00000F0BEFD31480068401C304908603048CD
:1022D000006840B92E4804600846006801280DD106
:1022E00000F0B2F90AE02B48006838B928480068C5
:1022F000C06AE16A884201D825480460264800681F
:10230000401C2549086008460068206494F82C1099
:102310000120884021490968084320490860E16A92
:1023200001EB81011E4A02EB81014868A0608268CE
:10233000E260211D826851608160E16A01EB8101E8
:10234000174A02EB81026261E16A01EB8101144AE2
:1023500052F82110491CE26A02EB8202104B43F84A
:10236000221000F097FD0B48006868B1084800682B
:10237000C06AE16A884207D24FF08050094908607C
:10238000BFF34F8FBFF36F8F10BD000034000020EC
:102390002400002040000020500000203C000020CD
:1023A0000401002004ED00E010B500F049FD1048E4
:1023B0000068D0B90F4800F019FD0F4800F016FD75
:1023C0000C480E4908600C480D49086000220C2199
:1023D0000A2000F0DDFF064908600846006820B1C9
:1023E00008A10348006800F0CDFD00F053FD10BDCA
:1023F0006C000020CC010020E001002064000020DF
:1024000068000020546D72510000000010B516E005
:1024100000F016FD0C48C068C468201D00F0D2FC16
:102420000A480068401E0949086009480068401EC3
:102430000749086000F02EFD204600F020F804480F
:1024400000680028E4D110BDA40100203400002061
:102450003000002070B504460D46206C70B1216C30
:10246000E0680144E160D4E90210884201D32168A8
:10247000E1602846226CE168FDF704FF70BD10B5ED
:102480000446206B00F024FD204600F021FD10BD25
:102490000146084A126812680AB9012200E00022C7
:1024A0000A600A6822B9034A1268D268106800E01C
:1024B000002070476400002030B54FF49633154873
:1024C00000F007042CB1C01D20F00700114C041BC4
:1024D0001B1B0246104C226000240F4D6C60D0186C
:1024E000083820F007000D4C206000240B4D2D68AB
:1024F0006C600A4D2D682C601146441A4C60074CE4
:1025000024680C60064D4C682C60064D4C682C60AD
:1025100030BD0000F4010020840000208C00002069
:10252000940000209000002000BFFFF76FFF0648D6
:1025300000680128F9D94FF0805004490860BFF3C2
:102540004F8FBFF36F8FF0E70401002004ED00E030
:102550002DE9F04106460D4617469846069C0DB9F2
:10256000246000E02760E66325640121204600F036
:1025700043FF84F84C80BDE8F0812DE9F05F82468E
:102580000F4690469B460A9E0C9C4FEA8801A52266
:10259000206BFDF789FEA8F10100216B01EB80099A
:1025A00029F0070909F0070008B9012000E0002020
:1025B00050B900BF502080F31188BFF34F8FBFF395
:1025C0006F8F00BF00BFFEE77FB1002507E0795D98
:1025D00004F134004155785D00B902E06D1C0A2D0C
:1025E000F5D300BF00213D200155052E01D2012069
:1025F00000E0002050B900BF502080F31188BFF3E5
:102600004F8FBFF36F8F00BF00BFFEE7052E00D3D3
:102610000426E662A664201D00F0F5FB04F1180014
:1026200000F0F1FB2461C6F10500A06164625A4626
:102630005146484600F0FAFA20600B9808B10B9812
:102640000460BDE8F09F000010B5002407E004EB33
:1026500084010F4A02EB810000F0C8FB641C052CCA
:10266000F5D30C4800F0C2FB0B4800F0BFFB0B4851
:1026700000F0BCFB0A4800F0B9FB0A4800F0B6FBCA
:1026800004480949086004480849086010BD000072
:1026900004010020680100207C010020900100203E
:1026A000A4010020B8010020280000202C000020F8
:1026B00010B50146164800E0006803688B42FBD362
:1026C0000246436813448B4204D143684C68234458
:1026D000436001460A464B6813440468A34211D183
:1026E0000C4C03682468A34208D04B6804686468F3
:1026F00023444B6003681B680B6005E0054B1B68B7
:102700000B6001E003680B60884200D0016010BDDF
:10271000840000208C0000202DE9F04104460D4685
:1027200016461F464FF0000865602461B5420CD87C
:10273000F01BA169884202D34FF0010811E0211D6E
:102740000948006800F062FB0BE0BE4204D2BD42C3
:1027500002D34FF0010804E0211D0448006800F096
:1027600055FB4046BDE8F081680000206400002071
:1027700070B5054600F064FBA86B08B9012400E0C1
:10278000002400F087FB204670BD000070B50546B0
:102790000E460E480068C068C468201D00F012FB99
:1027A00094F8280000F0040028B13246294620465B
:1027B00000F0D6F805E094F8280000F0FE0084F858
:1027C00028002046216A884770BD00006400002070
:1027D0007FB57FE0019800287CDB039C606908B925
:1027E000012000E0002010B9201D00F0EBFA68463F
:1027F00000F0E2F8054601980A2869D2DFE800F007
:102800006805072E365806082F3700BF00BF00BFE7
:1028100094F8280040F0010084F828000298A2698A
:10282000811803462A462046FFF776FFA8B194F8A0
:10283000280000F0040038B10298A26981182A46E5
:10284000204600F08DF805E094F8280000F0FE0026
:1028500084F828002046216A88473AE000BF94F8AF
:10286000280000F0FE0084F8280032E000BF94F851
:10287000280040F0010084F828000298A061A069B7
:1028800008B1012000E0002050B900BF502080F3C3
:102890001188BFF34F8FBFF36F8F00BF00BFFEE7FC
:1028A000A06941192B462A462046FFF735FF10E064
:1028B00094F8280000F0020018B9204600F008FB48
:1028C00005E094F8280000F0FE0084F8280000E0FD
:1028D00000BF00BF002201A90348006800F0FAFD14
:1028E00000287FF477AF7FBD6C000020F8B5054667
:1028F0000C4600F04BFC684600F05EF80646009877
:1029000020BB44B9B54206D801F098F831462846B4
:10291000FFF73CFF1CE03CB10E480068006808B9B6
:10292000012000E000200446A91B22460A48006856
:1029300000F058FB01F082F850B94FF08050074981
:102940000860BFF34F8FBFF36F8F01E001F076F89F
:10295000F8BD0000680000206C00002004ED00E0DD
:1029600070B504460D46164604E0A06905442046AD
:10297000216A8847A06941192B4632462046FFF755
:10298000CBFE0028F1D170BD09480068006808B985
:10299000012000E0002020B14FF0FF300549086021
:1029A00005E003480068C068006802490860704795
:1029B000280000205400002070B5044600F0CAFE34
:1029C000054607480068854204D200F00BF8012054
:1029D000206001E00020206001480560284670BDAD
:1029E0007400002070B508E00D480068C0680468F5
:1029F0004FF0FF312046FFF7C9FE09480068006824
:102A000008B9012000E000200028EDD00448056846
:102A100004480068024908600248056070BD000073
:102A200064000020680000200E480068401C08B9BF
:102A3000012000E0002050B900BF502080F3118831
:102A4000BFF34F8FBFF36F8F00BF00BFFEE700BF24
:102A5000502080F31188BFF34F8FBFF36F8F00BFFB
:102A600000BFFEE77800002008B500BF6846FFF70A
:102A70000FFD044620460099FFF738FFFFF7A8FE38
:102A8000F4E770B5044600F0DBF994F9455010E026
:102A9000606A08B9012000E0002038B904F1240080
:102AA00000F03CFF18B100F0CFFA00E003E0681E30
:102AB00045B2002DECDC00BFFF2084F8450000F09B
:102AC000E9F900F0BDF994F9445010E0206908B923
:102AD000012000E0002048B904F1100000F01EFFC2
:102AE00008B100F0B1FA681E45B200E001E0002D27
:102AF000ECDC00BFFF2084F8440000F0CBF970BD8F
:102B00002DE9F04705464FF0000900F03FFB424831
:102B1000006808B9FFF7D0FC75B105F00700C0F1F7
:102B20001008C8F1FF30A84201D2012000E00020C7
:102B300008B9454400E00025012000EBE5700028BD
:102B400053D0002D51D03548006885424DD8344EC1
:102B50003046046801E0264624686068A84202D234
:102B600020680028F7D12C48006884423DD03068A6
:102B700000F10809206830606068401B102819D9EE
:102B8000671907F0070008B9012000E0002050B9DC
:102B900000BF502080F31188BFF34F8FBFF36F8FBA
:102BA00000BF00BFFEE76068401B78606560384684
:102BB000FFF77EFD194960680968081A174908601F
:102BC0000846006817490968884203D2134800681C
:102BD00014490860606840F0004060600020206098
:102BE00011480068401C1049086000F027FF09F0F8
:102BF000070008B9012000E0002050B900BF5020B4
:102C000080F31188BFF34F8FBFF36F8F00BF00BFFA
:102C1000FEE74846BDE8F0878C00002090000020C9
:102C2000840000209400002098000020001F4FF036
:102C300080730360001F21F001030360001F054B38
:102C4000036014380260001F6FF002030360203835
:102C500070470000292A000810B5044600BF022171
:102C60000A48FEF78DFA0028F9D021460748FEF7FA
:102C700093FA00BF01210548FEF782FA0028F9D037
:102C80000248FEF786FAC0B210BD0000003C0040CA
:102C900070B5002400251FE000BF4FF4807110487C
:102CA000FDF77DFE0028F8D02820FFF7FFF9600629
:102CB000040E4FF480710A48FDF771FE012801D11E
:102CC000601CC4B200BF4FF480710548FDF767FE79
:102CD0000128F8D0681CC5B2082DDDDB204670BD88
:102CE000000402402DE9F04781468A4600F046F88C
:102CF0004FF480711F48FDF752FE002837D100BF06
:102D00004FF480711B48FDF74AFE0028F8D000BF41
:102D10004FF480711748FDF742FE0128F8D0FFF705
:102D2000B7FF0446FFF7B4FF0546FFF7B1FF0646BD
:102D3000FFF7AEFF0746FFF7ABFF804600BF4FF43B
:102D400080710C48FDF72BFE0028F8D06019304444
:102D5000384440450BD10848067047708470C570F0
:102D6000007889F80000044880788AF80000BDE8FF
:102D7000F087000000040240A000002010B5FDF71D
:102D80005FFD4FF480710E48FDF715FE0120FFF73F
:102D90008DF94FF480710A48FDF70AFE1420FFF701
:102DA00079F94FF480710648FDF705FE1E20FFF704
:102DB0007DF9FDF72FFD0A20FFF778F910BD00001F
:102DC0000004024001460A69D1E901309860D1E966
:102DD000010358605068884201D188685060002023
:102DE00008611068401E10601068704700F108010B
:102DF00041604FF0FF31816000F10801C160016165
:102E000000210160704700210161704710B5024642
:102E10000B685C1C0CB9106907E002F1080000E0C7
:102E20004068446824689C42FAD944684C604C6805
:102E3000A160886041600A611468641C146010BD60
:102E400000BF502080F31188BFF34F8FBFF36F8F07
:102E500000BF0E480068401C0C4908600846006826
:102E6000012812D10A480068C0B208B9012000E068
:102E7000002050B900BF502080F31188BFF34F8F5E
:102E8000BFF36F8F00BF00BFFEE7704778000020E0
:102E900004ED00E00D48006850B900BF502080F3F9
:102EA0001188BFF34F8FBFF36F8F00BF00BFFEE7E6
:102EB00006480068401E054908600846006820B9B9
:102EC000002080F3118800BF00BF70477800002009
:102ED00070B506463546002E3BD0083D2C4660684E
:102EE000C00F50B900BF502080F31188BFF34F8F3F
:102EF000BFF36F8F00BF00BFFEE7206808B9012055
:102F000000E0002050B900BF502080F31188BFF3CB
:102F10004F8FBFF36F8F00BF00BFFEE76068C00F29
:102F2000B8B12068A8B9606820F00040606000F087
:102F30002DF9084960680968084406490860204678
:102F4000FFF7B6FB04480068401C0349086000F026
:102F500075FD70BD900000209C00002000204FF007
:102F6000E02108618861064800684FF47A71B0FB7F
:102F7000F1F0401E4FF0E0214861072008617047E2
:102F80001000002030B502460B46002152B900BFA8
:102F9000502484F31188BFF34F8FBFF36F8F00BFAE
:102FA00000BFFEE7BBB1002012E00D4C04EBC004F3
:102FB0006468944203D10A4C04EBC0010AE031B9C1
:102FC000074C54F8304014B9054C04EBC001401CC8
:102FD0000828EAD300BF09B10B604A6030BD000089
:102FE000C40000202DE9F04105460E4617462C4648
:102FF000FFF726FF94F94400401C10B9002084F824
:10300000440094F94500401C10B9002084F84500A4
:10301000FFF740FFA06B28B93A46314604F124007F
:1030200000F034F82046FFF72CFDBDE8F0810000E9
:10303000034909680160034909684160704700005D
:103040004C00002038000020012001490860704732
:103050004800002070B504460D4654B900BF50200A
:1030600080F31188BFF34F8FBFF36F8F00BF00BF96
:10307000FEE70548016818312046FFF7C7FE012129
:103080002846FFF7BBF870BD2400002070B5044649
:103090000E46154654B900BF502080F31188BFF387
:1030A0004F8FBFF36F8F00BF00BFFEE760680F490F
:1030B0000968C8610D49826809680A620B49096894
:1030C00018318268516009490968183181600749DF
:1030D00009688C622168491C21600DB14FF0FF36F0
:1030E00029463046FFF78AF870BD00002400002012
:1030F0001CB51E4800210B468222CDE900101CA100
:103100001D4800F0E3FA0446012C02D100F052FD04
:103110000446012C15D100BF502080F31188BFF365
:103120004F8FBFF36F8F00BF4FF0FF301349086020
:1031300001201349086000201249086000F074F86B
:1031400010E0601C08B1012000E0002050B900BF71
:10315000502080F31188BFF34F8FBFF36F8F00BFF4
:1031600000BFFEE7084800681CBD000058000020B2
:1031700049444C4500000000292500085400002067
:1031800040000020380000205C0000200248006859
:10319000401C014908607047600000201D4800681D
:1031A00018B101201C49086032E000201A4908606B
:1031B0001A480068B0FA80F0C0F11F0101EB8100ED
:1031C000174A52F8200008B1012000E0002050B951
:1031D00000BF502080F31188BFF34F8FBFF36F8F74
:1031E00000BF00BFFEE701EB81020D4B03EB820045
:1031F00042685268426000F108024368934202D17B
:103200004268526842604268D268064B1A6000BF4A
:103210007047000060000020480000203C000020B3
:1032200004010020240000201CB5524800685249C7
:10323000884201D0012000E0002050B900BF50209A
:1032400080F31188BFF34F8FBFF36F8F00BF00BFB4
:10325000FEE7484800684849491E884201D00120DD
:1032600000E0002050B900BF502080F31188BFF368
:103270004F8FBFF36F8F00BF00BFFEE73F49084687
:1032800000780190FF200A461070084600780090F0
:103290009DF8000000F0F0009DF80020904201D160
:1032A000012000E0002050B900BF502080F31188B9
:1032B000BFF34F8FBFF36F8F00BF00BFFEE79DF8D6
:1032C000000000F050002E4A107007202D4A1060B8
:1032D00009E02C480068401E2A4A10609DF8000052
:1032E0004006000E00909DF8000000F0800080284D
:1032F000EFD024480068C0F10700042801D1012064
:1033000000E0002050B900BF502080F31188BFF3C7
:103310004F8FBFF36F8F00BF00BFFEE719480068F3
:103320000002184A10601046008800F4E060106047
:10333000124A019810700F482030006840F4700065
:103340000C49203108600846006840F07040086071
:10335000FFF704FE00200C490860FCF745FF0B480E
:10336000006840F0404009490860FCF729FF002050
:103370001CBD000000ED00E071C20F4100E400E060
:103380007C000020800000207800002034EF00E066
:103390002DE9F84305460E4617460024E5B1601EA8
:1033A000B0FBF5F0B04217D305FB06F010F1510F5A
:1033B00012D805FB06F808F15000FFF7A1FB044600
:1033C000B4B1A14609F150093B464A463146284668
:1033D0000094FFF7BDF80BE054B900BF502080F314
:1033E0001188BFF34F8FBFF36F8F00BF00BFFEE7A1
:1033F0002046BDE8F88300002DE9F04105460E4661
:1034000001272C4654B900BF502080F31188BFF328
:103410004F8FBFF36F8F00BF00BFFEE7002C42D07D
:10342000E06B00283FD04FF0FF31E06BB1FBF0F0D4
:10343000216C884237D3FFF703FDD4E90F122068CF
:1034400001FB0200A0600020A06320686060E06BC8
:10345000401E226C216800FB0211E160FF2084F80D
:10346000440084F845009EB9206908B9012000E0B5
:103470000020A8B904F1100000F050FA80B14FF01C
:10348000805013490860BFF34F8FBFF36F8F07E081
:1034900004F11000FFF7AAFC04F12400FFF7A6FCDA
:1034A000FFF7F8FC00E000270FB1012000E000204A
:1034B00050B900BF502080F31188BFF34F8FBFF386
:1034C0006F8F00BF00BFFEE73846BDE8F081000007
:1034D00004ED00E02DE9F74183B005460E464FF0BC
:1034E00000082C4654B900BF502080F31188BFF368
:1034F0004F8FBFF36F8F00BF00BFFEE70EB9206C88
:1035000008B9012000E0002050B900BF502080F32E
:103510001188BFF34F8FBFF36F8F00BF00BFFEE76F
:1035200000F008F908B9059808B9012000E000206A
:1035300050B900BF502080F31188BFF34F8FBFF305
:103540006F8F00BF00BFFEE700BFFFF779FCA76BDE
:10355000F7B131462046FEF77DFF781EA063206953
:1035600008B9012000E0002060B904F1100000F06B
:10357000D5F938B14FF080502F490860BFF34F8F15
:10358000BFF36F8FFFF786FC012006B0BDE8F08126
:10359000059818B9FFF77EFC0020F6E7B8F1000F98
:1035A00004D101A8FFF744FD4FF00108FFF772FCBA
:1035B000FFF7ECFDFFF744FC94F94400401C10B900
:1035C000002084F8440094F94500401C10B9002004
:1035D00084F84500FFF75EFC05A901A800F02EF86D
:1035E000F0B92046FFF7C4F8A0B104F12400059912
:1035F000FFF730FD2046FFF744FA00F01FFA0028DD
:10360000A3D14FF080500C490860BFF34F8FBFF338
:103610006F8F9AE72046FFF734FA00F00FFA94E72D
:103620002046FFF72EFA00F009FA2046FFF7A0F82F
:1036300000288AD00020A8E704ED00E070B5054618
:103640000C4655B900BF502080F31188BFF34F8F4F
:10365000BFF36F8F00BF00BFFEE754B900BF50201B
:1036600080F31188BFF34F8FBFF36F8F00BF00BF90
:10367000FEE7FFF7E5FB134802686868131A206845
:10368000401C08B9002619E00F49286809688842DB
:1036900006D06868904203D80126002020600DE023
:1036A0002068984207D92068C01A20602846FFF792
:1036B000BFFC002602E0002020600126FFF7EAFBA5
:1036C000304670BD380000204C0000202DE9FF4F2F
:1036D00085B0804689461746DDE912ABB800FFF792
:1036E0000FFA064676B15820FFF70AFA04462CB1C5
:1036F00058212046FCF7DFFD266304E03046FFF743
:10370000E7FB00E000247CB10020CDE900ABCDE96F
:1037100002403A4649464046089BFEF72EFF2046A7
:10372000FEF7CCFD012501E04FF0FF35284609B03A
:10373000BDE8F08F0549096809B9012005E0044991
:10374000096809B9022000E000207047400000200D
:103750006000002001490868704700003800002020
:103760002DE9F0414FF000086148006800287DD144
:1037700060480068451C5F48056015BB5E480068EE
:10378000006808B9012000E0002050B900BF5020B7
:1037900080F31188BFF34F8FBFF36F8F00BF00BF5F
:1037A000FEE7554807685548006853490860534884
:1037B000076053480068401C51490860FFF7E4F86F
:1037C00000BF50480068854277D300BF4A48006870
:1037D000006808B9012000E0002020B14FF0FF3060
:1037E0004849086068E044480068C068C468666882
:1037F000B54202D2434806605EE06069D4E9021235
:103800008A60D4E902214A60211D42688A4201D1BE
:10381000E1684160002262610168491E0160A06A9E
:1038200098B1A06AD4E907128A60D4E907214A60F6
:1038300004F1180142688A4201D1216A41600022E4
:10384000A2620168491E016000BF94F82C1001209B
:1038500088402D49096808432B490860E16A01EB5B
:1038600081012A4A02EB8101486800E037E0A0604C
:103870008268E260211D826851608160E16A01EB2B
:103880008101224A02EB81026261E16A01EB81015E
:103890001E4A52F82110491CE26A02EB82021B4BBD
:1038A00043F822101A49E06A0968C96A88428DD92A
:1038B0004FF001088AE700E000BF15480068C06AC1
:1038C00000EB8000114951F82000012801D94FF088
:1038D00001081048006808B14FF0010804E00E48E4
:1038E0000068401C0C4908604046BDE8F0810000BB
:1038F0006000002038000020280000202C0000205C
:103900004C000020540000203C0000200401002056
:1039100024000020480000204400002070B5034629
:10392000D868C16851B900BF502080F31188BFF337
:103930004F8FBFF36F8F00BF00BFFEE7886AD1E9EA
:103940000745A560D1E90754656001F11804456891
:10395000A54201D10C6A446000258D620468641E92
:1039600004603048006800283DD14869D1E902452B
:10397000A560D1E9025465600C1D4568A54201D1DE
:10398000CC68446000254D610468641E046091F8B1
:103990002C400120A040244C24682043224C20606D
:1039A000CC6A04EB8404214D05EB840460688860D4
:1039B0008568CD600C1D85686C608460CC6A04EB02
:1039C00084041A4D05EB84054D61CC6A04EB840434
:1039D000164D55F82440641CCD6A05EB8505134E41
:1039E00046F8254010E0124C6068C86185680D6299
:1039F00001F1180485686C6084600D4D8D622C4661
:103A00002468641C2C6000BF0A4CC86A2468E46AFD
:103A1000A04204D901220120074C206000E00022CE
:103A2000104670BD600000203C0000200401002012
:103A300090010020240000204800002070B50024E0
:103A400000265348006850B900BF502080F3118809
:103A5000BFF34F8FBFF36F8F00BF00BFFEE7FFF7CD
:103A6000EFF94B480068401E494908600846006865
:103A700000287DD147480068002879D05BE046489F
:103A8000C068C468A06AD4E907128A60D4E9072133
:103A90004A6004F1180142688A4201D1216A4160FA
:103AA0000022A2620168491E01606069D4E9021225
:103AB0008A60D4E902214A60211D42688A4201D10C
:103AC000E1684160002262610168491E016094F86A
:103AD0002C10012088403149096808432F490860AB
:103AE000E16A01EB81012E4A02EB81014868A06086
:103AF0008268E260211D826851608160E16A01EBA9
:103B00008101274A02EB81026261E16A01EB8101D6
:103B1000234A52F82110491CE26A02EB8202204B30
:103B200043F822101F49E06A0968C96A884202D333
:103B300001201D4908601848006808B9012000E00C
:103B4000002000289BD00CB1FEF71EFF1748056827
:103B500065B100BFFFF704FE10B1012012490860F3
:103B60006D1E002DF6D10020104908600E4800E0BF
:103B700009E0006838B1012630070D490860BFF33D
:103B80004F8FBFF36F8FFFF785F9304670BD000090
:103B90006000002034000020900100203C00002044
:103BA00004010020240000204800002044000020E0
:103BB00004ED00E01CB50024FEF7F6FB0E4800689B
:103BC00058B10E48022100234FF48272CDE9001053
:103BD0000BA10D48FFF77AFD044654B900BF5020F1
:103BE00080F31188BFF34F8FBFF36F8F00BF00BF0B
:103BF000FEE720461CBD00006C0000207000002085
:103C0000546D722053766300692A00087469616EEE
:103C1000207169207A656E206D652079616E67007C
:103C20000000000000000000000000000000000094
:103C300000000000000000000000000000006E69AD
:103C4000206A69616F207368656E206D65000000F1
:103C50000000000000000000000000000000000064
:103C60000000000000000000000000000000000054
:103C70006E69207368692073686569000000000040
:103C80000000000000000000000000000000000034
:103C90000000000000000000000000000000000024
:103CA0000000626F2066616E672079696E20797509
:103CB000650000000000000000000000000000009F
:103CC00000000000000000000000000000000000F4
:103CD0000000000074692067616F2079696E206CB4
:103CE00069616E6700000000000000000000000035
:103CF00000000000000000000000000000000000C4
:103D00000000000000006A69616E67206469207924
:103D1000696E206C69616E670000000000000000A1
:103D20000000000000000000000000000000000093
:103D300000000000000000006775616E20626920CD
:103D4000686F6E672064656E670000000000000009
:103D50000000000000000000000000000000000063
:103D6000000000000000000000006775616E206226
:103D700069206C762064656E67000000000000001A
:103D80000000000000000000000000000000000033
:103D90000000000000000000000000006775616E78
:103DA000206269206C616E2064656E67000000000F
:103DB0000000000000000000000000000000000003
:103DC0000000000000000000000000000000636828
:103DD000656E206D656E6720646965207368692073
:103DE000736865690000000000000000000000002A
:103DF00000000000000000000000000000000000C3
:103E00006368656E207869616E672078696E2073DB
:103E10006869207368656900000000000000000008
:103E20000000000000000000000000000000000092
:103E3000000079696E206C69616E67207469206783
:103E4000616F0000000000000000000000000000A2
:103E50000000000000000000000000000000000062
:103E60000000000079696E206C69616E67206A69E4
:103E7000616E672064610000000000000000000027
:103E80000000000000000000000000000000000032
:103E90000000000000006775616E20626920737584
:103EA0006F20796F752064656E6700000000000068
:103EB0000000000000000000000000000000000002
:103EC0000000000000000000111515141213333417
:103ED000355A5B073906000000000000FC3E000870
:103EE00000000020C4000000E0170008C03F0008E8
:103EF000C400002034310100F01700080000000069
:103F0000010203040102030406070809007A030AF8
:103F10000000000000000000010203040607080979
:103F20000000000000000000000000000000000091
:103F30000000000000000000000000000000000081
:103F40000000000000000000000000000000000071
:103F5000000000000000000004000000000000005D
:103F60000000000000000000000000000000000051
:103F700000000000AAAAAAAA000000000000000099
:103F80000000000000000000000000000000000031
:103F90000000000000000000000000000000000021
:103FA0000000000000000000000000000000000011
:103FB0000000000000000000000000000000000001
:04000005080002618C
:00000001FF
